{
  "contractName": "Gate",
  "abi": [
    {
      "inputs": [
        {
          "internalType": "address",
          "name": "_oracle",
          "type": "address"
        }
      ],
      "stateMutability": "nonpayable",
      "type": "constructor"
    },
    {
      "inputs": [],
      "name": "SignatureInvalidV",
      "type": "error"
    },
    {
      "anonymous": false,
      "inputs": [
        {
          "indexed": true,
          "internalType": "bytes32",
          "name": "swapId",
          "type": "bytes32"
        }
      ],
      "name": "FundCancelEvent",
      "type": "event"
    },
    {
      "anonymous": false,
      "inputs": [
        {
          "indexed": true,
          "internalType": "bytes32",
          "name": "swapId",
          "type": "bytes32"
        },
        {
          "indexed": false,
          "internalType": "address",
          "name": "fromToken",
          "type": "address"
        },
        {
          "indexed": false,
          "internalType": "string",
          "name": "toToken",
          "type": "string"
        },
        {
          "indexed": true,
          "internalType": "address",
          "name": "sender",
          "type": "address"
        },
        {
          "indexed": true,
          "internalType": "string",
          "name": "recipient",
          "type": "string"
        },
        {
          "indexed": false,
          "internalType": "uint256",
          "name": "amount",
          "type": "uint256"
        },
        {
          "indexed": false,
          "internalType": "uint256",
          "name": "nonce",
          "type": "uint256"
        }
      ],
      "name": "FundEvent",
      "type": "event"
    },
    {
      "anonymous": false,
      "inputs": [
        {
          "indexed": true,
          "internalType": "address",
          "name": "oracle",
          "type": "address"
        }
      ],
      "name": "NewOracleEvent",
      "type": "event"
    },
    {
      "anonymous": false,
      "inputs": [
        {
          "indexed": true,
          "internalType": "address",
          "name": "previousOwner",
          "type": "address"
        },
        {
          "indexed": true,
          "internalType": "address",
          "name": "newOwner",
          "type": "address"
        }
      ],
      "name": "OwnershipTransferred",
      "type": "event"
    },
    {
      "anonymous": false,
      "inputs": [
        {
          "indexed": true,
          "internalType": "bytes32",
          "name": "swapId",
          "type": "bytes32"
        },
        {
          "indexed": false,
          "internalType": "bytes",
          "name": "signature",
          "type": "bytes"
        }
      ],
      "name": "SwapSigned",
      "type": "event"
    },
    {
      "inputs": [],
      "name": "owner",
      "outputs": [
        {
          "internalType": "address",
          "name": "",
          "type": "address"
        }
      ],
      "stateMutability": "view",
      "type": "function",
      "constant": true
    },
    {
      "inputs": [],
      "name": "renounceOwnership",
      "outputs": [],
      "stateMutability": "nonpayable",
      "type": "function"
    },
    {
      "inputs": [
        {
          "internalType": "address",
          "name": "newOwner",
          "type": "address"
        }
      ],
      "name": "transferOwnership",
      "outputs": [],
      "stateMutability": "nonpayable",
      "type": "function"
    },
    {
      "inputs": [
        {
          "internalType": "address",
          "name": "fromToken",
          "type": "address"
        },
        {
          "internalType": "string",
          "name": "toToken",
          "type": "string"
        },
        {
          "internalType": "string",
          "name": "recipient",
          "type": "string"
        },
        {
          "internalType": "uint256",
          "name": "amount",
          "type": "uint256"
        },
        {
          "internalType": "uint256",
          "name": "nonce",
          "type": "uint256"
        },
        {
          "internalType": "uint256",
          "name": "endtime",
          "type": "uint256"
        }
      ],
      "name": "fund",
      "outputs": [
        {
          "internalType": "bytes32",
          "name": "res",
          "type": "bytes32"
        }
      ],
      "stateMutability": "nonpayable",
      "type": "function"
    },
    {
      "inputs": [
        {
          "internalType": "bytes32",
          "name": "swapId",
          "type": "bytes32"
        }
      ],
      "name": "fundCancel",
      "outputs": [
        {
          "internalType": "bool",
          "name": "",
          "type": "bool"
        }
      ],
      "stateMutability": "nonpayable",
      "type": "function"
    },
    {
      "inputs": [
        {
          "internalType": "bytes32",
          "name": "swapId",
          "type": "bytes32"
        },
        {
          "internalType": "bytes",
          "name": "signature",
          "type": "bytes"
        }
      ],
      "name": "sign",
      "outputs": [],
      "stateMutability": "nonpayable",
      "type": "function"
    },
    {
      "inputs": [
        {
          "internalType": "bytes32",
          "name": "swapId",
          "type": "bytes32"
        }
      ],
      "name": "getSwap",
      "outputs": [
        {
          "internalType": "bytes32",
          "name": "id",
          "type": "bytes32"
        },
        {
          "internalType": "address",
          "name": "fromToken",
          "type": "address"
        },
        {
          "internalType": "string",
          "name": "toToken",
          "type": "string"
        },
        {
          "internalType": "address",
          "name": "sender",
          "type": "address"
        },
        {
          "internalType": "string",
          "name": "recipient",
          "type": "string"
        },
        {
          "internalType": "uint256",
          "name": "amount",
          "type": "uint256"
        },
        {
          "internalType": "uint256",
          "name": "nonce",
          "type": "uint256"
        },
        {
          "internalType": "uint256",
          "name": "endtime",
          "type": "uint256"
        },
        {
          "internalType": "bool",
          "name": "withdrawn",
          "type": "bool"
        },
        {
          "internalType": "bool",
          "name": "refunded",
          "type": "bool"
        },
        {
          "internalType": "bytes",
          "name": "signature",
          "type": "bytes"
        }
      ],
      "stateMutability": "view",
      "type": "function",
      "constant": true
    },
    {
      "inputs": [
        {
          "internalType": "address",
          "name": "_oracle",
          "type": "address"
        }
      ],
      "name": "setOracle",
      "outputs": [],
      "stateMutability": "nonpayable",
      "type": "function"
    },
    {
      "inputs": [],
      "name": "getOracle",
      "outputs": [
        {
          "internalType": "address",
          "name": "oracleAddress",
          "type": "address"
        }
      ],
      "stateMutability": "view",
      "type": "function",
      "constant": true
    }
  ],
  "bytecode": "0x60806040523480156200001157600080fd5b5060405162002bf738038062002bf78339818101604052810190620000379190620001d5565b620000576200004b6200009f60201b60201c565b620000a760201b60201c565b80600160006101000a81548173ffffffffffffffffffffffffffffffffffffffff021916908373ffffffffffffffffffffffffffffffffffffffff1602179055505062000207565b600033905090565b60008060009054906101000a900473ffffffffffffffffffffffffffffffffffffffff169050816000806101000a81548173ffffffffffffffffffffffffffffffffffffffff021916908373ffffffffffffffffffffffffffffffffffffffff1602179055508173ffffffffffffffffffffffffffffffffffffffff168173ffffffffffffffffffffffffffffffffffffffff167f8be0079c531659141344cd1fd0a4f28419497f9722a3daafe3b4186f6b6457e060405160405180910390a35050565b600080fd5b600073ffffffffffffffffffffffffffffffffffffffff82169050919050565b60006200019d8262000170565b9050919050565b620001af8162000190565b8114620001bb57600080fd5b50565b600081519050620001cf81620001a4565b92915050565b600060208284031215620001ee57620001ed6200016b565b5b6000620001fe84828501620001be565b91505092915050565b6129e080620002176000396000f3fe608060405234801561001057600080fd5b50600436106100935760003560e01c8063715018a611610066578063715018a61461014e5780637adbf97314610158578063833b1fce146101745780638da5cb5b14610192578063f2fde38b146101b057610093565b80633265d0bd14610098578063365e250b146100c85780633da0e66e146100e45780633dc322831461011e575b600080fd5b6100b260048036038101906100ad91906117c3565b6101cc565b6040516100bf919061180b565b60405180910390f35b6100e260048036038101906100dd919061196c565b610528565b005b6100fe60048036038101906100f991906117c3565b6107d8565b6040516101159b9a99989796959493929190611b0e565b60405180910390f35b61013860048036038101906101339190611cc7565b610ad3565b6040516101459190611d8c565b60405180910390f35b6101566110dd565b005b610172600480360381019061016d9190611da7565b6110f1565b005b61017c6111a2565b6040516101899190611dd4565b60405180910390f35b61019a6111cc565b6040516101a79190611dd4565b60405180910390f35b6101ca60048036038101906101c59190611da7565b6111f5565b005b6000816101d881611278565b610217576040517f08c379a000000000000000000000000000000000000000000000000000000000815260040161020e90611e3b565b60405180910390fd5b826102206112e7565b73ffffffffffffffffffffffffffffffffffffffff166002600083815260200190815260200160002060020160009054906101000a900473ffffffffffffffffffffffffffffffffffffffff1673ffffffffffffffffffffffffffffffffffffffff16146102c3576040517f08c379a00000000000000000000000000000000000000000000000000000000081526004016102ba90611ea7565b60405180910390fd5b600015156002600083815260200190815260200160002060070160019054906101000a900460ff1615151461032d576040517f08c379a000000000000000000000000000000000000000000000000000000000815260040161032490611f13565b60405180910390fd5b600015156002600083815260200190815260200160002060070160009054906101000a900460ff16151514610397576040517f08c379a000000000000000000000000000000000000000000000000000000000815260040161038e90611f7f565b60405180910390fd5b42600260008381526020019081526020016000206006015411156103f0576040517f08c379a00000000000000000000000000000000000000000000000000000000081526004016103e790612011565b60405180910390fd5b600060026000868152602001908152602001600020905060018160070160016101000a81548160ff0219169083151502179055508060000160009054906101000a900473ffffffffffffffffffffffffffffffffffffffff1673ffffffffffffffffffffffffffffffffffffffff1663a9059cbb8260020160009054906101000a900473ffffffffffffffffffffffffffffffffffffffff1683600401546040518363ffffffff1660e01b81526004016104ab929190612031565b6020604051808303816000875af11580156104ca573d6000803e3d6000fd5b505050506040513d601f19601f820116820180604052508101906104ee9190612086565b50847f6c0e214651db8d44150ff205e8e05c4ca8dc0bd059e8e78d18f683d0c6205d1d60405160405180910390a260019350505050919050565b8161053281611278565b610571576040517f08c379a000000000000000000000000000000000000000000000000000000000815260040161056890611e3b565b60405180910390fd5b82600015156002600083815260200190815260200160002060070160009054906101000a900460ff161515146105dc576040517f08c379a00000000000000000000000000000000000000000000000000000000081526004016105d3906120ff565b60405180910390fd5b600015156002600083815260200190815260200160002060070160019054906101000a900460ff16151514610646576040517f08c379a000000000000000000000000000000000000000000000000000000000815260040161063d9061216b565b60405180910390fd5b6000806000610654866112ef565b925092509250600060016106678961137e565b8386866040516000815260200160405260405161068794939291906121a7565b6020604051602081039080840390855afa1580156106a9573d6000803e3d6000fd5b505050602060405103519050600160009054906101000a900473ffffffffffffffffffffffffffffffffffffffff1673ffffffffffffffffffffffffffffffffffffffff168173ffffffffffffffffffffffffffffffffffffffff161461073c576040517f18ce829400000000000000000000000000000000000000000000000000000000815260040160405180910390fd5b86600260008a81526020019081526020016000206008019080519060200190610766929190611650565b506001600260008a815260200190815260200160002060070160006101000a81548160ff021916908315150217905550877fa305accbd0db7f95239b77e0d12d0bc97086c07877ef9590128956c1f9c5a8b5886040516107c691906121ec565b60405180910390a25050505050505050565b60008060606000606060008060008060006060600015156107f88d611278565b151503610867576000806000806000806000808760001b975060405180602001604052806000815250959493929190604051806020016040528060008152509493929190604051806020016040528060008152509a509a509a509a509a509a509a509a509a509a509a50610ac4565b6000600260008e815260200190815260200160002090508c8160000160009054906101000a900473ffffffffffffffffffffffffffffffffffffffff16826001018360020160009054906101000a900473ffffffffffffffffffffffffffffffffffffffff16846003018560040154866005015487600601548860070160009054906101000a900460ff168960070160019054906101000a900460ff168a6008018880546109149061223d565b80601f01602080910402602001604051908101604052809291908181526020018280546109409061223d565b801561098d5780601f106109625761010080835404028352916020019161098d565b820191906000526020600020905b81548152906001019060200180831161097057829003601f168201915b505050505098508680546109a09061223d565b80601f01602080910402602001604051908101604052809291908181526020018280546109cc9061223d565b8015610a195780601f106109ee57610100808354040283529160200191610a19565b820191906000526020600020905b8154815290600101906020018083116109fc57829003601f168201915b50505050509650808054610a2c9061223d565b80601f0160208091040260200160405190810160405280929190818152602001828054610a589061223d565b8015610aa55780601f10610a7a57610100808354040283529160200191610aa5565b820191906000526020600020905b815481529060010190602001808311610a8857829003601f168201915b505050505090509b509b509b509b509b509b509b509b509b509b509b50505b91939597999b90929496989a50565b600081428111610b18576040517f08c379a0000000000000000000000000000000000000000000000000000000008152600401610b0f906122e0565b60405180910390fd5b600060028960028a604051602001610b30919061233c565b604051602081830303815290604052604051610b4c919061238f565b602060405180830381855afa158015610b69573d6000803e3d6000fd5b5050506040513d601f19601f82011682018060405250810190610b8c91906123bb565b610b946112e7565b60028b604051602001610ba7919061233c565b604051602081830303815290604052604051610bc3919061238f565b602060405180830381855afa158015610be0573d6000803e3d6000fd5b5050506040513d601f19601f82011682018060405250810190610c0391906123bb565b6002610c0e8c6113ae565b604051602001610c1e919061233c565b604051602081830303815290604052604051610c3a919061238f565b602060405180830381855afa158015610c57573d6000803e3d6000fd5b5050506040513d601f19601f82011682018060405250810190610c7a91906123bb565b6002610c858c6113ae565b604051602001610c95919061233c565b604051602081830303815290604052604051610cb1919061238f565b602060405180830381855afa158015610cce573d6000803e3d6000fd5b5050506040513d601f19601f82011682018060405250810190610cf191906123bb565b604051602001610d0696959493929190612451565b604051602081830303815290604052604051610d22919061238f565b602060405180830381855afa158015610d3f573d6000803e3d6000fd5b5050506040513d601f19601f82011682018060405250810190610d6291906123bb565b9050610d6d81611278565b15610dad576040517f08c379a0000000000000000000000000000000000000000000000000000000008152600401610da49061250d565b60405180910390fd5b8873ffffffffffffffffffffffffffffffffffffffff166323b872dd610dd16112e7565b30896040518463ffffffff1660e01b8152600401610df19392919061252d565b6020604051808303816000875af1158015610e10573d6000803e3d6000fd5b505050506040513d601f19601f82011682018060405250810190610e349190612086565b610e73576040517f08c379a0000000000000000000000000000000000000000000000000000000008152600401610e6a906125d6565b60405180910390fd5b6040518061014001604052808a73ffffffffffffffffffffffffffffffffffffffff168152602001898152602001610ea96112e7565b73ffffffffffffffffffffffffffffffffffffffff168152602001888152602001878152602001868152602001858152602001600015158152602001600015158152602001604051806020016040528060008152508152506002600083815260200190815260200160002060008201518160000160006101000a81548173ffffffffffffffffffffffffffffffffffffffff021916908373ffffffffffffffffffffffffffffffffffffffff1602179055506020820151816001019080519060200190610f779291906116d6565b5060408201518160020160006101000a81548173ffffffffffffffffffffffffffffffffffffffff021916908373ffffffffffffffffffffffffffffffffffffffff1602179055506060820151816003019080519060200190610fdb9291906116d6565b506080820151816004015560a0820151816005015560c0820151816006015560e08201518160070160006101000a81548160ff0219169083151502179055506101008201518160070160016101000a81548160ff021916908315150217905550610120820151816008019080519060200190611058929190611650565b509050508660405161106a919061233c565b604051809103902061107a6112e7565b73ffffffffffffffffffffffffffffffffffffffff16827f8509d4a87aad586eb0290d532f65131b8872bf63168b88dad5f48171956a693e8c8c8b8b6040516110c694939291906125f6565b60405180910390a480925050509695505050505050565b6110e561150e565b6110ef600061158c565b565b6110f961150e565b80600160006101000a81548173ffffffffffffffffffffffffffffffffffffffff021916908373ffffffffffffffffffffffffffffffffffffffff160217905550600160009054906101000a900473ffffffffffffffffffffffffffffffffffffffff1673ffffffffffffffffffffffffffffffffffffffff167f1938167943cd56e64085b4cc277d51cc1e0255c0d17871d3b34daf97355e8ea860405160405180910390a250565b6000600160009054906101000a900473ffffffffffffffffffffffffffffffffffffffff16905090565b60008060009054906101000a900473ffffffffffffffffffffffffffffffffffffffff16905090565b6111fd61150e565b600073ffffffffffffffffffffffffffffffffffffffff168173ffffffffffffffffffffffffffffffffffffffff160361126c576040517f08c379a0000000000000000000000000000000000000000000000000000000008152600401611263906126b4565b60405180910390fd5b6112758161158c565b50565b60008073ffffffffffffffffffffffffffffffffffffffff166002600084815260200190815260200160002060020160009054906101000a900473ffffffffffffffffffffffffffffffffffffffff1673ffffffffffffffffffffffffffffffffffffffff1614159050919050565b600033905090565b6000806000602084015192506040840151915060ff6041850151169050601b8160ff16101561132857601b816113259190612703565b90505b601b8160ff16141580156113405750601c8160ff1614155b15611377576040517f18ce829400000000000000000000000000000000000000000000000000000000815260040160405180910390fd5b9193909250565b6000816040516020016113919190612786565b604051602081830303815290604052805190602001209050919050565b6060600082036113f5576040518060400160405280600181526020017f30000000000000000000000000000000000000000000000000000000000000008152509050611509565b600082905060005b60008214611427578080611410906127ac565b915050600a826114209190612823565b91506113fd565b60008167ffffffffffffffff81111561144357611442611841565b5b6040519080825280601f01601f1916602001820160405280156114755781602001600182028036833780820191505090505b5090505b600085146115025760018261148e9190612854565b9150600a8561149d9190612888565b60306114a991906128b9565b60f81b8183815181106114bf576114be61290f565b5b60200101907effffffffffffffffffffffffffffffffffffffffffffffffffffffffffffff1916908160001a905350600a856114fb9190612823565b9450611479565b8093505050505b919050565b6115166112e7565b73ffffffffffffffffffffffffffffffffffffffff166115346111cc565b73ffffffffffffffffffffffffffffffffffffffff161461158a576040517f08c379a00000000000000000000000000000000000000000000000000000000081526004016115819061298a565b60405180910390fd5b565b60008060009054906101000a900473ffffffffffffffffffffffffffffffffffffffff169050816000806101000a81548173ffffffffffffffffffffffffffffffffffffffff021916908373ffffffffffffffffffffffffffffffffffffffff1602179055508173ffffffffffffffffffffffffffffffffffffffff168173ffffffffffffffffffffffffffffffffffffffff167f8be0079c531659141344cd1fd0a4f28419497f9722a3daafe3b4186f6b6457e060405160405180910390a35050565b82805461165c9061223d565b90600052602060002090601f01602090048101928261167e57600085556116c5565b82601f1061169757805160ff19168380011785556116c5565b828001600101855582156116c5579182015b828111156116c45782518255916020019190600101906116a9565b5b5090506116d2919061175c565b5090565b8280546116e29061223d565b90600052602060002090601f016020900481019282611704576000855561174b565b82601f1061171d57805160ff191683800117855561174b565b8280016001018555821561174b579182015b8281111561174a57825182559160200191906001019061172f565b5b509050611758919061175c565b5090565b5b8082111561177557600081600090555060010161175d565b5090565b6000604051905090565b600080fd5b600080fd5b6000819050919050565b6117a08161178d565b81146117ab57600080fd5b50565b6000813590506117bd81611797565b92915050565b6000602082840312156117d9576117d8611783565b5b60006117e7848285016117ae565b91505092915050565b60008115159050919050565b611805816117f0565b82525050565b600060208201905061182060008301846117fc565b92915050565b600080fd5b600080fd5b6000601f19601f8301169050919050565b7f4e487b7100000000000000000000000000000000000000000000000000000000600052604160045260246000fd5b61187982611830565b810181811067ffffffffffffffff8211171561189857611897611841565b5b80604052505050565b60006118ab611779565b90506118b78282611870565b919050565b600067ffffffffffffffff8211156118d7576118d6611841565b5b6118e082611830565b9050602081019050919050565b82818337600083830152505050565b600061190f61190a846118bc565b6118a1565b90508281526020810184848401111561192b5761192a61182b565b5b6119368482856118ed565b509392505050565b600082601f83011261195357611952611826565b5b81356119638482602086016118fc565b91505092915050565b6000806040838503121561198357611982611783565b5b6000611991858286016117ae565b925050602083013567ffffffffffffffff8111156119b2576119b1611788565b5b6119be8582860161193e565b9150509250929050565b6119d18161178d565b82525050565b600073ffffffffffffffffffffffffffffffffffffffff82169050919050565b6000611a02826119d7565b9050919050565b611a12816119f7565b82525050565b600081519050919050565b600082825260208201905092915050565b60005b83811015611a52578082015181840152602081019050611a37565b83811115611a61576000848401525b50505050565b6000611a7282611a18565b611a7c8185611a23565b9350611a8c818560208601611a34565b611a9581611830565b840191505092915050565b6000819050919050565b611ab381611aa0565b82525050565b600081519050919050565b600082825260208201905092915050565b6000611ae082611ab9565b611aea8185611ac4565b9350611afa818560208601611a34565b611b0381611830565b840191505092915050565b600061016082019050611b24600083018e6119c8565b611b31602083018d611a09565b8181036040830152611b43818c611a67565b9050611b52606083018b611a09565b8181036080830152611b64818a611a67565b9050611b7360a0830189611aaa565b611b8060c0830188611aaa565b611b8d60e0830187611aaa565b611b9b6101008301866117fc565b611ba96101208301856117fc565b818103610140830152611bbc8184611ad5565b90509c9b505050505050505050505050565b611bd7816119f7565b8114611be257600080fd5b50565b600081359050611bf481611bce565b92915050565b600067ffffffffffffffff821115611c1557611c14611841565b5b611c1e82611830565b9050602081019050919050565b6000611c3e611c3984611bfa565b6118a1565b905082815260208101848484011115611c5a57611c5961182b565b5b611c658482856118ed565b509392505050565b600082601f830112611c8257611c81611826565b5b8135611c92848260208601611c2b565b91505092915050565b611ca481611aa0565b8114611caf57600080fd5b50565b600081359050611cc181611c9b565b92915050565b60008060008060008060c08789031215611ce457611ce3611783565b5b6000611cf289828a01611be5565b965050602087013567ffffffffffffffff811115611d1357611d12611788565b5b611d1f89828a01611c6d565b955050604087013567ffffffffffffffff811115611d4057611d3f611788565b5b611d4c89828a01611c6d565b9450506060611d5d89828a01611cb2565b9350506080611d6e89828a01611cb2565b92505060a0611d7f89828a01611cb2565b9150509295509295509295565b6000602082019050611da160008301846119c8565b92915050565b600060208284031215611dbd57611dbc611783565b5b6000611dcb84828501611be5565b91505092915050565b6000602082019050611de96000830184611a09565b92915050565b7f7377617020646f6573206e6f7420657869737400000000000000000000000000600082015250565b6000611e25601383611a23565b9150611e3082611def565b602082019050919050565b60006020820190508181036000830152611e5481611e18565b9050919050565b7f726566756e6461626c653a206e6f742073656e64657200000000000000000000600082015250565b6000611e91601683611a23565b9150611e9c82611e5b565b602082019050919050565b60006020820190508181036000830152611ec081611e84565b9050919050565b7f726566756e6461626c653a20616c726561647920726566756e64656400000000600082015250565b6000611efd601c83611a23565b9150611f0882611ec7565b602082019050919050565b60006020820190508181036000830152611f2c81611ef0565b9050919050565b7f726566756e6461626c653a20616c72656164792077697468647261776e000000600082015250565b6000611f69601d83611a23565b9150611f7482611f33565b602082019050919050565b60006020820190508181036000830152611f9881611f5c565b9050919050565b7f726566756e6461626c653a20656e6474696d65206e6f7420796574207061737360008201527f6564000000000000000000000000000000000000000000000000000000000000602082015250565b6000611ffb602283611a23565b915061200682611f9f565b604082019050919050565b6000602082019050818103600083015261202a81611fee565b9050919050565b60006040820190506120466000830185611a09565b6120536020830184611aaa565b9392505050565b612063816117f0565b811461206e57600080fd5b50565b6000815190506120808161205a565b92915050565b60006020828403121561209c5761209b611783565b5b60006120aa84828501612071565b91505092915050565b7f776974686472617761626c653a20616c72656164792077697468647261776e00600082015250565b60006120e9601f83611a23565b91506120f4826120b3565b602082019050919050565b60006020820190508181036000830152612118816120dc565b9050919050565b7f776974686472617761626c653a20616c726561647920726566756e6465640000600082015250565b6000612155601e83611a23565b91506121608261211f565b602082019050919050565b6000602082019050818103600083015261218481612148565b9050919050565b600060ff82169050919050565b6121a18161218b565b82525050565b60006080820190506121bc60008301876119c8565b6121c96020830186612198565b6121d660408301856119c8565b6121e360608301846119c8565b95945050505050565b600060208201905081810360008301526122068184611ad5565b905092915050565b7f4e487b7100000000000000000000000000000000000000000000000000000000600052602260045260246000fd5b6000600282049050600182168061225557607f821691505b6020821081036122685761226761220e565b5b50919050565b7f656e6474696d652074696d65206d75737420626520696e20746865206675747560008201527f7265000000000000000000000000000000000000000000000000000000000000602082015250565b60006122ca602283611a23565b91506122d58261226e565b604082019050919050565b600060208201905081810360008301526122f9816122bd565b9050919050565b600081905092915050565b600061231682611a18565b6123208185612300565b9350612330818560208601611a34565b80840191505092915050565b6000612348828461230b565b915081905092915050565b600081905092915050565b600061236982611ab9565b6123738185612353565b9350612383818560208601611a34565b80840191505092915050565b600061239b828461235e565b915081905092915050565b6000815190506123b581611797565b92915050565b6000602082840312156123d1576123d0611783565b5b60006123df848285016123a6565b91505092915050565b60008160601b9050919050565b6000612400826123e8565b9050919050565b6000612412826123f5565b9050919050565b61242a612425826119f7565b612407565b82525050565b6000819050919050565b61244b6124468261178d565b612430565b82525050565b600061245d8289612419565b60148201915061246d828861243a565b60208201915061247d8287612419565b60148201915061248d828661243a565b60208201915061249d828561243a565b6020820191506124ad828461243a565b602082019150819050979650505050505050565b7f74686973207377617020616c7265616479206578697374730000000000000000600082015250565b60006124f7601883611a23565b9150612502826124c1565b602082019050919050565b60006020820190508181036000830152612526816124ea565b9050919050565b60006060820190506125426000830186611a09565b61254f6020830185611a09565b61255c6040830184611aaa565b949350505050565b7f7472616e7366657246726f6d2073656e64657220746f2074686973206661696c60008201527f6564000000000000000000000000000000000000000000000000000000000000602082015250565b60006125c0602283611a23565b91506125cb82612564565b604082019050919050565b600060208201905081810360008301526125ef816125b3565b9050919050565b600060808201905061260b6000830187611a09565b818103602083015261261d8186611a67565b905061262c6040830185611aaa565b6126396060830184611aaa565b95945050505050565b7f4f776e61626c653a206e6577206f776e657220697320746865207a65726f206160008201527f6464726573730000000000000000000000000000000000000000000000000000602082015250565b600061269e602683611a23565b91506126a982612642565b604082019050919050565b600060208201905081810360008301526126cd81612691565b9050919050565b7f4e487b7100000000000000000000000000000000000000000000000000000000600052601160045260246000fd5b600061270e8261218b565b91506127198361218b565b92508260ff0382111561272f5761272e6126d4565b5b828201905092915050565b7f19457468657265756d205369676e6564204d6573736167653a0a333200000000600082015250565b6000612770601c83612300565b915061277b8261273a565b601c82019050919050565b600061279182612763565b915061279d828461243a565b60208201915081905092915050565b60006127b782611aa0565b91507fffffffffffffffffffffffffffffffffffffffffffffffffffffffffffffffff82036127e9576127e86126d4565b5b600182019050919050565b7f4e487b7100000000000000000000000000000000000000000000000000000000600052601260045260246000fd5b600061282e82611aa0565b915061283983611aa0565b925082612849576128486127f4565b5b828204905092915050565b600061285f82611aa0565b915061286a83611aa0565b92508282101561287d5761287c6126d4565b5b828203905092915050565b600061289382611aa0565b915061289e83611aa0565b9250826128ae576128ad6127f4565b5b828206905092915050565b60006128c482611aa0565b91506128cf83611aa0565b9250827fffffffffffffffffffffffffffffffffffffffffffffffffffffffffffffffff03821115612904576129036126d4565b5b828201905092915050565b7f4e487b7100000000000000000000000000000000000000000000000000000000600052603260045260246000fd5b7f4f776e61626c653a2063616c6c6572206973206e6f7420746865206f776e6572600082015250565b6000612974602083611a23565b915061297f8261293e565b602082019050919050565b600060208201905081810360008301526129a381612967565b905091905056fea26469706673582212201c53e8eb34afb36846ef124ce4aca70dadc06adc2fdc2537890d40a519c84c8c64736f6c634300080e0033",
  "immutableReferences": {},
  "source": "// SPDX-License-Identifier: AGPL-3.0\n\npragma solidity ^0.8.10;\n\nimport \"@openzeppelin/contracts/token/ERC20/IERC20.sol\";\nimport \"@openzeppelin/contracts/access/Ownable.sol\";\nimport \"@openzeppelin/contracts/utils/Strings.sol\";\n\ncontract Gate is Ownable {\n    error SignatureInvalidV();\n\n    struct Swap {\n        address fromToken;\n        string toToken;\n        address sender;\n        string recipient;\n        uint256 amount;\n        uint256 nonce;\n        uint256 endtime;\n        bool withdrawn;\n        bool refunded;\n        bytes signature;\n    }\n\n    event FundEvent(\n        bytes32 indexed swapId,\n        address fromToken,\n        string toToken,\n        address indexed sender,\n        string indexed recipient,\n        uint256 amount,\n        uint256 nonce\n    );\n    event FundCancelEvent(\n        bytes32 indexed swapId\n    );\n\n    event NewOracleEvent(address indexed oracle);\n    event SwapSigned(\n        bytes32 indexed swapId,\n        bytes signature\n    );\n\n    address oracle;\n\n    mapping(bytes32 => Swap) swaps;\n\n    constructor(address _oracle) {\n        oracle = _oracle;\n    }\n\n    modifier futureEndtime(uint256 endtime) {\n        require(\n            endtime > block.timestamp,\n            \"endtime time must be in the future\"\n        );\n        _;\n    }\n\n    modifier withdrawable(bytes32 swapId) {\n        require(\n            swaps[swapId].withdrawn == false,\n            \"withdrawable: already withdrawn\"\n        );\n        require(\n            swaps[swapId].refunded == false,\n            \"withdrawable: already refunded\"\n        );\n        _;\n    }\n\n    modifier refundable(bytes32 swapId) {\n        require(\n            swaps[swapId].sender == _msgSender(),\n            \"refundable: not sender\"\n        );\n        require(\n            swaps[swapId].refunded == false,\n            \"refundable: already refunded\"\n        );\n        require(\n            swaps[swapId].withdrawn == false,\n            \"refundable: already withdrawn\"\n        );\n        require(\n            swaps[swapId].endtime <= block.timestamp,\n            \"refundable: endtime not yet passed\"\n        );\n        _;\n    }\n\n    modifier isSwapExists(bytes32 swapId) {\n        require(\n            haveSwap(swapId),\n            \"swap does not exist\"\n        );\n        _;\n    }\n\n    function fund(\n        address fromToken,\n        string memory toToken,\n        string memory recipient,\n        uint256 amount,\n        uint256 nonce,\n        uint256 endtime\n    )\n        external\n        futureEndtime(endtime)\n        returns (bytes32 res)\n    {\n        bytes32 swapId = sha256(\n            abi.encodePacked(\n                fromToken,\n                sha256(abi.encodePacked(toToken)),\n                _msgSender(),\n                sha256(abi.encodePacked(recipient)),\n                sha256(abi.encodePacked(Strings.toString(amount))),\n                sha256(abi.encodePacked(Strings.toString(nonce)))\n            )\n        );\n\n        if (haveSwap(swapId)) revert(\"this swap already exists\");\n\n        if (!IERC20(fromToken).transferFrom(_msgSender(), address(this), amount))\n            revert(\"transferFrom sender to this failed\");\n\n        swaps[swapId] = Swap(fromToken, toToken, _msgSender(), recipient, amount, nonce, endtime, false, false, \"\");\n\n        emit FundEvent(swapId, fromToken, toToken, _msgSender(), recipient, amount, nonce);\n\n        return swapId;\n    }\n\n    function fundCancel(bytes32 swapId)\n        external\n        isSwapExists(swapId)\n        refundable(swapId)\n        returns (bool)\n    {\n        Swap storage swap = swaps[swapId];\n\n        swap.refunded = true;\n        IERC20(swap.fromToken).transfer(\n            swap.sender,\n            swap.amount\n        );\n        emit FundCancelEvent(swapId);\n\n        return true;\n    }\n\n    function sign(bytes32 swapId, bytes memory signature)\n        external\n        isSwapExists(swapId)\n        withdrawable(swapId)\n    {\n        (bytes32 r, bytes32 s, uint8 v) = parseSignature(signature);\n\n        address signer = ecrecover(getUnsignedMsg(swapId), v, r, s);\n        if (signer != oracle) {\n            revert SignatureInvalidV();\n        }\n        swaps[swapId].signature = signature;\n        swaps[swapId].withdrawn = true;\n        emit SwapSigned(swapId, signature);\n    }\n\n    function haveSwap(bytes32 swapId) internal view returns (bool exists) {\n        exists = (swaps[swapId].sender != address(0));\n    }\n\n    function getSwap(bytes32 swapId)\n        public\n        view\n        returns (\n            bytes32 id,\n            address fromToken,\n            string memory toToken,\n            address sender,\n            string memory recipient,\n            uint256 amount,\n            uint256 nonce,\n            uint256 endtime,\n            bool withdrawn,\n            bool refunded,\n            bytes memory signature\n        )\n    {\n        if (haveSwap(swapId) == false)\n            return (0, address(0), \"\", address(0), \"\", 0, 0, 0, false, false, \"\");\n\n        Swap storage swap = swaps[swapId];\n\n        return (\n            swapId,\n            swap.fromToken,\n            swap.toToken,\n            swap.sender,\n            swap.recipient,\n            swap.amount,\n            swap.nonce,\n            swap.endtime,\n            swap.withdrawn,\n            swap.refunded,\n            swap.signature\n        );\n    }\n\n    function parseSignature(bytes memory _signature)\n        internal\n        pure\n        returns (\n            bytes32 r,\n            bytes32 s,\n            uint8 v\n        )\n    {\n        assembly {\n            r := mload(add(_signature, 32))\n            s := mload(add(_signature, 64))\n            v := and(mload(add(_signature, 65)), 0xff)\n        }\n\n        if (v < 27) v += 27;\n        if (v != 27 && v != 28) revert SignatureInvalidV();\n    }\n\n    function getUnsignedMsg(bytes32 data) internal pure returns (bytes32) {\n        return keccak256(abi.encodePacked(\"\\x19Ethereum Signed Message:\\n32\", data));\n    }\n\n    // oracle features\n    function setOracle(address _oracle) external onlyOwner {\n        oracle = _oracle;\n        emit NewOracleEvent(oracle);\n    }\n\n    function getOracle() public view returns(address oracleAddress) {\n        return oracle;\n    }\n}\n",
  "sourcePath": "/Users/pomeschenkoanton/projects/nuclearswap/truffle/contracts/Gate.sol",
  "compiler": {
    "name": "solc",
    "version": "0.8.14+commit.80d49f37.Emscripten.clang"
  },
  "schemaVersion": "3.4.7",
  "updatedAt": "2022-11-17T18:36:41.556Z",
  "networkType": "ethereum",
  "devdoc": {
    "kind": "dev",
    "methods": {
      "owner()": {
        "details": "Returns the address of the current owner."
      },
      "renounceOwnership()": {
        "details": "Leaves the contract without owner. It will not be possible to call `onlyOwner` functions anymore. Can only be called by the current owner. NOTE: Renouncing ownership will leave the contract without an owner, thereby removing any functionality that is only available to the owner."
      },
      "transferOwnership(address)": {
        "details": "Transfers ownership of the contract to a new account (`newOwner`). Can only be called by the current owner."
      }
    },
    "version": 1
  },
  "userdoc": {
    "kind": "user",
    "methods": {},
    "version": 1
  }
}