{
  "contractName": "Gate",
  "abi": [
    {
      "inputs": [
        {
          "internalType": "address",
          "name": "_oracle",
          "type": "address"
        }
      ],
      "stateMutability": "nonpayable",
      "type": "constructor"
    },
    {
      "inputs": [],
      "name": "SignatureInvalidV",
      "type": "error"
    },
    {
      "anonymous": false,
      "inputs": [
        {
          "indexed": true,
          "internalType": "bytes32",
          "name": "swapId",
          "type": "bytes32"
        }
      ],
      "name": "FundCancelEvent",
      "type": "event"
    },
    {
      "anonymous": false,
      "inputs": [
        {
          "indexed": true,
          "internalType": "bytes32",
          "name": "swapId",
          "type": "bytes32"
        },
        {
          "indexed": false,
          "internalType": "address",
          "name": "fromToken",
          "type": "address"
        },
        {
          "indexed": false,
          "internalType": "string",
          "name": "toToken",
          "type": "string"
        },
        {
          "indexed": true,
          "internalType": "address",
          "name": "sender",
          "type": "address"
        },
        {
          "indexed": true,
          "internalType": "string",
          "name": "recipient",
          "type": "string"
        },
        {
          "indexed": false,
          "internalType": "uint256",
          "name": "amount",
          "type": "uint256"
        },
        {
          "indexed": false,
          "internalType": "uint256",
          "name": "nonce",
          "type": "uint256"
        }
      ],
      "name": "FundEvent",
      "type": "event"
    },
    {
      "anonymous": false,
      "inputs": [
        {
          "indexed": false,
          "internalType": "address",
          "name": "fromToken",
          "type": "address"
        },
        {
          "indexed": false,
          "internalType": "string",
          "name": "toToken",
          "type": "string"
        }
      ],
      "name": "NewBridge",
      "type": "event"
    },
    {
      "anonymous": false,
      "inputs": [
        {
          "indexed": false,
          "internalType": "uint256",
          "name": "fee",
          "type": "uint256"
        }
      ],
      "name": "NewFee",
      "type": "event"
    },
    {
      "anonymous": false,
      "inputs": [
        {
          "indexed": true,
          "internalType": "address",
          "name": "oracle",
          "type": "address"
        }
      ],
      "name": "NewOracleEvent",
      "type": "event"
    },
    {
      "anonymous": false,
      "inputs": [
        {
          "indexed": true,
          "internalType": "address",
          "name": "previousOwner",
          "type": "address"
        },
        {
          "indexed": true,
          "internalType": "address",
          "name": "newOwner",
          "type": "address"
        }
      ],
      "name": "OwnershipTransferred",
      "type": "event"
    },
    {
      "anonymous": false,
      "inputs": [
        {
          "indexed": false,
          "internalType": "address",
          "name": "fromToken",
          "type": "address"
        },
        {
          "indexed": false,
          "internalType": "string",
          "name": "toToken",
          "type": "string"
        }
      ],
      "name": "RemoveBridge",
      "type": "event"
    },
    {
      "anonymous": false,
      "inputs": [
        {
          "indexed": true,
          "internalType": "bytes32",
          "name": "swapId",
          "type": "bytes32"
        }
      ],
      "name": "SwapClaimed",
      "type": "event"
    },
    {
      "anonymous": false,
      "inputs": [
        {
          "indexed": true,
          "internalType": "bytes32",
          "name": "swapId",
          "type": "bytes32"
        },
        {
          "indexed": false,
          "internalType": "bytes",
          "name": "signature",
          "type": "bytes"
        }
      ],
      "name": "SwapSigned",
      "type": "event"
    },
    {
      "inputs": [],
      "name": "owner",
      "outputs": [
        {
          "internalType": "address",
          "name": "",
          "type": "address"
        }
      ],
      "stateMutability": "view",
      "type": "function",
      "constant": true
    },
    {
      "inputs": [],
      "name": "renounceOwnership",
      "outputs": [],
      "stateMutability": "nonpayable",
      "type": "function"
    },
    {
      "inputs": [
        {
          "internalType": "address",
          "name": "newOwner",
          "type": "address"
        }
      ],
      "name": "transferOwnership",
      "outputs": [],
      "stateMutability": "nonpayable",
      "type": "function"
    },
    {
      "inputs": [
        {
          "internalType": "address",
          "name": "fromToken",
          "type": "address"
        },
        {
          "internalType": "string",
          "name": "toToken",
          "type": "string"
        },
        {
          "internalType": "string",
          "name": "recipient",
          "type": "string"
        },
        {
          "internalType": "uint256",
          "name": "amount",
          "type": "uint256"
        },
        {
          "internalType": "uint256",
          "name": "nonce",
          "type": "uint256"
        },
        {
          "internalType": "uint256",
          "name": "endtime",
          "type": "uint256"
        }
      ],
      "name": "fund",
      "outputs": [
        {
          "internalType": "bytes32",
          "name": "res",
          "type": "bytes32"
        }
      ],
      "stateMutability": "payable",
      "type": "function",
      "payable": true
    },
    {
      "inputs": [
        {
          "internalType": "bytes32",
          "name": "swapId",
          "type": "bytes32"
        }
      ],
      "name": "fundCancel",
      "outputs": [
        {
          "internalType": "bool",
          "name": "",
          "type": "bool"
        }
      ],
      "stateMutability": "nonpayable",
      "type": "function"
    },
    {
      "inputs": [
        {
          "internalType": "bytes32",
          "name": "swapId",
          "type": "bytes32"
        },
        {
          "internalType": "bytes",
          "name": "signature",
          "type": "bytes"
        }
      ],
      "name": "sign",
      "outputs": [],
      "stateMutability": "nonpayable",
      "type": "function"
    },
    {
      "inputs": [
        {
          "internalType": "bytes32",
          "name": "swapId",
          "type": "bytes32"
        }
      ],
      "name": "getSwap",
      "outputs": [
        {
          "internalType": "bytes32",
          "name": "id",
          "type": "bytes32"
        },
        {
          "internalType": "address",
          "name": "fromToken",
          "type": "address"
        },
        {
          "internalType": "string",
          "name": "toToken",
          "type": "string"
        },
        {
          "internalType": "address",
          "name": "sender",
          "type": "address"
        },
        {
          "internalType": "string",
          "name": "recipient",
          "type": "string"
        },
        {
          "internalType": "uint256",
          "name": "amount",
          "type": "uint256"
        },
        {
          "internalType": "uint256",
          "name": "nonce",
          "type": "uint256"
        },
        {
          "internalType": "uint256",
          "name": "endtime",
          "type": "uint256"
        },
        {
          "internalType": "bool",
          "name": "withdrawn",
          "type": "bool"
        },
        {
          "internalType": "bool",
          "name": "refunded",
          "type": "bool"
        },
        {
          "internalType": "bytes",
          "name": "signature",
          "type": "bytes"
        }
      ],
      "stateMutability": "view",
      "type": "function",
      "constant": true
    },
    {
      "inputs": [
        {
          "internalType": "address",
          "name": "_oracle",
          "type": "address"
        }
      ],
      "name": "setOracle",
      "outputs": [],
      "stateMutability": "nonpayable",
      "type": "function"
    },
    {
      "inputs": [],
      "name": "getOracle",
      "outputs": [
        {
          "internalType": "address",
          "name": "oracleAddress",
          "type": "address"
        }
      ],
      "stateMutability": "view",
      "type": "function",
      "constant": true
    },
    {
      "inputs": [
        {
          "internalType": "uint256",
          "name": "_fee",
          "type": "uint256"
        }
      ],
      "name": "setFee",
      "outputs": [],
      "stateMutability": "nonpayable",
      "type": "function"
    },
    {
      "inputs": [],
      "name": "getFee",
      "outputs": [
        {
          "internalType": "uint256",
          "name": "feeAmount",
          "type": "uint256"
        }
      ],
      "stateMutability": "view",
      "type": "function",
      "constant": true
    },
    {
      "inputs": [
        {
          "internalType": "address",
          "name": "fromToken",
          "type": "address"
        },
        {
          "internalType": "string",
          "name": "toToken",
          "type": "string"
        }
      ],
      "name": "getBridgeId",
      "outputs": [
        {
          "internalType": "bytes32",
          "name": "",
          "type": "bytes32"
        }
      ],
      "stateMutability": "pure",
      "type": "function",
      "constant": true
    },
    {
      "inputs": [
        {
          "internalType": "bytes32",
          "name": "bridgeId",
          "type": "bytes32"
        }
      ],
      "name": "haveBridge",
      "outputs": [
        {
          "internalType": "bool",
          "name": "exists",
          "type": "bool"
        }
      ],
      "stateMutability": "view",
      "type": "function",
      "constant": true
    },
    {
      "inputs": [
        {
          "internalType": "address",
          "name": "fromToken",
          "type": "address"
        },
        {
          "internalType": "string",
          "name": "toToken",
          "type": "string"
        }
      ],
      "name": "addBridge",
      "outputs": [],
      "stateMutability": "nonpayable",
      "type": "function"
    },
    {
      "inputs": [
        {
          "internalType": "address",
          "name": "fromToken",
          "type": "address"
        },
        {
          "internalType": "string",
          "name": "toToken",
          "type": "string"
        }
      ],
      "name": "removeBridge",
      "outputs": [],
      "stateMutability": "nonpayable",
      "type": "function"
    },
    {
      "inputs": [
        {
          "internalType": "bytes32",
          "name": "swapId",
          "type": "bytes32"
        },
        {
          "internalType": "string",
          "name": "fromToken",
          "type": "string"
        },
        {
          "internalType": "address",
          "name": "toToken",
          "type": "address"
        },
        {
          "internalType": "string",
          "name": "sender",
          "type": "string"
        },
        {
          "internalType": "address",
          "name": "recipient",
          "type": "address"
        },
        {
          "internalType": "uint256",
          "name": "amount",
          "type": "uint256"
        },
        {
          "internalType": "uint256",
          "name": "nonce",
          "type": "uint256"
        },
        {
          "internalType": "bytes",
          "name": "signature",
          "type": "bytes"
        }
      ],
      "name": "claim",
      "outputs": [],
      "stateMutability": "nonpayable",
      "type": "function"
    }
  ],
  "bytecode": "0x60806040526601c6bf526340006005553480156200001c57600080fd5b5060405162003c5238038062003c528339818101604052810190620000429190620001e0565b6200006262000056620000aa60201b60201c565b620000b260201b60201c565b80600160006101000a81548173ffffffffffffffffffffffffffffffffffffffff021916908373ffffffffffffffffffffffffffffffffffffffff1602179055505062000212565b600033905090565b60008060009054906101000a900473ffffffffffffffffffffffffffffffffffffffff169050816000806101000a81548173ffffffffffffffffffffffffffffffffffffffff021916908373ffffffffffffffffffffffffffffffffffffffff1602179055508173ffffffffffffffffffffffffffffffffffffffff168173ffffffffffffffffffffffffffffffffffffffff167f8be0079c531659141344cd1fd0a4f28419497f9722a3daafe3b4186f6b6457e060405160405180910390a35050565b600080fd5b600073ffffffffffffffffffffffffffffffffffffffff82169050919050565b6000620001a8826200017b565b9050919050565b620001ba816200019b565b8114620001c657600080fd5b50565b600081519050620001da81620001af565b92915050565b600060208284031215620001f957620001f862000176565b5b60006200020984828501620001c9565b91505092915050565b613a3080620002226000396000f3fe6080604052600436106100f35760003560e01c8063715018a61161008a57806390ede8fa1161005957806390ede8fa146103375780639d7da54814610360578063ced72f8714610389578063f2fde38b146103b4576100f3565b8063715018a6146102a15780637adbf973146102b8578063833b1fce146102e15780638da5cb5b1461030c576100f3565b80633da0e66e116100c65780633da0e66e146101c45780633dc322831461020b5780636948966f1461023b57806369fe0e2d14610278576100f3565b806302e3120d146100f85780632b69f013146101215780633265d0bd1461015e578063365e250b1461019b575b600080fd5b34801561010457600080fd5b5061011f600480360381019061011a9190612483565b6103dd565b005b34801561012d57600080fd5b5061014860048036038101906101439190612483565b61051f565b60405161015591906124f8565b60405180910390f35b34801561016a57600080fd5b506101856004803603810190610180919061253f565b610552565b6040516101929190612587565b60405180910390f35b3480156101a757600080fd5b506101c260048036038101906101bd9190612643565b6108ae565b005b3480156101d057600080fd5b506101eb60048036038101906101e6919061253f565b610b5e565b6040516102029b9a999897969594939291906127a4565b60405180910390f35b61022560048036038101906102209190612890565b610e59565b60405161023291906124f8565b60405180910390f35b34801561024757600080fd5b50610262600480360381019061025d919061253f565b61153f565b60405161026f9190612587565b60405180910390f35b34801561028457600080fd5b5061029f600480360381019061029a9190612955565b6115ae565b005b3480156102ad57600080fd5b506102b66115f9565b005b3480156102c457600080fd5b506102df60048036038101906102da9190612982565b61160d565b005b3480156102ed57600080fd5b506102f66116be565b60405161030391906129af565b60405180910390f35b34801561031857600080fd5b506103216116e8565b60405161032e91906129af565b60405180910390f35b34801561034357600080fd5b5061035e60048036038101906103599190612483565b611711565b005b34801561036c57600080fd5b50610387600480360381019061038291906129ca565b611801565b005b34801561039557600080fd5b5061039e611cfd565b6040516103ab9190612ad4565b60405180910390f35b3480156103c057600080fd5b506103db60048036038101906103d69190612982565b611d07565b005b6103e5611d8a565b60006103f1838361051f565b90506103fc8161153f565b1561043c576040517f08c379a000000000000000000000000000000000000000000000000000000000815260040161043390612b3b565b60405180910390fd5b60405180604001604052808473ffffffffffffffffffffffffffffffffffffffff168152602001838152506003600083815260200190815260200160002060008201518160000160006101000a81548173ffffffffffffffffffffffffffffffffffffffff021916908373ffffffffffffffffffffffffffffffffffffffff16021790555060208201518160010190805190602001906104dd929190612162565b509050507f1af0ca75b5bcb5145630f83522dda2755a9ea333671a789e871b4a23e57a76da8383604051610512929190612b5b565b60405180910390a1505050565b60008282604051602001610534929190612c0f565b60405160208183030381529060405280519060200120905092915050565b60008161055e81611e08565b61059d576040517f08c379a000000000000000000000000000000000000000000000000000000000815260040161059490612c83565b60405180910390fd5b826105a6611e77565b73ffffffffffffffffffffffffffffffffffffffff166002600083815260200190815260200160002060020160009054906101000a900473ffffffffffffffffffffffffffffffffffffffff1673ffffffffffffffffffffffffffffffffffffffff1614610649576040517f08c379a000000000000000000000000000000000000000000000000000000000815260040161064090612cef565b60405180910390fd5b600015156002600083815260200190815260200160002060070160019054906101000a900460ff161515146106b3576040517f08c379a00000000000000000000000000000000000000000000000000000000081526004016106aa90612d5b565b60405180910390fd5b600015156002600083815260200190815260200160002060070160009054906101000a900460ff1615151461071d576040517f08c379a000000000000000000000000000000000000000000000000000000000815260040161071490612dc7565b60405180910390fd5b4260026000838152602001908152602001600020600601541115610776576040517f08c379a000000000000000000000000000000000000000000000000000000000815260040161076d90612e59565b60405180910390fd5b600060026000868152602001908152602001600020905060018160070160016101000a81548160ff0219169083151502179055508060000160009054906101000a900473ffffffffffffffffffffffffffffffffffffffff1673ffffffffffffffffffffffffffffffffffffffff1663a9059cbb8260020160009054906101000a900473ffffffffffffffffffffffffffffffffffffffff1683600401546040518363ffffffff1660e01b8152600401610831929190612e79565b6020604051808303816000875af1158015610850573d6000803e3d6000fd5b505050506040513d601f19601f820116820180604052508101906108749190612ece565b50847f6c0e214651db8d44150ff205e8e05c4ca8dc0bd059e8e78d18f683d0c6205d1d60405160405180910390a260019350505050919050565b816108b881611e08565b6108f7576040517f08c379a00000000000000000000000000000000000000000000000000000000081526004016108ee90612c83565b60405180910390fd5b82600015156002600083815260200190815260200160002060070160009054906101000a900460ff16151514610962576040517f08c379a000000000000000000000000000000000000000000000000000000000815260040161095990612f47565b60405180910390fd5b600015156002600083815260200190815260200160002060070160019054906101000a900460ff161515146109cc576040517f08c379a00000000000000000000000000000000000000000000000000000000081526004016109c390612fb3565b60405180910390fd5b60008060006109da86611e7f565b925092509250600060016109ed89611f0e565b83868660405160008152602001604052604051610a0d9493929190612fef565b6020604051602081039080840390855afa158015610a2f573d6000803e3d6000fd5b505050602060405103519050600160009054906101000a900473ffffffffffffffffffffffffffffffffffffffff1673ffffffffffffffffffffffffffffffffffffffff168173ffffffffffffffffffffffffffffffffffffffff1614610ac2576040517f18ce829400000000000000000000000000000000000000000000000000000000815260040160405180910390fd5b86600260008a81526020019081526020016000206008019080519060200190610aec9291906121e8565b506001600260008a815260200190815260200160002060070160006101000a81548160ff021916908315150217905550877fa305accbd0db7f95239b77e0d12d0bc97086c07877ef9590128956c1f9c5a8b588604051610b4c9190613034565b60405180910390a25050505050505050565b6000806060600060606000806000806000606060001515610b7e8d611e08565b151503610bed576000806000806000806000808760001b975060405180602001604052806000815250959493929190604051806020016040528060008152509493929190604051806020016040528060008152509a509a509a509a509a509a509a509a509a509a509a50610e4a565b6000600260008e815260200190815260200160002090508c8160000160009054906101000a900473ffffffffffffffffffffffffffffffffffffffff16826001018360020160009054906101000a900473ffffffffffffffffffffffffffffffffffffffff16846003018560040154866005015487600601548860070160009054906101000a900460ff168960070160019054906101000a900460ff168a600801888054610c9a90613085565b80601f0160208091040260200160405190810160405280929190818152602001828054610cc690613085565b8015610d135780601f10610ce857610100808354040283529160200191610d13565b820191906000526020600020905b815481529060010190602001808311610cf657829003601f168201915b50505050509850868054610d2690613085565b80601f0160208091040260200160405190810160405280929190818152602001828054610d5290613085565b8015610d9f5780601f10610d7457610100808354040283529160200191610d9f565b820191906000526020600020905b815481529060010190602001808311610d8257829003601f168201915b50505050509650808054610db290613085565b80601f0160208091040260200160405190810160405280929190818152602001828054610dde90613085565b8015610e2b5780601f10610e0057610100808354040283529160200191610e2b565b820191906000526020600020905b815481529060010190602001808311610e0e57829003601f168201915b505050505090509b509b509b509b509b509b509b509b509b509b509b50505b91939597999b90929496989a50565b600081428111610e9e576040517f08c379a0000000000000000000000000000000000000000000000000000000008152600401610e9590613128565b60405180910390fd5b600554341015610ead57600080fd5b6000600160009054906101000a900473ffffffffffffffffffffffffffffffffffffffff1690508073ffffffffffffffffffffffffffffffffffffffff166108fc349081150290604051600060405180830381858888f19350505050158015610f1a573d6000803e3d6000fd5b506000610f278a8a61051f565b905060001515610f368261153f565b151503610f78576040517f08c379a0000000000000000000000000000000000000000000000000000000008152600401610f6f90613194565b60405180910390fd5b600060028b60028c604051602001610f9091906131b4565b604051602081830303815290604052604051610fac9190613207565b602060405180830381855afa158015610fc9573d6000803e3d6000fd5b5050506040513d601f19601f82011682018060405250810190610fec9190613233565b610ff4611e77565b60028d60405160200161100791906131b4565b6040516020818303038152906040526040516110239190613207565b602060405180830381855afa158015611040573d6000803e3d6000fd5b5050506040513d601f19601f820116820180604052508101906110639190613233565b600261106e8e611f3e565b60405160200161107e91906131b4565b60405160208183030381529060405260405161109a9190613207565b602060405180830381855afa1580156110b7573d6000803e3d6000fd5b5050506040513d601f19601f820116820180604052508101906110da9190613233565b60026110e58e611f3e565b6040516020016110f591906131b4565b6040516020818303038152906040526040516111119190613207565b602060405180830381855afa15801561112e573d6000803e3d6000fd5b5050506040513d601f19601f820116820180604052508101906111519190613233565b60405160200161116696959493929190613281565b6040516020818303038152906040526040516111829190613207565b602060405180830381855afa15801561119f573d6000803e3d6000fd5b5050506040513d601f19601f820116820180604052508101906111c29190613233565b90506111cd81611e08565b1561120d576040517f08c379a00000000000000000000000000000000000000000000000000000000081526004016112049061333d565b60405180910390fd5b8a73ffffffffffffffffffffffffffffffffffffffff166323b872dd611231611e77565b308b6040518463ffffffff1660e01b81526004016112519392919061335d565b6020604051808303816000875af1158015611270573d6000803e3d6000fd5b505050506040513d601f19601f820116820180604052508101906112949190612ece565b6112d3576040517f08c379a00000000000000000000000000000000000000000000000000000000081526004016112ca90613406565b60405180910390fd5b6040518061014001604052808c73ffffffffffffffffffffffffffffffffffffffff1681526020018b8152602001611309611e77565b73ffffffffffffffffffffffffffffffffffffffff1681526020018a8152602001898152602001888152602001878152602001600015158152602001600015158152602001604051806020016040528060008152508152506002600083815260200190815260200160002060008201518160000160006101000a81548173ffffffffffffffffffffffffffffffffffffffff021916908373ffffffffffffffffffffffffffffffffffffffff16021790555060208201518160010190805190602001906113d7929190612162565b5060408201518160020160006101000a81548173ffffffffffffffffffffffffffffffffffffffff021916908373ffffffffffffffffffffffffffffffffffffffff160217905550606082015181600301908051906020019061143b929190612162565b506080820151816004015560a0820151816005015560c0820151816006015560e08201518160070160006101000a81548160ff0219169083151502179055506101008201518160070160016101000a81548160ff0219169083151502179055506101208201518160080190805190602001906114b89291906121e8565b50905050886040516114ca91906131b4565b60405180910390206114da611e77565b73ffffffffffffffffffffffffffffffffffffffff16827f8509d4a87aad586eb0290d532f65131b8872bf63168b88dad5f48171956a693e8e8e8d8d6040516115269493929190613426565b60405180910390a4809450505050509695505050505050565b60008073ffffffffffffffffffffffffffffffffffffffff166003600084815260200190815260200160002060000160009054906101000a900473ffffffffffffffffffffffffffffffffffffffff1673ffffffffffffffffffffffffffffffffffffffff1614159050919050565b6115b6611d8a565b806005819055507f63fe946ed58429ac3c5e64d4356ff92c26d7fa1e73586515df8ba9f059ab54a56005546040516115ee9190612ad4565b60405180910390a150565b611601611d8a565b61160b600061209e565b565b611615611d8a565b80600160006101000a81548173ffffffffffffffffffffffffffffffffffffffff021916908373ffffffffffffffffffffffffffffffffffffffff160217905550600160009054906101000a900473ffffffffffffffffffffffffffffffffffffffff1673ffffffffffffffffffffffffffffffffffffffff167f1938167943cd56e64085b4cc277d51cc1e0255c0d17871d3b34daf97355e8ea860405160405180910390a250565b6000600160009054906101000a900473ffffffffffffffffffffffffffffffffffffffff16905090565b60008060009054906101000a900473ffffffffffffffffffffffffffffffffffffffff16905090565b611719611d8a565b6000611725838361051f565b9050600015156117348261153f565b151503611776576040517f08c379a000000000000000000000000000000000000000000000000000000000815260040161176d906134be565b60405180910390fd5b60036000828152602001908152602001600020600080820160006101000a81549073ffffffffffffffffffffffffffffffffffffffff02191690556001820160006117c1919061226e565b50507fd0c88b2b7e8320eb04428ab66ea6c686a3854b550557daae14605d7eeb82c3ed83836040516117f4929190612b5b565b60405180910390a1505050565b6004600089815260200190815260200160002060009054906101000a900460ff1615611862576040517f08c379a00000000000000000000000000000000000000000000000000000000081526004016118599061352a565b60405180910390fd5b60006002808960405160200161187891906131b4565b6040516020818303038152906040526040516118949190613207565b602060405180830381855afa1580156118b1573d6000803e3d6000fd5b5050506040513d601f19601f820116820180604052508101906118d49190613233565b886002896040516020016118e891906131b4565b6040516020818303038152906040526040516119049190613207565b602060405180830381855afa158015611921573d6000803e3d6000fd5b5050506040513d601f19601f820116820180604052508101906119449190613233565b8860026119508a611f3e565b60405160200161196091906131b4565b60405160208183030381529060405260405161197c9190613207565b602060405180830381855afa158015611999573d6000803e3d6000fd5b5050506040513d601f19601f820116820180604052508101906119bc9190613233565b60026119c78a611f3e565b6040516020016119d791906131b4565b6040516020818303038152906040526040516119f39190613207565b602060405180830381855afa158015611a10573d6000803e3d6000fd5b5050506040513d601f19601f82011682018060405250810190611a339190613233565b604051602001611a489695949392919061354a565b604051602081830303815290604052604051611a649190613207565b602060405180830381855afa158015611a81573d6000803e3d6000fd5b5050506040513d601f19601f82011682018060405250810190611aa49190613233565b9050888114611ae8576040517f08c379a0000000000000000000000000000000000000000000000000000000008152600401611adf90613606565b60405180910390fd5b6000806000611af685611e7f565b925092509250600160009054906101000a900473ffffffffffffffffffffffffffffffffffffffff1673ffffffffffffffffffffffffffffffffffffffff166001611b408e611f0e565b83868660405160008152602001604052604051611b609493929190612fef565b6020604051602081039080840390855afa158015611b82573d6000803e3d6000fd5b5050506020604051035173ffffffffffffffffffffffffffffffffffffffff1614611bd9576040517f18ce829400000000000000000000000000000000000000000000000000000000815260040160405180910390fd5b8973ffffffffffffffffffffffffffffffffffffffff1663a9059cbb89896040518363ffffffff1660e01b8152600401611c14929190612e79565b6020604051808303816000875af1158015611c33573d6000803e3d6000fd5b505050506040513d601f19601f82011682018060405250810190611c579190612ece565b611c96576040517f08c379a0000000000000000000000000000000000000000000000000000000008152600401611c8d90613672565b60405180910390fd5b6001600460008e815260200190815260200160002060006101000a81548160ff0219169083151502179055508b7fec3ecfa3b843753557aee45b07de8193a1a8f21aa826f5e8bb56fe1f9f5bab1d60405160405180910390a2505050505050505050505050565b6000600554905090565b611d0f611d8a565b600073ffffffffffffffffffffffffffffffffffffffff168173ffffffffffffffffffffffffffffffffffffffff1603611d7e576040517f08c379a0000000000000000000000000000000000000000000000000000000008152600401611d7590613704565b60405180910390fd5b611d878161209e565b50565b611d92611e77565b73ffffffffffffffffffffffffffffffffffffffff16611db06116e8565b73ffffffffffffffffffffffffffffffffffffffff1614611e06576040517f08c379a0000000000000000000000000000000000000000000000000000000008152600401611dfd90613770565b60405180910390fd5b565b60008073ffffffffffffffffffffffffffffffffffffffff166002600084815260200190815260200160002060020160009054906101000a900473ffffffffffffffffffffffffffffffffffffffff1673ffffffffffffffffffffffffffffffffffffffff1614159050919050565b600033905090565b6000806000602084015192506040840151915060ff6041850151169050601b8160ff161015611eb857601b81611eb591906137bf565b90505b601b8160ff1614158015611ed05750601c8160ff1614155b15611f07576040517f18ce829400000000000000000000000000000000000000000000000000000000815260040160405180910390fd5b9193909250565b600081604051602001611f219190613842565b604051602081830303815290604052805190602001209050919050565b606060008203611f85576040518060400160405280600181526020017f30000000000000000000000000000000000000000000000000000000000000008152509050612099565b600082905060005b60008214611fb7578080611fa090613868565b915050600a82611fb091906138df565b9150611f8d565b60008167ffffffffffffffff811115611fd357611fd2612358565b5b6040519080825280601f01601f1916602001820160405280156120055781602001600182028036833780820191505090505b5090505b600085146120925760018261201e9190613910565b9150600a8561202d9190613944565b60306120399190613975565b60f81b81838151811061204f5761204e6139cb565b5b60200101907effffffffffffffffffffffffffffffffffffffffffffffffffffffffffffff1916908160001a905350600a8561208b91906138df565b9450612009565b8093505050505b919050565b60008060009054906101000a900473ffffffffffffffffffffffffffffffffffffffff169050816000806101000a81548173ffffffffffffffffffffffffffffffffffffffff021916908373ffffffffffffffffffffffffffffffffffffffff1602179055508173ffffffffffffffffffffffffffffffffffffffff168173ffffffffffffffffffffffffffffffffffffffff167f8be0079c531659141344cd1fd0a4f28419497f9722a3daafe3b4186f6b6457e060405160405180910390a35050565b82805461216e90613085565b90600052602060002090601f01602090048101928261219057600085556121d7565b82601f106121a957805160ff19168380011785556121d7565b828001600101855582156121d7579182015b828111156121d65782518255916020019190600101906121bb565b5b5090506121e491906122ae565b5090565b8280546121f490613085565b90600052602060002090601f016020900481019282612216576000855561225d565b82601f1061222f57805160ff191683800117855561225d565b8280016001018555821561225d579182015b8281111561225c578251825591602001919060010190612241565b5b50905061226a91906122ae565b5090565b50805461227a90613085565b6000825580601f1061228c57506122ab565b601f0160209004906000526020600020908101906122aa91906122ae565b5b50565b5b808211156122c75760008160009055506001016122af565b5090565b6000604051905090565b600080fd5b600080fd5b600073ffffffffffffffffffffffffffffffffffffffff82169050919050565b600061230a826122df565b9050919050565b61231a816122ff565b811461232557600080fd5b50565b60008135905061233781612311565b92915050565b600080fd5b600080fd5b6000601f19601f8301169050919050565b7f4e487b7100000000000000000000000000000000000000000000000000000000600052604160045260246000fd5b61239082612347565b810181811067ffffffffffffffff821117156123af576123ae612358565b5b80604052505050565b60006123c26122cb565b90506123ce8282612387565b919050565b600067ffffffffffffffff8211156123ee576123ed612358565b5b6123f782612347565b9050602081019050919050565b82818337600083830152505050565b6000612426612421846123d3565b6123b8565b90508281526020810184848401111561244257612441612342565b5b61244d848285612404565b509392505050565b600082601f83011261246a5761246961233d565b5b813561247a848260208601612413565b91505092915050565b6000806040838503121561249a576124996122d5565b5b60006124a885828601612328565b925050602083013567ffffffffffffffff8111156124c9576124c86122da565b5b6124d585828601612455565b9150509250929050565b6000819050919050565b6124f2816124df565b82525050565b600060208201905061250d60008301846124e9565b92915050565b61251c816124df565b811461252757600080fd5b50565b60008135905061253981612513565b92915050565b600060208284031215612555576125546122d5565b5b60006125638482850161252a565b91505092915050565b60008115159050919050565b6125818161256c565b82525050565b600060208201905061259c6000830184612578565b92915050565b600067ffffffffffffffff8211156125bd576125bc612358565b5b6125c682612347565b9050602081019050919050565b60006125e66125e1846125a2565b6123b8565b90508281526020810184848401111561260257612601612342565b5b61260d848285612404565b509392505050565b600082601f83011261262a5761262961233d565b5b813561263a8482602086016125d3565b91505092915050565b6000806040838503121561265a576126596122d5565b5b60006126688582860161252a565b925050602083013567ffffffffffffffff811115612689576126886122da565b5b61269585828601612615565b9150509250929050565b6126a8816122ff565b82525050565b600081519050919050565b600082825260208201905092915050565b60005b838110156126e85780820151818401526020810190506126cd565b838111156126f7576000848401525b50505050565b6000612708826126ae565b61271281856126b9565b93506127228185602086016126ca565b61272b81612347565b840191505092915050565b6000819050919050565b61274981612736565b82525050565b600081519050919050565b600082825260208201905092915050565b60006127768261274f565b612780818561275a565b93506127908185602086016126ca565b61279981612347565b840191505092915050565b6000610160820190506127ba600083018e6124e9565b6127c7602083018d61269f565b81810360408301526127d9818c6126fd565b90506127e8606083018b61269f565b81810360808301526127fa818a6126fd565b905061280960a0830189612740565b61281660c0830188612740565b61282360e0830187612740565b612831610100830186612578565b61283f610120830185612578565b818103610140830152612852818461276b565b90509c9b505050505050505050505050565b61286d81612736565b811461287857600080fd5b50565b60008135905061288a81612864565b92915050565b60008060008060008060c087890312156128ad576128ac6122d5565b5b60006128bb89828a01612328565b965050602087013567ffffffffffffffff8111156128dc576128db6122da565b5b6128e889828a01612455565b955050604087013567ffffffffffffffff811115612909576129086122da565b5b61291589828a01612455565b945050606061292689828a0161287b565b935050608061293789828a0161287b565b92505060a061294889828a0161287b565b9150509295509295509295565b60006020828403121561296b5761296a6122d5565b5b60006129798482850161287b565b91505092915050565b600060208284031215612998576129976122d5565b5b60006129a684828501612328565b91505092915050565b60006020820190506129c4600083018461269f565b92915050565b600080600080600080600080610100898b0312156129eb576129ea6122d5565b5b60006129f98b828c0161252a565b985050602089013567ffffffffffffffff811115612a1a57612a196122da565b5b612a268b828c01612455565b9750506040612a378b828c01612328565b965050606089013567ffffffffffffffff811115612a5857612a576122da565b5b612a648b828c01612455565b9550506080612a758b828c01612328565b94505060a0612a868b828c0161287b565b93505060c0612a978b828c0161287b565b92505060e089013567ffffffffffffffff811115612ab857612ab76122da565b5b612ac48b828c01612615565b9150509295985092959890939650565b6000602082019050612ae96000830184612740565b92915050565b7f746869732062726964676520616c726561647920657869737473000000000000600082015250565b6000612b25601a836126b9565b9150612b3082612aef565b602082019050919050565b60006020820190508181036000830152612b5481612b18565b9050919050565b6000604082019050612b70600083018561269f565b8181036020830152612b8281846126fd565b90509392505050565b60008160601b9050919050565b6000612ba382612b8b565b9050919050565b6000612bb582612b98565b9050919050565b612bcd612bc8826122ff565b612baa565b82525050565b600081905092915050565b6000612be9826126ae565b612bf38185612bd3565b9350612c038185602086016126ca565b80840191505092915050565b6000612c1b8285612bbc565b601482019150612c2b8284612bde565b91508190509392505050565b7f7377617020646f6573206e6f7420657869737400000000000000000000000000600082015250565b6000612c6d6013836126b9565b9150612c7882612c37565b602082019050919050565b60006020820190508181036000830152612c9c81612c60565b9050919050565b7f726566756e6461626c653a206e6f742073656e64657200000000000000000000600082015250565b6000612cd96016836126b9565b9150612ce482612ca3565b602082019050919050565b60006020820190508181036000830152612d0881612ccc565b9050919050565b7f726566756e6461626c653a20616c726561647920726566756e64656400000000600082015250565b6000612d45601c836126b9565b9150612d5082612d0f565b602082019050919050565b60006020820190508181036000830152612d7481612d38565b9050919050565b7f726566756e6461626c653a20616c72656164792077697468647261776e000000600082015250565b6000612db1601d836126b9565b9150612dbc82612d7b565b602082019050919050565b60006020820190508181036000830152612de081612da4565b9050919050565b7f726566756e6461626c653a20656e6474696d65206e6f7420796574207061737360008201527f6564000000000000000000000000000000000000000000000000000000000000602082015250565b6000612e436022836126b9565b9150612e4e82612de7565b604082019050919050565b60006020820190508181036000830152612e7281612e36565b9050919050565b6000604082019050612e8e600083018561269f565b612e9b6020830184612740565b9392505050565b612eab8161256c565b8114612eb657600080fd5b50565b600081519050612ec881612ea2565b92915050565b600060208284031215612ee457612ee36122d5565b5b6000612ef284828501612eb9565b91505092915050565b7f776974686472617761626c653a20616c72656164792077697468647261776e00600082015250565b6000612f31601f836126b9565b9150612f3c82612efb565b602082019050919050565b60006020820190508181036000830152612f6081612f24565b9050919050565b7f776974686472617761626c653a20616c726561647920726566756e6465640000600082015250565b6000612f9d601e836126b9565b9150612fa882612f67565b602082019050919050565b60006020820190508181036000830152612fcc81612f90565b9050919050565b600060ff82169050919050565b612fe981612fd3565b82525050565b600060808201905061300460008301876124e9565b6130116020830186612fe0565b61301e60408301856124e9565b61302b60608301846124e9565b95945050505050565b6000602082019050818103600083015261304e818461276b565b905092915050565b7f4e487b7100000000000000000000000000000000000000000000000000000000600052602260045260246000fd5b6000600282049050600182168061309d57607f821691505b6020821081036130b0576130af613056565b5b50919050565b7f656e6474696d652074696d65206d75737420626520696e20746865206675747560008201527f7265000000000000000000000000000000000000000000000000000000000000602082015250565b60006131126022836126b9565b915061311d826130b6565b604082019050919050565b6000602082019050818103600083015261314181613105565b9050919050565b7f746869732062726964676520646f6573206e6f74206578697374730000000000600082015250565b600061317e601b836126b9565b915061318982613148565b602082019050919050565b600060208201905081810360008301526131ad81613171565b9050919050565b60006131c08284612bde565b915081905092915050565b600081905092915050565b60006131e18261274f565b6131eb81856131cb565b93506131fb8185602086016126ca565b80840191505092915050565b600061321382846131d6565b915081905092915050565b60008151905061322d81612513565b92915050565b600060208284031215613249576132486122d5565b5b60006132578482850161321e565b91505092915050565b6000819050919050565b61327b613276826124df565b613260565b82525050565b600061328d8289612bbc565b60148201915061329d828861326a565b6020820191506132ad8287612bbc565b6014820191506132bd828661326a565b6020820191506132cd828561326a565b6020820191506132dd828461326a565b602082019150819050979650505050505050565b7f74686973207377617020616c7265616479206578697374730000000000000000600082015250565b60006133276018836126b9565b9150613332826132f1565b602082019050919050565b600060208201905081810360008301526133568161331a565b9050919050565b6000606082019050613372600083018661269f565b61337f602083018561269f565b61338c6040830184612740565b949350505050565b7f7472616e7366657246726f6d2073656e64657220746f2074686973206661696c60008201527f6564000000000000000000000000000000000000000000000000000000000000602082015250565b60006133f06022836126b9565b91506133fb82613394565b604082019050919050565b6000602082019050818103600083015261341f816133e3565b9050919050565b600060808201905061343b600083018761269f565b818103602083015261344d81866126fd565b905061345c6040830185612740565b6134696060830184612740565b95945050505050565b7f746869732062726964676520646f6573206e6f74206578697374000000000000600082015250565b60006134a8601a836126b9565b91506134b382613472565b602082019050919050565b600060208201905081810360008301526134d78161349b565b9050919050565b7f537761702073686f756c64206e6f742062652075736564000000000000000000600082015250565b60006135146017836126b9565b915061351f826134de565b602082019050919050565b6000602082019050818103600083015261354381613507565b9050919050565b6000613556828961326a565b6020820191506135668288612bbc565b601482019150613576828761326a565b6020820191506135868286612bbc565b601482019150613596828561326a565b6020820191506135a6828461326a565b602082019150819050979650505050505050565b7f537761705f6964206973206e6f742076616c6964000000000000000000000000600082015250565b60006135f06014836126b9565b91506135fb826135ba565b602082019050919050565b6000602082019050818103600083015261361f816135e3565b9050919050565b7f7472616e736665722073656e64657220746f2074686973206661696c65640000600082015250565b600061365c601e836126b9565b915061366782613626565b602082019050919050565b6000602082019050818103600083015261368b8161364f565b9050919050565b7f4f776e61626c653a206e6577206f776e657220697320746865207a65726f206160008201527f6464726573730000000000000000000000000000000000000000000000000000602082015250565b60006136ee6026836126b9565b91506136f982613692565b604082019050919050565b6000602082019050818103600083015261371d816136e1565b9050919050565b7f4f776e61626c653a2063616c6c6572206973206e6f7420746865206f776e6572600082015250565b600061375a6020836126b9565b915061376582613724565b602082019050919050565b600060208201905081810360008301526137898161374d565b9050919050565b7f4e487b7100000000000000000000000000000000000000000000000000000000600052601160045260246000fd5b60006137ca82612fd3565b91506137d583612fd3565b92508260ff038211156137eb576137ea613790565b5b828201905092915050565b7f19457468657265756d205369676e6564204d6573736167653a0a333200000000600082015250565b600061382c601c83612bd3565b9150613837826137f6565b601c82019050919050565b600061384d8261381f565b9150613859828461326a565b60208201915081905092915050565b600061387382612736565b91507fffffffffffffffffffffffffffffffffffffffffffffffffffffffffffffffff82036138a5576138a4613790565b5b600182019050919050565b7f4e487b7100000000000000000000000000000000000000000000000000000000600052601260045260246000fd5b60006138ea82612736565b91506138f583612736565b925082613905576139046138b0565b5b828204905092915050565b600061391b82612736565b915061392683612736565b92508282101561393957613938613790565b5b828203905092915050565b600061394f82612736565b915061395a83612736565b92508261396a576139696138b0565b5b828206905092915050565b600061398082612736565b915061398b83612736565b9250827fffffffffffffffffffffffffffffffffffffffffffffffffffffffffffffffff038211156139c0576139bf613790565b5b828201905092915050565b7f4e487b7100000000000000000000000000000000000000000000000000000000600052603260045260246000fdfea264697066735822122028e4204cbc17dc26ff37b85b84fd434dd9169a343b8bf13c5562f59910d5e28b64736f6c634300080e0033",
  "immutableReferences": {},
  "source": "// SPDX-License-Identifier: AGPL-3.0\n\npragma solidity ^0.8.10;\n\nimport \"@openzeppelin/contracts/token/ERC20/IERC20.sol\";\nimport \"@openzeppelin/contracts/access/Ownable.sol\";\nimport \"@openzeppelin/contracts/utils/Strings.sol\";\n\ncontract Gate is Ownable {\n    error SignatureInvalidV();\n\n    struct Bridge {\n        address fromToken;\n        string toToken;\n    }\n\n    struct Swap {\n        address fromToken;\n        string toToken;\n        address sender;\n        string recipient;\n        uint256 amount;\n        uint256 nonce;\n        uint256 endtime;\n        bool withdrawn;\n        bool refunded;\n        bytes signature;\n    }\n\n    event FundEvent(\n        bytes32 indexed swapId,\n        address fromToken,\n        string toToken,\n        address indexed sender,\n        string indexed recipient,\n        uint256 amount,\n        uint256 nonce\n    );\n\n    event FundCancelEvent(\n        bytes32 indexed swapId\n    );\n\n    event SwapSigned(\n        bytes32 indexed swapId,\n        bytes signature\n    );\n    event SwapClaimed(bytes32 indexed swapId);\n\n    event NewBridge(\n        address fromToken,\n        string toToken\n    );\n\n    event RemoveBridge(\n        address fromToken,\n        string toToken\n    );\n\n    event NewOracleEvent(address indexed oracle);\n    event NewFee(uint fee);\n\n    address oracle;\n\n    mapping(bytes32 => Swap) swaps;\n    mapping(bytes32 => Bridge) bridges;\n    mapping(bytes32 => bool) usedSwaps;\n\n    uint fee = 0.0005 ether;\n\n    constructor(address _oracle) {\n        oracle = _oracle;\n    }\n\n    modifier futureEndtime(uint256 endtime) {\n        require(\n            endtime > block.timestamp,\n            \"endtime time must be in the future\"\n        );\n        _;\n    }\n\n    modifier withdrawable(bytes32 swapId) {\n        require(\n            swaps[swapId].withdrawn == false,\n            \"withdrawable: already withdrawn\"\n        );\n        require(\n            swaps[swapId].refunded == false,\n            \"withdrawable: already refunded\"\n        );\n        _;\n    }\n\n    modifier refundable(bytes32 swapId) {\n        require(\n            swaps[swapId].sender == _msgSender(),\n            \"refundable: not sender\"\n        );\n        require(\n            swaps[swapId].refunded == false,\n            \"refundable: already refunded\"\n        );\n        require(\n            swaps[swapId].withdrawn == false,\n            \"refundable: already withdrawn\"\n        );\n        require(\n            swaps[swapId].endtime <= block.timestamp,\n            \"refundable: endtime not yet passed\"\n        );\n        _;\n    }\n\n    modifier isSwapExists(bytes32 swapId) {\n        require(\n            haveSwap(swapId),\n            \"swap does not exist\"\n        );\n        _;\n    }\n\n    function fund(\n        address fromToken,\n        string memory toToken,\n        string memory recipient,\n        uint256 amount,\n        uint256 nonce,\n        uint256 endtime\n    )\n        external\n        futureEndtime(endtime)\n        payable\n        returns (bytes32 res)\n    {\n        require(msg.value >= fee);\n\n        address payable feeAddress = payable(oracle);\n        feeAddress.transfer(msg.value);\n\n        bytes32 bridgeId = getBridgeId(fromToken, toToken);\n        if (haveBridge(bridgeId) == false) revert(\"this bridge does not exists\");\n\n        bytes32 swapId = sha256(\n            abi.encodePacked(\n                fromToken,\n                sha256(abi.encodePacked(toToken)),\n                _msgSender(),\n                sha256(abi.encodePacked(recipient)),\n                sha256(abi.encodePacked(Strings.toString(amount))),\n                sha256(abi.encodePacked(Strings.toString(nonce)))\n            )\n        );\n\n        if (haveSwap(swapId)) revert(\"this swap already exists\");\n\n        if (!IERC20(fromToken).transferFrom(_msgSender(), address(this), amount))\n            revert(\"transferFrom sender to this failed\");\n\n        swaps[swapId] = Swap(fromToken, toToken, _msgSender(), recipient, amount, nonce, endtime, false, false, \"\");\n\n        emit FundEvent(swapId, fromToken, toToken, _msgSender(), recipient, amount, nonce);\n\n        return swapId;\n    }\n\n    function fundCancel(bytes32 swapId)\n        external\n        isSwapExists(swapId)\n        refundable(swapId)\n        returns (bool)\n    {\n        Swap storage swap = swaps[swapId];\n\n        swap.refunded = true;\n        IERC20(swap.fromToken).transfer(\n            swap.sender,\n            swap.amount\n        );\n        emit FundCancelEvent(swapId);\n\n        return true;\n    }\n\n    function sign(bytes32 swapId, bytes memory signature)\n        external\n        isSwapExists(swapId)\n        withdrawable(swapId)\n    {\n        (bytes32 r, bytes32 s, uint8 v) = parseSignature(signature);\n\n        address signer = ecrecover(getUnsignedMsg(swapId), v, r, s);\n        if (signer != oracle) {\n            revert SignatureInvalidV();\n        }\n        swaps[swapId].signature = signature;\n        swaps[swapId].withdrawn = true;\n        emit SwapSigned(swapId, signature);\n    }\n\n    function haveSwap(bytes32 swapId) internal view returns (bool exists) {\n        exists = (swaps[swapId].sender != address(0));\n    }\n\n    function getSwap(bytes32 swapId)\n        public\n        view\n        returns (\n            bytes32 id,\n            address fromToken,\n            string memory toToken,\n            address sender,\n            string memory recipient,\n            uint256 amount,\n            uint256 nonce,\n            uint256 endtime,\n            bool withdrawn,\n            bool refunded,\n            bytes memory signature\n        )\n    {\n        if (haveSwap(swapId) == false)\n            return (0, address(0), \"\", address(0), \"\", 0, 0, 0, false, false, \"\");\n\n        Swap storage swap = swaps[swapId];\n\n        return (\n            swapId,\n            swap.fromToken,\n            swap.toToken,\n            swap.sender,\n            swap.recipient,\n            swap.amount,\n            swap.nonce,\n            swap.endtime,\n            swap.withdrawn,\n            swap.refunded,\n            swap.signature\n        );\n    }\n\n    function parseSignature(bytes memory _signature)\n        internal\n        pure\n        returns (\n            bytes32 r,\n            bytes32 s,\n            uint8 v\n        )\n    {\n        assembly {\n            r := mload(add(_signature, 32))\n            s := mload(add(_signature, 64))\n            v := and(mload(add(_signature, 65)), 0xff)\n        }\n\n        if (v < 27) v += 27;\n        if (v != 27 && v != 28) revert SignatureInvalidV();\n    }\n\n    function getUnsignedMsg(bytes32 data) internal pure returns (bytes32) {\n        return keccak256(abi.encodePacked(\"\\x19Ethereum Signed Message:\\n32\", data));\n    }\n\n    // oracle features\n    function setOracle(address _oracle) external onlyOwner {\n        oracle = _oracle;\n        emit NewOracleEvent(oracle);\n    }\n\n    function getOracle() public view returns(address oracleAddress) {\n        return oracle;\n    }\n\n    // fee\n    function setFee(uint _fee) external onlyOwner {\n        fee = _fee;\n        emit NewFee(fee);\n    }\n\n    function getFee() public view returns(uint feeAmount) {\n        return fee;\n    }\n\n    // bridge\n    function getBridgeId(address fromToken, string memory toToken) public pure returns (bytes32) {\n        return keccak256(abi.encodePacked(\n            fromToken,\n            toToken\n        ));\n    }\n\n    function haveBridge(bytes32 bridgeId) public view returns (bool exists) {\n        exists = (bridges[bridgeId].fromToken != address(0));\n    }\n\n    function addBridge(address fromToken, string memory toToken)\n        external\n        onlyOwner\n    {\n        bytes32 bridgeId = getBridgeId(fromToken, toToken);\n        if (haveBridge(bridgeId)) revert(\"this bridge already exists\");\n        bridges[bridgeId] = Bridge(fromToken, toToken);\n        emit NewBridge(fromToken, toToken);\n    }\n\n    function removeBridge(address fromToken, string memory toToken)\n        external\n        onlyOwner\n    {\n        bytes32 bridgeId = getBridgeId(fromToken, toToken);\n        if (haveBridge(bridgeId) == false) revert(\"this bridge does not exist\");\n        delete bridges[bridgeId];\n        emit RemoveBridge(fromToken, toToken);\n    }\n\n    function claim(\n        bytes32 swapId,\n        string memory fromToken,\n        address toToken,\n        string memory sender,\n        address recipient,\n        uint256 amount,\n        uint256 nonce,\n        bytes memory signature\n    )\n        external\n    {\n        if (usedSwaps[swapId]) {\n            revert(\"Swap should not be used\");\n        }\n\n        bytes32 correctSwapId = sha256(\n            abi.encodePacked(\n                sha256(abi.encodePacked(fromToken)),\n                toToken,\n                sha256(abi.encodePacked(sender)),\n                recipient,\n                sha256(abi.encodePacked(Strings.toString(amount))),\n                sha256(abi.encodePacked(Strings.toString(nonce)))\n            )\n        );\n\n        require(correctSwapId == swapId, \"Swap_id is not valid\");\n\n        (bytes32 r, bytes32 s, uint8 v) = parseSignature(signature);\n\n        if (ecrecover(getUnsignedMsg(swapId), v, r, s) != oracle) {\n            revert SignatureInvalidV();\n        }\n\n        if (!IERC20(toToken).transfer(recipient, amount))\n            revert(\"transfer sender to this failed\");\n\n        usedSwaps[swapId] = true;\n        emit SwapClaimed(swapId);\n    }\n}\n",
  "sourcePath": "/Users/pomeschenkoanton/projects/nuclearswap/truffle/contracts/Gate.sol",
  "compiler": {
    "name": "solc",
    "version": "0.8.14+commit.80d49f37.Emscripten.clang"
  },
  "schemaVersion": "3.4.7",
  "updatedAt": "2023-05-11T21:59:35.158Z",
  "networkType": "ethereum",
  "devdoc": {
    "kind": "dev",
    "methods": {
      "owner()": {
        "details": "Returns the address of the current owner."
      },
      "renounceOwnership()": {
        "details": "Leaves the contract without owner. It will not be possible to call `onlyOwner` functions anymore. Can only be called by the current owner. NOTE: Renouncing ownership will leave the contract without an owner, thereby removing any functionality that is only available to the owner."
      },
      "transferOwnership(address)": {
        "details": "Transfers ownership of the contract to a new account (`newOwner`). Can only be called by the current owner."
      }
    },
    "version": 1
  },
  "userdoc": {
    "kind": "user",
    "methods": {},
    "version": 1
  }
}