{
  "contractName": "Gate",
  "abi": [
    {
      "inputs": [
        {
          "internalType": "address",
          "name": "_oracle",
          "type": "address"
        }
      ],
      "stateMutability": "nonpayable",
      "type": "constructor"
    },
    {
      "inputs": [],
      "name": "SignatureInvalidV",
      "type": "error"
    },
    {
      "anonymous": false,
      "inputs": [
        {
          "indexed": true,
          "internalType": "bytes32",
          "name": "swapId",
          "type": "bytes32"
        }
      ],
      "name": "FundCancelEvent",
      "type": "event"
    },
    {
      "anonymous": false,
      "inputs": [
        {
          "indexed": true,
          "internalType": "bytes32",
          "name": "swapId",
          "type": "bytes32"
        },
        {
          "indexed": false,
          "internalType": "address",
          "name": "fromToken",
          "type": "address"
        },
        {
          "indexed": false,
          "internalType": "string",
          "name": "toToken",
          "type": "string"
        },
        {
          "indexed": true,
          "internalType": "address",
          "name": "sender",
          "type": "address"
        },
        {
          "indexed": true,
          "internalType": "string",
          "name": "recipient",
          "type": "string"
        },
        {
          "indexed": false,
          "internalType": "uint256",
          "name": "amount",
          "type": "uint256"
        },
        {
          "indexed": false,
          "internalType": "uint256",
          "name": "nonce",
          "type": "uint256"
        }
      ],
      "name": "FundEvent",
      "type": "event"
    },
    {
      "anonymous": false,
      "inputs": [
        {
          "indexed": false,
          "internalType": "address",
          "name": "fromToken",
          "type": "address"
        },
        {
          "indexed": false,
          "internalType": "string",
          "name": "toToken",
          "type": "string"
        }
      ],
      "name": "NewBridge",
      "type": "event"
    },
    {
      "anonymous": false,
      "inputs": [
        {
          "indexed": true,
          "internalType": "address",
          "name": "oracle",
          "type": "address"
        }
      ],
      "name": "NewOracleEvent",
      "type": "event"
    },
    {
      "anonymous": false,
      "inputs": [
        {
          "indexed": true,
          "internalType": "address",
          "name": "previousOwner",
          "type": "address"
        },
        {
          "indexed": true,
          "internalType": "address",
          "name": "newOwner",
          "type": "address"
        }
      ],
      "name": "OwnershipTransferred",
      "type": "event"
    },
    {
      "anonymous": false,
      "inputs": [
        {
          "indexed": false,
          "internalType": "address",
          "name": "fromToken",
          "type": "address"
        },
        {
          "indexed": false,
          "internalType": "string",
          "name": "toToken",
          "type": "string"
        }
      ],
      "name": "RemoveBridge",
      "type": "event"
    },
    {
      "anonymous": false,
      "inputs": [
        {
          "indexed": true,
          "internalType": "bytes32",
          "name": "swapId",
          "type": "bytes32"
        },
        {
          "indexed": false,
          "internalType": "bytes",
          "name": "signature",
          "type": "bytes"
        }
      ],
      "name": "SwapSigned",
      "type": "event"
    },
    {
      "inputs": [],
      "name": "owner",
      "outputs": [
        {
          "internalType": "address",
          "name": "",
          "type": "address"
        }
      ],
      "stateMutability": "view",
      "type": "function",
      "constant": true
    },
    {
      "inputs": [],
      "name": "renounceOwnership",
      "outputs": [],
      "stateMutability": "nonpayable",
      "type": "function"
    },
    {
      "inputs": [
        {
          "internalType": "address",
          "name": "newOwner",
          "type": "address"
        }
      ],
      "name": "transferOwnership",
      "outputs": [],
      "stateMutability": "nonpayable",
      "type": "function"
    },
    {
      "inputs": [
        {
          "internalType": "address",
          "name": "fromToken",
          "type": "address"
        },
        {
          "internalType": "string",
          "name": "toToken",
          "type": "string"
        },
        {
          "internalType": "string",
          "name": "recipient",
          "type": "string"
        },
        {
          "internalType": "uint256",
          "name": "amount",
          "type": "uint256"
        },
        {
          "internalType": "uint256",
          "name": "nonce",
          "type": "uint256"
        },
        {
          "internalType": "uint256",
          "name": "endtime",
          "type": "uint256"
        }
      ],
      "name": "fund",
      "outputs": [
        {
          "internalType": "bytes32",
          "name": "res",
          "type": "bytes32"
        }
      ],
      "stateMutability": "nonpayable",
      "type": "function"
    },
    {
      "inputs": [
        {
          "internalType": "bytes32",
          "name": "swapId",
          "type": "bytes32"
        }
      ],
      "name": "fundCancel",
      "outputs": [
        {
          "internalType": "bool",
          "name": "",
          "type": "bool"
        }
      ],
      "stateMutability": "nonpayable",
      "type": "function"
    },
    {
      "inputs": [
        {
          "internalType": "bytes32",
          "name": "swapId",
          "type": "bytes32"
        },
        {
          "internalType": "bytes",
          "name": "signature",
          "type": "bytes"
        }
      ],
      "name": "sign",
      "outputs": [],
      "stateMutability": "nonpayable",
      "type": "function"
    },
    {
      "inputs": [
        {
          "internalType": "bytes32",
          "name": "swapId",
          "type": "bytes32"
        }
      ],
      "name": "getSwap",
      "outputs": [
        {
          "internalType": "bytes32",
          "name": "id",
          "type": "bytes32"
        },
        {
          "internalType": "address",
          "name": "fromToken",
          "type": "address"
        },
        {
          "internalType": "string",
          "name": "toToken",
          "type": "string"
        },
        {
          "internalType": "address",
          "name": "sender",
          "type": "address"
        },
        {
          "internalType": "string",
          "name": "recipient",
          "type": "string"
        },
        {
          "internalType": "uint256",
          "name": "amount",
          "type": "uint256"
        },
        {
          "internalType": "uint256",
          "name": "nonce",
          "type": "uint256"
        },
        {
          "internalType": "uint256",
          "name": "endtime",
          "type": "uint256"
        },
        {
          "internalType": "bool",
          "name": "withdrawn",
          "type": "bool"
        },
        {
          "internalType": "bool",
          "name": "refunded",
          "type": "bool"
        },
        {
          "internalType": "bytes",
          "name": "signature",
          "type": "bytes"
        }
      ],
      "stateMutability": "view",
      "type": "function",
      "constant": true
    },
    {
      "inputs": [
        {
          "internalType": "address",
          "name": "_oracle",
          "type": "address"
        }
      ],
      "name": "setOracle",
      "outputs": [],
      "stateMutability": "nonpayable",
      "type": "function"
    },
    {
      "inputs": [],
      "name": "getOracle",
      "outputs": [
        {
          "internalType": "address",
          "name": "oracleAddress",
          "type": "address"
        }
      ],
      "stateMutability": "view",
      "type": "function",
      "constant": true
    },
    {
      "inputs": [
        {
          "internalType": "address",
          "name": "fromToken",
          "type": "address"
        },
        {
          "internalType": "string",
          "name": "toToken",
          "type": "string"
        }
      ],
      "name": "getBridgeId",
      "outputs": [
        {
          "internalType": "bytes32",
          "name": "",
          "type": "bytes32"
        }
      ],
      "stateMutability": "pure",
      "type": "function",
      "constant": true
    },
    {
      "inputs": [
        {
          "internalType": "bytes32",
          "name": "bridgeId",
          "type": "bytes32"
        }
      ],
      "name": "haveBridge",
      "outputs": [
        {
          "internalType": "bool",
          "name": "exists",
          "type": "bool"
        }
      ],
      "stateMutability": "view",
      "type": "function",
      "constant": true
    },
    {
      "inputs": [
        {
          "internalType": "address",
          "name": "fromToken",
          "type": "address"
        },
        {
          "internalType": "string",
          "name": "toToken",
          "type": "string"
        }
      ],
      "name": "addBridge",
      "outputs": [],
      "stateMutability": "nonpayable",
      "type": "function"
    },
    {
      "inputs": [
        {
          "internalType": "address",
          "name": "fromToken",
          "type": "address"
        },
        {
          "internalType": "string",
          "name": "toToken",
          "type": "string"
        }
      ],
      "name": "removeBridge",
      "outputs": [],
      "stateMutability": "nonpayable",
      "type": "function"
    }
  ],
  "bytecode": "0x60806040523480156200001157600080fd5b5060405162003235380380620032358339818101604052810190620000379190620001d5565b620000576200004b6200009f60201b60201c565b620000a760201b60201c565b80600160006101000a81548173ffffffffffffffffffffffffffffffffffffffff021916908373ffffffffffffffffffffffffffffffffffffffff1602179055505062000207565b600033905090565b60008060009054906101000a900473ffffffffffffffffffffffffffffffffffffffff169050816000806101000a81548173ffffffffffffffffffffffffffffffffffffffff021916908373ffffffffffffffffffffffffffffffffffffffff1602179055508173ffffffffffffffffffffffffffffffffffffffff168173ffffffffffffffffffffffffffffffffffffffff167f8be0079c531659141344cd1fd0a4f28419497f9722a3daafe3b4186f6b6457e060405160405180910390a35050565b600080fd5b600073ffffffffffffffffffffffffffffffffffffffff82169050919050565b60006200019d8262000170565b9050919050565b620001af8162000190565b8114620001bb57600080fd5b50565b600081519050620001cf81620001a4565b92915050565b600060208284031215620001ee57620001ed6200016b565b5b6000620001fe84828501620001be565b91505092915050565b61301e80620002176000396000f3fe608060405234801561001057600080fd5b50600436106100cf5760003560e01c80636948966f1161008c578063833b1fce11610066578063833b1fce1461022c5780638da5cb5b1461024a57806390ede8fa14610268578063f2fde38b14610284576100cf565b80636948966f146101d6578063715018a6146102065780637adbf97314610210576100cf565b806302e3120d146100d45780632b69f013146100f05780633265d0bd14610120578063365e250b146101505780633da0e66e1461016c5780633dc32283146101a6575b600080fd5b6100ee60048036038101906100e99190611d77565b6102a0565b005b61010a60048036038101906101059190611d77565b6103e2565b6040516101179190611dec565b60405180910390f35b61013a60048036038101906101359190611e33565b610415565b6040516101479190611e7b565b60405180910390f35b61016a60048036038101906101659190611f37565b610771565b005b61018660048036038101906101819190611e33565b610a21565b60405161019d9b9a99989796959493929190612098565b60405180910390f35b6101c060048036038101906101bb9190612184565b610d1c565b6040516101cd9190611dec565b60405180910390f35b6101f060048036038101906101eb9190611e33565b611384565b6040516101fd9190611e7b565b60405180910390f35b61020e6113f3565b005b61022a60048036038101906102259190612249565b611407565b005b6102346114b8565b6040516102419190612276565b60405180910390f35b6102526114e2565b60405161025f9190612276565b60405180910390f35b610282600480360381019061027d9190611d77565b61150b565b005b61029e60048036038101906102999190612249565b6115fb565b005b6102a861167e565b60006102b483836103e2565b90506102bf81611384565b156102ff576040517f08c379a00000000000000000000000000000000000000000000000000000000081526004016102f6906122dd565b60405180910390fd5b60405180604001604052808473ffffffffffffffffffffffffffffffffffffffff168152602001838152506003600083815260200190815260200160002060008201518160000160006101000a81548173ffffffffffffffffffffffffffffffffffffffff021916908373ffffffffffffffffffffffffffffffffffffffff16021790555060208201518160010190805190602001906103a0929190611a56565b509050507f1af0ca75b5bcb5145630f83522dda2755a9ea333671a789e871b4a23e57a76da83836040516103d59291906122fd565b60405180910390a1505050565b600082826040516020016103f79291906123b1565b60405160208183030381529060405280519060200120905092915050565b600081610421816116fc565b610460576040517f08c379a000000000000000000000000000000000000000000000000000000000815260040161045790612425565b60405180910390fd5b8261046961176b565b73ffffffffffffffffffffffffffffffffffffffff166002600083815260200190815260200160002060020160009054906101000a900473ffffffffffffffffffffffffffffffffffffffff1673ffffffffffffffffffffffffffffffffffffffff161461050c576040517f08c379a000000000000000000000000000000000000000000000000000000000815260040161050390612491565b60405180910390fd5b600015156002600083815260200190815260200160002060070160019054906101000a900460ff16151514610576576040517f08c379a000000000000000000000000000000000000000000000000000000000815260040161056d906124fd565b60405180910390fd5b600015156002600083815260200190815260200160002060070160009054906101000a900460ff161515146105e0576040517f08c379a00000000000000000000000000000000000000000000000000000000081526004016105d790612569565b60405180910390fd5b4260026000838152602001908152602001600020600601541115610639576040517f08c379a0000000000000000000000000000000000000000000000000000000008152600401610630906125fb565b60405180910390fd5b600060026000868152602001908152602001600020905060018160070160016101000a81548160ff0219169083151502179055508060000160009054906101000a900473ffffffffffffffffffffffffffffffffffffffff1673ffffffffffffffffffffffffffffffffffffffff1663a9059cbb8260020160009054906101000a900473ffffffffffffffffffffffffffffffffffffffff1683600401546040518363ffffffff1660e01b81526004016106f492919061261b565b6020604051808303816000875af1158015610713573d6000803e3d6000fd5b505050506040513d601f19601f820116820180604052508101906107379190612670565b50847f6c0e214651db8d44150ff205e8e05c4ca8dc0bd059e8e78d18f683d0c6205d1d60405160405180910390a260019350505050919050565b8161077b816116fc565b6107ba576040517f08c379a00000000000000000000000000000000000000000000000000000000081526004016107b190612425565b60405180910390fd5b82600015156002600083815260200190815260200160002060070160009054906101000a900460ff16151514610825576040517f08c379a000000000000000000000000000000000000000000000000000000000815260040161081c906126e9565b60405180910390fd5b600015156002600083815260200190815260200160002060070160019054906101000a900460ff1615151461088f576040517f08c379a000000000000000000000000000000000000000000000000000000000815260040161088690612755565b60405180910390fd5b600080600061089d86611773565b925092509250600060016108b089611802565b838686604051600081526020016040526040516108d09493929190612791565b6020604051602081039080840390855afa1580156108f2573d6000803e3d6000fd5b505050602060405103519050600160009054906101000a900473ffffffffffffffffffffffffffffffffffffffff1673ffffffffffffffffffffffffffffffffffffffff168173ffffffffffffffffffffffffffffffffffffffff1614610985576040517f18ce829400000000000000000000000000000000000000000000000000000000815260040160405180910390fd5b86600260008a815260200190815260200160002060080190805190602001906109af929190611adc565b506001600260008a815260200190815260200160002060070160006101000a81548160ff021916908315150217905550877fa305accbd0db7f95239b77e0d12d0bc97086c07877ef9590128956c1f9c5a8b588604051610a0f91906127d6565b60405180910390a25050505050505050565b6000806060600060606000806000806000606060001515610a418d6116fc565b151503610ab0576000806000806000806000808760001b975060405180602001604052806000815250959493929190604051806020016040528060008152509493929190604051806020016040528060008152509a509a509a509a509a509a509a509a509a509a509a50610d0d565b6000600260008e815260200190815260200160002090508c8160000160009054906101000a900473ffffffffffffffffffffffffffffffffffffffff16826001018360020160009054906101000a900473ffffffffffffffffffffffffffffffffffffffff16846003018560040154866005015487600601548860070160009054906101000a900460ff168960070160019054906101000a900460ff168a600801888054610b5d90612827565b80601f0160208091040260200160405190810160405280929190818152602001828054610b8990612827565b8015610bd65780601f10610bab57610100808354040283529160200191610bd6565b820191906000526020600020905b815481529060010190602001808311610bb957829003601f168201915b50505050509850868054610be990612827565b80601f0160208091040260200160405190810160405280929190818152602001828054610c1590612827565b8015610c625780601f10610c3757610100808354040283529160200191610c62565b820191906000526020600020905b815481529060010190602001808311610c4557829003601f168201915b50505050509650808054610c7590612827565b80601f0160208091040260200160405190810160405280929190818152602001828054610ca190612827565b8015610cee5780601f10610cc357610100808354040283529160200191610cee565b820191906000526020600020905b815481529060010190602001808311610cd157829003601f168201915b505050505090509b509b509b509b509b509b509b509b509b509b509b50505b91939597999b90929496989a50565b600081428111610d61576040517f08c379a0000000000000000000000000000000000000000000000000000000008152600401610d58906128ca565b60405180910390fd5b6000610d6d89896103e2565b905060001515610d7c82611384565b151503610dbe576040517f08c379a0000000000000000000000000000000000000000000000000000000008152600401610db590612936565b60405180910390fd5b600060028a60028b604051602001610dd69190612956565b604051602081830303815290604052604051610df291906129a9565b602060405180830381855afa158015610e0f573d6000803e3d6000fd5b5050506040513d601f19601f82011682018060405250810190610e3291906129d5565b610e3a61176b565b60028c604051602001610e4d9190612956565b604051602081830303815290604052604051610e6991906129a9565b602060405180830381855afa158015610e86573d6000803e3d6000fd5b5050506040513d601f19601f82011682018060405250810190610ea991906129d5565b6002610eb48d611832565b604051602001610ec49190612956565b604051602081830303815290604052604051610ee091906129a9565b602060405180830381855afa158015610efd573d6000803e3d6000fd5b5050506040513d601f19601f82011682018060405250810190610f2091906129d5565b6002610f2b8d611832565b604051602001610f3b9190612956565b604051602081830303815290604052604051610f5791906129a9565b602060405180830381855afa158015610f74573d6000803e3d6000fd5b5050506040513d601f19601f82011682018060405250810190610f9791906129d5565b604051602001610fac96959493929190612a23565b604051602081830303815290604052604051610fc891906129a9565b602060405180830381855afa158015610fe5573d6000803e3d6000fd5b5050506040513d601f19601f8201168201806040525081019061100891906129d5565b9050611013816116fc565b15611053576040517f08c379a000000000000000000000000000000000000000000000000000000000815260040161104a90612adf565b60405180910390fd5b8973ffffffffffffffffffffffffffffffffffffffff166323b872dd61107761176b565b308a6040518463ffffffff1660e01b815260040161109793929190612aff565b6020604051808303816000875af11580156110b6573d6000803e3d6000fd5b505050506040513d601f19601f820116820180604052508101906110da9190612670565b611119576040517f08c379a000000000000000000000000000000000000000000000000000000000815260040161111090612ba8565b60405180910390fd5b6040518061014001604052808b73ffffffffffffffffffffffffffffffffffffffff1681526020018a815260200161114f61176b565b73ffffffffffffffffffffffffffffffffffffffff168152602001898152602001888152602001878152602001868152602001600015158152602001600015158152602001604051806020016040528060008152508152506002600083815260200190815260200160002060008201518160000160006101000a81548173ffffffffffffffffffffffffffffffffffffffff021916908373ffffffffffffffffffffffffffffffffffffffff160217905550602082015181600101908051906020019061121d929190611a56565b5060408201518160020160006101000a81548173ffffffffffffffffffffffffffffffffffffffff021916908373ffffffffffffffffffffffffffffffffffffffff1602179055506060820151816003019080519060200190611281929190611a56565b506080820151816004015560a0820151816005015560c0820151816006015560e08201518160070160006101000a81548160ff0219169083151502179055506101008201518160070160016101000a81548160ff0219169083151502179055506101208201518160080190805190602001906112fe929190611adc565b50905050876040516113109190612956565b604051809103902061132061176b565b73ffffffffffffffffffffffffffffffffffffffff16827f8509d4a87aad586eb0290d532f65131b8872bf63168b88dad5f48171956a693e8d8d8c8c60405161136c9493929190612bc8565b60405180910390a48093505050509695505050505050565b60008073ffffffffffffffffffffffffffffffffffffffff166003600084815260200190815260200160002060000160009054906101000a900473ffffffffffffffffffffffffffffffffffffffff1673ffffffffffffffffffffffffffffffffffffffff1614159050919050565b6113fb61167e565b6114056000611992565b565b61140f61167e565b80600160006101000a81548173ffffffffffffffffffffffffffffffffffffffff021916908373ffffffffffffffffffffffffffffffffffffffff160217905550600160009054906101000a900473ffffffffffffffffffffffffffffffffffffffff1673ffffffffffffffffffffffffffffffffffffffff167f1938167943cd56e64085b4cc277d51cc1e0255c0d17871d3b34daf97355e8ea860405160405180910390a250565b6000600160009054906101000a900473ffffffffffffffffffffffffffffffffffffffff16905090565b60008060009054906101000a900473ffffffffffffffffffffffffffffffffffffffff16905090565b61151361167e565b600061151f83836103e2565b90506000151561152e82611384565b151503611570576040517f08c379a000000000000000000000000000000000000000000000000000000000815260040161156790612c60565b60405180910390fd5b60036000828152602001908152602001600020600080820160006101000a81549073ffffffffffffffffffffffffffffffffffffffff02191690556001820160006115bb9190611b62565b50507fd0c88b2b7e8320eb04428ab66ea6c686a3854b550557daae14605d7eeb82c3ed83836040516115ee9291906122fd565b60405180910390a1505050565b61160361167e565b600073ffffffffffffffffffffffffffffffffffffffff168173ffffffffffffffffffffffffffffffffffffffff1603611672576040517f08c379a000000000000000000000000000000000000000000000000000000000815260040161166990612cf2565b60405180910390fd5b61167b81611992565b50565b61168661176b565b73ffffffffffffffffffffffffffffffffffffffff166116a46114e2565b73ffffffffffffffffffffffffffffffffffffffff16146116fa576040517f08c379a00000000000000000000000000000000000000000000000000000000081526004016116f190612d5e565b60405180910390fd5b565b60008073ffffffffffffffffffffffffffffffffffffffff166002600084815260200190815260200160002060020160009054906101000a900473ffffffffffffffffffffffffffffffffffffffff1673ffffffffffffffffffffffffffffffffffffffff1614159050919050565b600033905090565b6000806000602084015192506040840151915060ff6041850151169050601b8160ff1610156117ac57601b816117a99190612dad565b90505b601b8160ff16141580156117c45750601c8160ff1614155b156117fb576040517f18ce829400000000000000000000000000000000000000000000000000000000815260040160405180910390fd5b9193909250565b6000816040516020016118159190612e30565b604051602081830303815290604052805190602001209050919050565b606060008203611879576040518060400160405280600181526020017f3000000000000000000000000000000000000000000000000000000000000000815250905061198d565b600082905060005b600082146118ab57808061189490612e56565b915050600a826118a49190612ecd565b9150611881565b60008167ffffffffffffffff8111156118c7576118c6611c4c565b5b6040519080825280601f01601f1916602001820160405280156118f95781602001600182028036833780820191505090505b5090505b60008514611986576001826119129190612efe565b9150600a856119219190612f32565b603061192d9190612f63565b60f81b81838151811061194357611942612fb9565b5b60200101907effffffffffffffffffffffffffffffffffffffffffffffffffffffffffffff1916908160001a905350600a8561197f9190612ecd565b94506118fd565b8093505050505b919050565b60008060009054906101000a900473ffffffffffffffffffffffffffffffffffffffff169050816000806101000a81548173ffffffffffffffffffffffffffffffffffffffff021916908373ffffffffffffffffffffffffffffffffffffffff1602179055508173ffffffffffffffffffffffffffffffffffffffff168173ffffffffffffffffffffffffffffffffffffffff167f8be0079c531659141344cd1fd0a4f28419497f9722a3daafe3b4186f6b6457e060405160405180910390a35050565b828054611a6290612827565b90600052602060002090601f016020900481019282611a845760008555611acb565b82601f10611a9d57805160ff1916838001178555611acb565b82800160010185558215611acb579182015b82811115611aca578251825591602001919060010190611aaf565b5b509050611ad89190611ba2565b5090565b828054611ae890612827565b90600052602060002090601f016020900481019282611b0a5760008555611b51565b82601f10611b2357805160ff1916838001178555611b51565b82800160010185558215611b51579182015b82811115611b50578251825591602001919060010190611b35565b5b509050611b5e9190611ba2565b5090565b508054611b6e90612827565b6000825580601f10611b805750611b9f565b601f016020900490600052602060002090810190611b9e9190611ba2565b5b50565b5b80821115611bbb576000816000905550600101611ba3565b5090565b6000604051905090565b600080fd5b600080fd5b600073ffffffffffffffffffffffffffffffffffffffff82169050919050565b6000611bfe82611bd3565b9050919050565b611c0e81611bf3565b8114611c1957600080fd5b50565b600081359050611c2b81611c05565b92915050565b600080fd5b600080fd5b6000601f19601f8301169050919050565b7f4e487b7100000000000000000000000000000000000000000000000000000000600052604160045260246000fd5b611c8482611c3b565b810181811067ffffffffffffffff82111715611ca357611ca2611c4c565b5b80604052505050565b6000611cb6611bbf565b9050611cc28282611c7b565b919050565b600067ffffffffffffffff821115611ce257611ce1611c4c565b5b611ceb82611c3b565b9050602081019050919050565b82818337600083830152505050565b6000611d1a611d1584611cc7565b611cac565b905082815260208101848484011115611d3657611d35611c36565b5b611d41848285611cf8565b509392505050565b600082601f830112611d5e57611d5d611c31565b5b8135611d6e848260208601611d07565b91505092915050565b60008060408385031215611d8e57611d8d611bc9565b5b6000611d9c85828601611c1c565b925050602083013567ffffffffffffffff811115611dbd57611dbc611bce565b5b611dc985828601611d49565b9150509250929050565b6000819050919050565b611de681611dd3565b82525050565b6000602082019050611e016000830184611ddd565b92915050565b611e1081611dd3565b8114611e1b57600080fd5b50565b600081359050611e2d81611e07565b92915050565b600060208284031215611e4957611e48611bc9565b5b6000611e5784828501611e1e565b91505092915050565b60008115159050919050565b611e7581611e60565b82525050565b6000602082019050611e906000830184611e6c565b92915050565b600067ffffffffffffffff821115611eb157611eb0611c4c565b5b611eba82611c3b565b9050602081019050919050565b6000611eda611ed584611e96565b611cac565b905082815260208101848484011115611ef657611ef5611c36565b5b611f01848285611cf8565b509392505050565b600082601f830112611f1e57611f1d611c31565b5b8135611f2e848260208601611ec7565b91505092915050565b60008060408385031215611f4e57611f4d611bc9565b5b6000611f5c85828601611e1e565b925050602083013567ffffffffffffffff811115611f7d57611f7c611bce565b5b611f8985828601611f09565b9150509250929050565b611f9c81611bf3565b82525050565b600081519050919050565b600082825260208201905092915050565b60005b83811015611fdc578082015181840152602081019050611fc1565b83811115611feb576000848401525b50505050565b6000611ffc82611fa2565b6120068185611fad565b9350612016818560208601611fbe565b61201f81611c3b565b840191505092915050565b6000819050919050565b61203d8161202a565b82525050565b600081519050919050565b600082825260208201905092915050565b600061206a82612043565b612074818561204e565b9350612084818560208601611fbe565b61208d81611c3b565b840191505092915050565b6000610160820190506120ae600083018e611ddd565b6120bb602083018d611f93565b81810360408301526120cd818c611ff1565b90506120dc606083018b611f93565b81810360808301526120ee818a611ff1565b90506120fd60a0830189612034565b61210a60c0830188612034565b61211760e0830187612034565b612125610100830186611e6c565b612133610120830185611e6c565b818103610140830152612146818461205f565b90509c9b505050505050505050505050565b6121618161202a565b811461216c57600080fd5b50565b60008135905061217e81612158565b92915050565b60008060008060008060c087890312156121a1576121a0611bc9565b5b60006121af89828a01611c1c565b965050602087013567ffffffffffffffff8111156121d0576121cf611bce565b5b6121dc89828a01611d49565b955050604087013567ffffffffffffffff8111156121fd576121fc611bce565b5b61220989828a01611d49565b945050606061221a89828a0161216f565b935050608061222b89828a0161216f565b92505060a061223c89828a0161216f565b9150509295509295509295565b60006020828403121561225f5761225e611bc9565b5b600061226d84828501611c1c565b91505092915050565b600060208201905061228b6000830184611f93565b92915050565b7f746869732062726964676520616c726561647920657869737473000000000000600082015250565b60006122c7601a83611fad565b91506122d282612291565b602082019050919050565b600060208201905081810360008301526122f6816122ba565b9050919050565b60006040820190506123126000830185611f93565b81810360208301526123248184611ff1565b90509392505050565b60008160601b9050919050565b60006123458261232d565b9050919050565b60006123578261233a565b9050919050565b61236f61236a82611bf3565b61234c565b82525050565b600081905092915050565b600061238b82611fa2565b6123958185612375565b93506123a5818560208601611fbe565b80840191505092915050565b60006123bd828561235e565b6014820191506123cd8284612380565b91508190509392505050565b7f7377617020646f6573206e6f7420657869737400000000000000000000000000600082015250565b600061240f601383611fad565b915061241a826123d9565b602082019050919050565b6000602082019050818103600083015261243e81612402565b9050919050565b7f726566756e6461626c653a206e6f742073656e64657200000000000000000000600082015250565b600061247b601683611fad565b915061248682612445565b602082019050919050565b600060208201905081810360008301526124aa8161246e565b9050919050565b7f726566756e6461626c653a20616c726561647920726566756e64656400000000600082015250565b60006124e7601c83611fad565b91506124f2826124b1565b602082019050919050565b60006020820190508181036000830152612516816124da565b9050919050565b7f726566756e6461626c653a20616c72656164792077697468647261776e000000600082015250565b6000612553601d83611fad565b915061255e8261251d565b602082019050919050565b6000602082019050818103600083015261258281612546565b9050919050565b7f726566756e6461626c653a20656e6474696d65206e6f7420796574207061737360008201527f6564000000000000000000000000000000000000000000000000000000000000602082015250565b60006125e5602283611fad565b91506125f082612589565b604082019050919050565b60006020820190508181036000830152612614816125d8565b9050919050565b60006040820190506126306000830185611f93565b61263d6020830184612034565b9392505050565b61264d81611e60565b811461265857600080fd5b50565b60008151905061266a81612644565b92915050565b60006020828403121561268657612685611bc9565b5b60006126948482850161265b565b91505092915050565b7f776974686472617761626c653a20616c72656164792077697468647261776e00600082015250565b60006126d3601f83611fad565b91506126de8261269d565b602082019050919050565b60006020820190508181036000830152612702816126c6565b9050919050565b7f776974686472617761626c653a20616c726561647920726566756e6465640000600082015250565b600061273f601e83611fad565b915061274a82612709565b602082019050919050565b6000602082019050818103600083015261276e81612732565b9050919050565b600060ff82169050919050565b61278b81612775565b82525050565b60006080820190506127a66000830187611ddd565b6127b36020830186612782565b6127c06040830185611ddd565b6127cd6060830184611ddd565b95945050505050565b600060208201905081810360008301526127f0818461205f565b905092915050565b7f4e487b7100000000000000000000000000000000000000000000000000000000600052602260045260246000fd5b6000600282049050600182168061283f57607f821691505b602082108103612852576128516127f8565b5b50919050565b7f656e6474696d652074696d65206d75737420626520696e20746865206675747560008201527f7265000000000000000000000000000000000000000000000000000000000000602082015250565b60006128b4602283611fad565b91506128bf82612858565b604082019050919050565b600060208201905081810360008301526128e3816128a7565b9050919050565b7f746869732062726964676520646f6573206e6f74206578697374730000000000600082015250565b6000612920601b83611fad565b915061292b826128ea565b602082019050919050565b6000602082019050818103600083015261294f81612913565b9050919050565b60006129628284612380565b915081905092915050565b600081905092915050565b600061298382612043565b61298d818561296d565b935061299d818560208601611fbe565b80840191505092915050565b60006129b58284612978565b915081905092915050565b6000815190506129cf81611e07565b92915050565b6000602082840312156129eb576129ea611bc9565b5b60006129f9848285016129c0565b91505092915050565b6000819050919050565b612a1d612a1882611dd3565b612a02565b82525050565b6000612a2f828961235e565b601482019150612a3f8288612a0c565b602082019150612a4f828761235e565b601482019150612a5f8286612a0c565b602082019150612a6f8285612a0c565b602082019150612a7f8284612a0c565b602082019150819050979650505050505050565b7f74686973207377617020616c7265616479206578697374730000000000000000600082015250565b6000612ac9601883611fad565b9150612ad482612a93565b602082019050919050565b60006020820190508181036000830152612af881612abc565b9050919050565b6000606082019050612b146000830186611f93565b612b216020830185611f93565b612b2e6040830184612034565b949350505050565b7f7472616e7366657246726f6d2073656e64657220746f2074686973206661696c60008201527f6564000000000000000000000000000000000000000000000000000000000000602082015250565b6000612b92602283611fad565b9150612b9d82612b36565b604082019050919050565b60006020820190508181036000830152612bc181612b85565b9050919050565b6000608082019050612bdd6000830187611f93565b8181036020830152612bef8186611ff1565b9050612bfe6040830185612034565b612c0b6060830184612034565b95945050505050565b7f746869732062726964676520646f6573206e6f74206578697374000000000000600082015250565b6000612c4a601a83611fad565b9150612c5582612c14565b602082019050919050565b60006020820190508181036000830152612c7981612c3d565b9050919050565b7f4f776e61626c653a206e6577206f776e657220697320746865207a65726f206160008201527f6464726573730000000000000000000000000000000000000000000000000000602082015250565b6000612cdc602683611fad565b9150612ce782612c80565b604082019050919050565b60006020820190508181036000830152612d0b81612ccf565b9050919050565b7f4f776e61626c653a2063616c6c6572206973206e6f7420746865206f776e6572600082015250565b6000612d48602083611fad565b9150612d5382612d12565b602082019050919050565b60006020820190508181036000830152612d7781612d3b565b9050919050565b7f4e487b7100000000000000000000000000000000000000000000000000000000600052601160045260246000fd5b6000612db882612775565b9150612dc383612775565b92508260ff03821115612dd957612dd8612d7e565b5b828201905092915050565b7f19457468657265756d205369676e6564204d6573736167653a0a333200000000600082015250565b6000612e1a601c83612375565b9150612e2582612de4565b601c82019050919050565b6000612e3b82612e0d565b9150612e478284612a0c565b60208201915081905092915050565b6000612e618261202a565b91507fffffffffffffffffffffffffffffffffffffffffffffffffffffffffffffffff8203612e9357612e92612d7e565b5b600182019050919050565b7f4e487b7100000000000000000000000000000000000000000000000000000000600052601260045260246000fd5b6000612ed88261202a565b9150612ee38361202a565b925082612ef357612ef2612e9e565b5b828204905092915050565b6000612f098261202a565b9150612f148361202a565b925082821015612f2757612f26612d7e565b5b828203905092915050565b6000612f3d8261202a565b9150612f488361202a565b925082612f5857612f57612e9e565b5b828206905092915050565b6000612f6e8261202a565b9150612f798361202a565b9250827fffffffffffffffffffffffffffffffffffffffffffffffffffffffffffffffff03821115612fae57612fad612d7e565b5b828201905092915050565b7f4e487b7100000000000000000000000000000000000000000000000000000000600052603260045260246000fdfea264697066735822122033c7e80036e334c57e14cbe1ef97b94f781e6045ecae0712a8dac636eaff375964736f6c634300080e0033",
  "immutableReferences": {},
  "source": "// SPDX-License-Identifier: AGPL-3.0\n\npragma solidity ^0.8.10;\n\nimport \"@openzeppelin/contracts/token/ERC20/IERC20.sol\";\nimport \"@openzeppelin/contracts/access/Ownable.sol\";\nimport \"@openzeppelin/contracts/utils/Strings.sol\";\n\ncontract Gate is Ownable {\n    error SignatureInvalidV();\n\n    struct Bridge {\n        address fromToken;\n        string toToken;\n    }\n\n    struct Swap {\n        address fromToken;\n        string toToken;\n        address sender;\n        string recipient;\n        uint256 amount;\n        uint256 nonce;\n        uint256 endtime;\n        bool withdrawn;\n        bool refunded;\n        bytes signature;\n    }\n\n    event FundEvent(\n        bytes32 indexed swapId,\n        address fromToken,\n        string toToken,\n        address indexed sender,\n        string indexed recipient,\n        uint256 amount,\n        uint256 nonce\n    );\n\n    event FundCancelEvent(\n        bytes32 indexed swapId\n    );\n\n    event SwapSigned(\n        bytes32 indexed swapId,\n        bytes signature\n    );\n\n    event NewBridge(\n        address fromToken,\n        string toToken\n    );\n\n    event RemoveBridge(\n        address fromToken,\n        string toToken\n    );\n\n    event NewOracleEvent(address indexed oracle);\n\n    address oracle;\n\n    mapping(bytes32 => Swap) swaps;\n    mapping(bytes32 => Bridge) bridges;\n\n    constructor(address _oracle) {\n        oracle = _oracle;\n    }\n\n    modifier futureEndtime(uint256 endtime) {\n        require(\n            endtime > block.timestamp,\n            \"endtime time must be in the future\"\n        );\n        _;\n    }\n\n    modifier withdrawable(bytes32 swapId) {\n        require(\n            swaps[swapId].withdrawn == false,\n            \"withdrawable: already withdrawn\"\n        );\n        require(\n            swaps[swapId].refunded == false,\n            \"withdrawable: already refunded\"\n        );\n        _;\n    }\n\n    modifier refundable(bytes32 swapId) {\n        require(\n            swaps[swapId].sender == _msgSender(),\n            \"refundable: not sender\"\n        );\n        require(\n            swaps[swapId].refunded == false,\n            \"refundable: already refunded\"\n        );\n        require(\n            swaps[swapId].withdrawn == false,\n            \"refundable: already withdrawn\"\n        );\n        require(\n            swaps[swapId].endtime <= block.timestamp,\n            \"refundable: endtime not yet passed\"\n        );\n        _;\n    }\n\n    modifier isSwapExists(bytes32 swapId) {\n        require(\n            haveSwap(swapId),\n            \"swap does not exist\"\n        );\n        _;\n    }\n\n    function fund(\n        address fromToken,\n        string memory toToken,\n        string memory recipient,\n        uint256 amount,\n        uint256 nonce,\n        uint256 endtime\n    )\n        external\n        futureEndtime(endtime)\n        returns (bytes32 res)\n    {\n        bytes32 bridgeId = getBridgeId(fromToken, toToken);\n        if (haveBridge(bridgeId) == false) revert(\"this bridge does not exists\");\n\n        bytes32 swapId = sha256(\n            abi.encodePacked(\n                fromToken,\n                sha256(abi.encodePacked(toToken)),\n                _msgSender(),\n                sha256(abi.encodePacked(recipient)),\n                sha256(abi.encodePacked(Strings.toString(amount))),\n                sha256(abi.encodePacked(Strings.toString(nonce)))\n            )\n        );\n\n        if (haveSwap(swapId)) revert(\"this swap already exists\");\n\n        if (!IERC20(fromToken).transferFrom(_msgSender(), address(this), amount))\n            revert(\"transferFrom sender to this failed\");\n\n        swaps[swapId] = Swap(fromToken, toToken, _msgSender(), recipient, amount, nonce, endtime, false, false, \"\");\n\n        emit FundEvent(swapId, fromToken, toToken, _msgSender(), recipient, amount, nonce);\n\n        return swapId;\n    }\n\n    function fundCancel(bytes32 swapId)\n        external\n        isSwapExists(swapId)\n        refundable(swapId)\n        returns (bool)\n    {\n        Swap storage swap = swaps[swapId];\n\n        swap.refunded = true;\n        IERC20(swap.fromToken).transfer(\n            swap.sender,\n            swap.amount\n        );\n        emit FundCancelEvent(swapId);\n\n        return true;\n    }\n\n    function sign(bytes32 swapId, bytes memory signature)\n        external\n        isSwapExists(swapId)\n        withdrawable(swapId)\n    {\n        (bytes32 r, bytes32 s, uint8 v) = parseSignature(signature);\n\n        address signer = ecrecover(getUnsignedMsg(swapId), v, r, s);\n        if (signer != oracle) {\n            revert SignatureInvalidV();\n        }\n        swaps[swapId].signature = signature;\n        swaps[swapId].withdrawn = true;\n        emit SwapSigned(swapId, signature);\n    }\n\n    function haveSwap(bytes32 swapId) internal view returns (bool exists) {\n        exists = (swaps[swapId].sender != address(0));\n    }\n\n    function getSwap(bytes32 swapId)\n        public\n        view\n        returns (\n            bytes32 id,\n            address fromToken,\n            string memory toToken,\n            address sender,\n            string memory recipient,\n            uint256 amount,\n            uint256 nonce,\n            uint256 endtime,\n            bool withdrawn,\n            bool refunded,\n            bytes memory signature\n        )\n    {\n        if (haveSwap(swapId) == false)\n            return (0, address(0), \"\", address(0), \"\", 0, 0, 0, false, false, \"\");\n\n        Swap storage swap = swaps[swapId];\n\n        return (\n            swapId,\n            swap.fromToken,\n            swap.toToken,\n            swap.sender,\n            swap.recipient,\n            swap.amount,\n            swap.nonce,\n            swap.endtime,\n            swap.withdrawn,\n            swap.refunded,\n            swap.signature\n        );\n    }\n\n    function parseSignature(bytes memory _signature)\n        internal\n        pure\n        returns (\n            bytes32 r,\n            bytes32 s,\n            uint8 v\n        )\n    {\n        assembly {\n            r := mload(add(_signature, 32))\n            s := mload(add(_signature, 64))\n            v := and(mload(add(_signature, 65)), 0xff)\n        }\n\n        if (v < 27) v += 27;\n        if (v != 27 && v != 28) revert SignatureInvalidV();\n    }\n\n    function getUnsignedMsg(bytes32 data) internal pure returns (bytes32) {\n        return keccak256(abi.encodePacked(\"\\x19Ethereum Signed Message:\\n32\", data));\n    }\n\n    // oracle features\n    function setOracle(address _oracle) external onlyOwner {\n        oracle = _oracle;\n        emit NewOracleEvent(oracle);\n    }\n\n    function getOracle() public view returns(address oracleAddress) {\n        return oracle;\n    }\n\n    // bridge\n    function getBridgeId(address fromToken, string memory toToken) public pure returns (bytes32) {\n        return keccak256(abi.encodePacked(\n            fromToken,\n            toToken\n        ));\n    }\n\n    function haveBridge(bytes32 bridgeId) public view returns (bool exists) {\n        exists = (bridges[bridgeId].fromToken != address(0));\n    }\n\n    function addBridge(address fromToken, string memory toToken)\n        external\n        onlyOwner\n    {\n        bytes32 bridgeId = getBridgeId(fromToken, toToken);\n        if (haveBridge(bridgeId)) revert(\"this bridge already exists\");\n        bridges[bridgeId] = Bridge(fromToken, toToken);\n        emit NewBridge(fromToken, toToken);\n    }\n\n    function removeBridge(address fromToken, string memory toToken)\n        external\n        onlyOwner\n    {\n        bytes32 bridgeId = getBridgeId(fromToken, toToken);\n        if (haveBridge(bridgeId) == false) revert(\"this bridge does not exist\");\n        delete bridges[bridgeId];\n        emit RemoveBridge(fromToken, toToken);\n    }\n}\n",
  "sourcePath": "/Users/pomeschenkoanton/projects/nuclearswap/truffle/contracts/Gate.sol",
  "compiler": {
    "name": "solc",
    "version": "0.8.14+commit.80d49f37.Emscripten.clang"
  },
  "schemaVersion": "3.4.7",
  "updatedAt": "2022-11-20T21:10:44.749Z",
  "networkType": "ethereum",
  "devdoc": {
    "kind": "dev",
    "methods": {
      "owner()": {
        "details": "Returns the address of the current owner."
      },
      "renounceOwnership()": {
        "details": "Leaves the contract without owner. It will not be possible to call `onlyOwner` functions anymore. Can only be called by the current owner. NOTE: Renouncing ownership will leave the contract without an owner, thereby removing any functionality that is only available to the owner."
      },
      "transferOwnership(address)": {
        "details": "Transfers ownership of the contract to a new account (`newOwner`). Can only be called by the current owner."
      }
    },
    "version": 1
  },
  "userdoc": {
    "kind": "user",
    "methods": {},
    "version": 1
  }
}