{
  "contractName": "Gate",
  "abi": [
    {
      "inputs": [],
      "stateMutability": "nonpayable",
      "type": "constructor"
    },
    {
      "inputs": [],
      "name": "SignatureInvalidV",
      "type": "error"
    },
    {
      "anonymous": false,
      "inputs": [
        {
          "indexed": true,
          "internalType": "bytes32",
          "name": "swapId",
          "type": "bytes32"
        },
        {
          "indexed": false,
          "internalType": "address",
          "name": "token",
          "type": "address"
        },
        {
          "indexed": true,
          "internalType": "string",
          "name": "recipient",
          "type": "string"
        },
        {
          "indexed": true,
          "internalType": "address",
          "name": "sender",
          "type": "address"
        },
        {
          "indexed": false,
          "internalType": "uint256",
          "name": "amount",
          "type": "uint256"
        },
        {
          "indexed": false,
          "internalType": "uint256",
          "name": "nonce",
          "type": "uint256"
        }
      ],
      "name": "FundEvent",
      "type": "event"
    },
    {
      "anonymous": false,
      "inputs": [
        {
          "indexed": true,
          "internalType": "address",
          "name": "oracle",
          "type": "address"
        }
      ],
      "name": "NewOracleEvent",
      "type": "event"
    },
    {
      "anonymous": false,
      "inputs": [
        {
          "indexed": true,
          "internalType": "address",
          "name": "previousOwner",
          "type": "address"
        },
        {
          "indexed": true,
          "internalType": "address",
          "name": "newOwner",
          "type": "address"
        }
      ],
      "name": "OwnershipTransferred",
      "type": "event"
    },
    {
      "anonymous": false,
      "inputs": [
        {
          "indexed": true,
          "internalType": "bytes32",
          "name": "swapId",
          "type": "bytes32"
        },
        {
          "indexed": false,
          "internalType": "bytes",
          "name": "signature",
          "type": "bytes"
        }
      ],
      "name": "SwapSigned",
      "type": "event"
    },
    {
      "inputs": [],
      "name": "owner",
      "outputs": [
        {
          "internalType": "address",
          "name": "",
          "type": "address"
        }
      ],
      "stateMutability": "view",
      "type": "function"
    },
    {
      "inputs": [],
      "name": "renounceOwnership",
      "outputs": [],
      "stateMutability": "nonpayable",
      "type": "function"
    },
    {
      "inputs": [
        {
          "internalType": "address",
          "name": "newOwner",
          "type": "address"
        }
      ],
      "name": "transferOwnership",
      "outputs": [],
      "stateMutability": "nonpayable",
      "type": "function"
    },
    {
      "inputs": [
        {
          "internalType": "address",
          "name": "token",
          "type": "address"
        },
        {
          "internalType": "string",
          "name": "recipient",
          "type": "string"
        },
        {
          "internalType": "uint256",
          "name": "amount",
          "type": "uint256"
        },
        {
          "internalType": "uint256",
          "name": "nonce",
          "type": "uint256"
        }
      ],
      "name": "fund",
      "outputs": [
        {
          "internalType": "bytes32",
          "name": "swapId",
          "type": "bytes32"
        }
      ],
      "stateMutability": "nonpayable",
      "type": "function"
    },
    {
      "inputs": [
        {
          "internalType": "bytes32",
          "name": "swapId",
          "type": "bytes32"
        }
      ],
      "name": "getSwap",
      "outputs": [
        {
          "internalType": "bytes32",
          "name": "id",
          "type": "bytes32"
        },
        {
          "internalType": "address",
          "name": "token",
          "type": "address"
        },
        {
          "internalType": "string",
          "name": "recipient",
          "type": "string"
        },
        {
          "internalType": "address",
          "name": "sender",
          "type": "address"
        },
        {
          "internalType": "uint256",
          "name": "amount",
          "type": "uint256"
        },
        {
          "internalType": "uint256",
          "name": "nonce",
          "type": "uint256"
        },
        {
          "internalType": "bytes",
          "name": "signature",
          "type": "bytes"
        }
      ],
      "stateMutability": "view",
      "type": "function"
    },
    {
      "inputs": [
        {
          "internalType": "bytes32",
          "name": "swapId",
          "type": "bytes32"
        },
        {
          "internalType": "bytes",
          "name": "signature",
          "type": "bytes"
        }
      ],
      "name": "sign",
      "outputs": [],
      "stateMutability": "nonpayable",
      "type": "function"
    },
    {
      "inputs": [
        {
          "internalType": "address",
          "name": "_oracle",
          "type": "address"
        }
      ],
      "name": "setOracle",
      "outputs": [],
      "stateMutability": "nonpayable",
      "type": "function"
    }
  ],
  "bytecode": "0x608060405234801561001057600080fd5b5061002d61002261003260201b60201c565b61003a60201b60201c565b6100fe565b600033905090565b60008060009054906101000a900473ffffffffffffffffffffffffffffffffffffffff169050816000806101000a81548173ffffffffffffffffffffffffffffffffffffffff021916908373ffffffffffffffffffffffffffffffffffffffff1602179055508173ffffffffffffffffffffffffffffffffffffffff168173ffffffffffffffffffffffffffffffffffffffff167f8be0079c531659141344cd1fd0a4f28419497f9722a3daafe3b4186f6b6457e060405160405180910390a35050565b6119948061010d6000396000f3fe608060405234801561001057600080fd5b506004361061007d5760003560e01c80637adbf9731161005b5780637adbf973146100de5780638da5cb5b146100fa578063e68c69dd14610118578063f2fde38b146101485761007d565b8063365e250b146100825780633da0e66e1461009e578063715018a6146100d4575b600080fd5b61009c60048036038101906100979190610edc565b610164565b005b6100b860048036038101906100b39190610f38565b6102c5565b6040516100cb97969594939291906110ab565b60405180910390f35b6100dc6104d0565b005b6100f860048036038101906100f39190611154565b6104e4565b005b610102610595565b60405161010f9190611181565b60405180910390f35b610132600480360381019061012d9190611269565b6105be565b60405161013f91906112ec565b60405180910390f35b610162600480360381019061015d9190611154565b610928565b005b6000806000610172846109ab565b9250925092506000600161018587610a3a565b838686604051600081526020016040526040516101a59493929190611323565b6020604051602081039080840390855afa1580156101c7573d6000803e3d6000fd5b505050602060405103519050600160009054906101000a900473ffffffffffffffffffffffffffffffffffffffff1673ffffffffffffffffffffffffffffffffffffffff168173ffffffffffffffffffffffffffffffffffffffff161461025a576040517f18ce829400000000000000000000000000000000000000000000000000000000815260040160405180910390fd5b84600260008881526020019081526020016000206005019080519060200190610284929190610c23565b50857fa305accbd0db7f95239b77e0d12d0bc97086c07877ef9590128956c1f9c5a8b5866040516102b59190611368565b60405180910390a2505050505050565b600080606060008060006060600015156102de89610a6a565b1515036103295760008060008060008460001b9450604051806020016040528060008152509291906040518060200160405280600081525096509650965096509650965096506104c5565b6000600260008a81526020019081526020016000209050888160000160009054906101000a900473ffffffffffffffffffffffffffffffffffffffff16826001018360020160009054906101000a900473ffffffffffffffffffffffffffffffffffffffff1684600301548560040154866005018480546103a9906113b9565b80601f01602080910402602001604051908101604052809291908181526020018280546103d5906113b9565b80156104225780601f106103f757610100808354040283529160200191610422565b820191906000526020600020905b81548152906001019060200180831161040557829003601f168201915b50505050509450808054610435906113b9565b80601f0160208091040260200160405190810160405280929190818152602001828054610461906113b9565b80156104ae5780601f10610483576101008083540402835291602001916104ae565b820191906000526020600020905b81548152906001019060200180831161049157829003601f168201915b505050505090509750975097509750975097509750505b919395979092949650565b6104d8610ad9565b6104e26000610b57565b565b6104ec610ad9565b80600160006101000a81548173ffffffffffffffffffffffffffffffffffffffff021916908373ffffffffffffffffffffffffffffffffffffffff160217905550600160009054906101000a900473ffffffffffffffffffffffffffffffffffffffff1673ffffffffffffffffffffffffffffffffffffffff167f1938167943cd56e64085b4cc277d51cc1e0255c0d17871d3b34daf97355e8ea860405160405180910390a250565b60008060009054906101000a900473ffffffffffffffffffffffffffffffffffffffff16905090565b6000600285856105cc610c1b565b86866040516020016105e295949392919061148f565b6040516020818303038152906040526040516105fe9190611526565b602060405180830381855afa15801561061b573d6000803e3d6000fd5b5050506040513d601f19601f8201168201806040525081019061063e9190611552565b905061064981610a6a565b15610689576040517f08c379a0000000000000000000000000000000000000000000000000000000008152600401610680906115cb565b60405180910390fd5b8473ffffffffffffffffffffffffffffffffffffffff166323b872dd6106ad610c1b565b30866040518463ffffffff1660e01b81526004016106cd939291906115eb565b6020604051808303816000875af11580156106ec573d6000803e3d6000fd5b505050506040513d601f19601f82011682018060405250810190610710919061165a565b61074f576040517f08c379a0000000000000000000000000000000000000000000000000000000008152600401610746906116f9565b60405180910390fd5b6040518060c001604052808673ffffffffffffffffffffffffffffffffffffffff168152602001858152602001610784610c1b565b73ffffffffffffffffffffffffffffffffffffffff168152602001848152602001838152602001604051806020016040528060008152508152506002600083815260200190815260200160002060008201518160000160006101000a81548173ffffffffffffffffffffffffffffffffffffffff021916908373ffffffffffffffffffffffffffffffffffffffff1602179055506020820151816001019080519060200190610834929190610ca9565b5060408201518160020160006101000a81548173ffffffffffffffffffffffffffffffffffffffff021916908373ffffffffffffffffffffffffffffffffffffffff160217905550606082015181600301556080820151816004015560a08201518160050190805190602001906108ac929190610c23565b509050506108b8610c1b565b73ffffffffffffffffffffffffffffffffffffffff16846040516108dc9190611719565b6040518091039020827fc189e933ff940fe4305aa190e87a06e860f658678f562bb21f79ded6ccfb58f188878760405161091893929190611730565b60405180910390a4949350505050565b610930610ad9565b600073ffffffffffffffffffffffffffffffffffffffff168173ffffffffffffffffffffffffffffffffffffffff160361099f576040517f08c379a0000000000000000000000000000000000000000000000000000000008152600401610996906117d9565b60405180910390fd5b6109a881610b57565b50565b6000806000602084015192506040840151915060ff6041850151169050601b8160ff1610156109e457601b816109e19190611828565b90505b601b8160ff16141580156109fc5750601c8160ff1614155b15610a33576040517f18ce829400000000000000000000000000000000000000000000000000000000815260040160405180910390fd5b9193909250565b600081604051602001610a4d91906118cc565b604051602081830303815290604052805190602001209050919050565b60008073ffffffffffffffffffffffffffffffffffffffff166002600084815260200190815260200160002060020160009054906101000a900473ffffffffffffffffffffffffffffffffffffffff1673ffffffffffffffffffffffffffffffffffffffff1614159050919050565b610ae1610c1b565b73ffffffffffffffffffffffffffffffffffffffff16610aff610595565b73ffffffffffffffffffffffffffffffffffffffff1614610b55576040517f08c379a0000000000000000000000000000000000000000000000000000000008152600401610b4c9061193e565b60405180910390fd5b565b60008060009054906101000a900473ffffffffffffffffffffffffffffffffffffffff169050816000806101000a81548173ffffffffffffffffffffffffffffffffffffffff021916908373ffffffffffffffffffffffffffffffffffffffff1602179055508173ffffffffffffffffffffffffffffffffffffffff168173ffffffffffffffffffffffffffffffffffffffff167f8be0079c531659141344cd1fd0a4f28419497f9722a3daafe3b4186f6b6457e060405160405180910390a35050565b600033905090565b828054610c2f906113b9565b90600052602060002090601f016020900481019282610c515760008555610c98565b82601f10610c6a57805160ff1916838001178555610c98565b82800160010185558215610c98579182015b82811115610c97578251825591602001919060010190610c7c565b5b509050610ca59190610d2f565b5090565b828054610cb5906113b9565b90600052602060002090601f016020900481019282610cd75760008555610d1e565b82601f10610cf057805160ff1916838001178555610d1e565b82800160010185558215610d1e579182015b82811115610d1d578251825591602001919060010190610d02565b5b509050610d2b9190610d2f565b5090565b5b80821115610d48576000816000905550600101610d30565b5090565b6000604051905090565b600080fd5b600080fd5b6000819050919050565b610d7381610d60565b8114610d7e57600080fd5b50565b600081359050610d9081610d6a565b92915050565b600080fd5b600080fd5b6000601f19601f8301169050919050565b7f4e487b7100000000000000000000000000000000000000000000000000000000600052604160045260246000fd5b610de982610da0565b810181811067ffffffffffffffff82111715610e0857610e07610db1565b5b80604052505050565b6000610e1b610d4c565b9050610e278282610de0565b919050565b600067ffffffffffffffff821115610e4757610e46610db1565b5b610e5082610da0565b9050602081019050919050565b82818337600083830152505050565b6000610e7f610e7a84610e2c565b610e11565b905082815260208101848484011115610e9b57610e9a610d9b565b5b610ea6848285610e5d565b509392505050565b600082601f830112610ec357610ec2610d96565b5b8135610ed3848260208601610e6c565b91505092915050565b60008060408385031215610ef357610ef2610d56565b5b6000610f0185828601610d81565b925050602083013567ffffffffffffffff811115610f2257610f21610d5b565b5b610f2e85828601610eae565b9150509250929050565b600060208284031215610f4e57610f4d610d56565b5b6000610f5c84828501610d81565b91505092915050565b610f6e81610d60565b82525050565b600073ffffffffffffffffffffffffffffffffffffffff82169050919050565b6000610f9f82610f74565b9050919050565b610faf81610f94565b82525050565b600081519050919050565b600082825260208201905092915050565b60005b83811015610fef578082015181840152602081019050610fd4565b83811115610ffe576000848401525b50505050565b600061100f82610fb5565b6110198185610fc0565b9350611029818560208601610fd1565b61103281610da0565b840191505092915050565b6000819050919050565b6110508161103d565b82525050565b600081519050919050565b600082825260208201905092915050565b600061107d82611056565b6110878185611061565b9350611097818560208601610fd1565b6110a081610da0565b840191505092915050565b600060e0820190506110c0600083018a610f65565b6110cd6020830189610fa6565b81810360408301526110df8188611004565b90506110ee6060830187610fa6565b6110fb6080830186611047565b61110860a0830185611047565b81810360c083015261111a8184611072565b905098975050505050505050565b61113181610f94565b811461113c57600080fd5b50565b60008135905061114e81611128565b92915050565b60006020828403121561116a57611169610d56565b5b60006111788482850161113f565b91505092915050565b60006020820190506111966000830184610fa6565b92915050565b600067ffffffffffffffff8211156111b7576111b6610db1565b5b6111c082610da0565b9050602081019050919050565b60006111e06111db8461119c565b610e11565b9050828152602081018484840111156111fc576111fb610d9b565b5b611207848285610e5d565b509392505050565b600082601f83011261122457611223610d96565b5b81356112348482602086016111cd565b91505092915050565b6112468161103d565b811461125157600080fd5b50565b6000813590506112638161123d565b92915050565b6000806000806080858703121561128357611282610d56565b5b60006112918782880161113f565b945050602085013567ffffffffffffffff8111156112b2576112b1610d5b565b5b6112be8782880161120f565b93505060406112cf87828801611254565b92505060606112e087828801611254565b91505092959194509250565b60006020820190506113016000830184610f65565b92915050565b600060ff82169050919050565b61131d81611307565b82525050565b60006080820190506113386000830187610f65565b6113456020830186611314565b6113526040830185610f65565b61135f6060830184610f65565b95945050505050565b600060208201905081810360008301526113828184611072565b905092915050565b7f4e487b7100000000000000000000000000000000000000000000000000000000600052602260045260246000fd5b600060028204905060018216806113d157607f821691505b6020821081036113e4576113e361138a565b5b50919050565b60008160601b9050919050565b6000611402826113ea565b9050919050565b6000611414826113f7565b9050919050565b61142c61142782610f94565b611409565b82525050565b600081905092915050565b600061144882610fb5565b6114528185611432565b9350611462818560208601610fd1565b80840191505092915050565b6000819050919050565b6114896114848261103d565b61146e565b82525050565b600061149b828861141b565b6014820191506114ab828761143d565b91506114b7828661141b565b6014820191506114c78285611478565b6020820191506114d78284611478565b6020820191508190509695505050505050565b600081905092915050565b600061150082611056565b61150a81856114ea565b935061151a818560208601610fd1565b80840191505092915050565b600061153282846114f5565b915081905092915050565b60008151905061154c81610d6a565b92915050565b60006020828403121561156857611567610d56565b5b60006115768482850161153d565b91505092915050565b7f74686973207377617020616c7265616479206578697374730000000000000000600082015250565b60006115b5601883610fc0565b91506115c08261157f565b602082019050919050565b600060208201905081810360008301526115e4816115a8565b9050919050565b60006060820190506116006000830186610fa6565b61160d6020830185610fa6565b61161a6040830184611047565b949350505050565b60008115159050919050565b61163781611622565b811461164257600080fd5b50565b6000815190506116548161162e565b92915050565b6000602082840312156116705761166f610d56565b5b600061167e84828501611645565b91505092915050565b7f7472616e7366657246726f6d2073656e64657220746f2074686973206661696c60008201527f6564000000000000000000000000000000000000000000000000000000000000602082015250565b60006116e3602283610fc0565b91506116ee82611687565b604082019050919050565b60006020820190508181036000830152611712816116d6565b9050919050565b6000611725828461143d565b915081905092915050565b60006060820190506117456000830186610fa6565b6117526020830185611047565b61175f6040830184611047565b949350505050565b7f4f776e61626c653a206e6577206f776e657220697320746865207a65726f206160008201527f6464726573730000000000000000000000000000000000000000000000000000602082015250565b60006117c3602683610fc0565b91506117ce82611767565b604082019050919050565b600060208201905081810360008301526117f2816117b6565b9050919050565b7f4e487b7100000000000000000000000000000000000000000000000000000000600052601160045260246000fd5b600061183382611307565b915061183e83611307565b92508260ff03821115611854576118536117f9565b5b828201905092915050565b7f19457468657265756d205369676e6564204d6573736167653a0a333200000000600082015250565b6000611895601c83611432565b91506118a08261185f565b601c82019050919050565b6000819050919050565b6118c66118c182610d60565b6118ab565b82525050565b60006118d782611888565b91506118e382846118b5565b60208201915081905092915050565b7f4f776e61626c653a2063616c6c6572206973206e6f7420746865206f776e6572600082015250565b6000611928602083610fc0565b9150611933826118f2565b602082019050919050565b600060208201905081810360008301526119578161191b565b905091905056fea2646970667358221220465b9923bc8a4eb19a91da7f3061b954f0c9cb61154606d4ef4ecc51a4d84fd064736f6c634300080e0033",
  "immutableReferences": {},
  "source": "// SPDX-License-Identifier: AGPL-3.0\n\npragma solidity ^0.8.10;\n\nimport \"@openzeppelin/contracts/token/ERC20/IERC20.sol\";\nimport \"@openzeppelin/contracts/access/Ownable.sol\";\n\ncontract Gate is Ownable {\n    error SignatureInvalidV();\n\n    struct Swap {\n        address token;\n        string recipient;\n        address sender;\n        uint256 amount;\n        uint256 nonce;\n        bytes signature;\n    }\n\n    event FundEvent(\n        bytes32 indexed swapId,\n        address token,\n        string indexed recipient,\n        address indexed sender,\n        uint256 amount,\n        uint256 nonce\n    );\n\n    event NewOracleEvent(address indexed oracle);\n    event SwapSigned(\n        bytes32 indexed swapId,\n        bytes signature\n    );\n\n    address oracle;\n\n    mapping(bytes32 => Swap) swaps;\n\n    constructor() {}\n\n    function fund(\n        address token,\n        string memory recipient,\n        uint256 amount,\n        uint256 nonce\n    ) external returns (bytes32 swapId) {\n        swapId = sha256(\n            abi.encodePacked(token, recipient, _msgSender(), amount, nonce)\n        );\n\n        if (haveSwap(swapId)) revert(\"this swap already exists\");\n\n        if (!IERC20(token).transferFrom(_msgSender(), address(this), amount))\n            revert(\"transferFrom sender to this failed\");\n\n        swaps[swapId] = Swap(token, recipient, _msgSender(), amount, nonce, \"\");\n\n        emit FundEvent(swapId, token, recipient, _msgSender(), amount, nonce);\n        return swapId;\n    }\n\n    function haveSwap(bytes32 swapId) internal view returns (bool exists) {\n        exists = (swaps[swapId].sender != address(0));\n    }\n\n    function getSwap(bytes32 swapId)\n        public\n        view\n        returns (\n            bytes32 id,\n            address token,\n            string memory recipient,\n            address sender,\n            uint256 amount,\n            uint256 nonce,\n            bytes memory signature\n        )\n    {\n        if (haveSwap(swapId) == false)\n            return (0, address(0), \"\", address(0), 0, 0, \"\");\n\n        Swap storage swap = swaps[swapId];\n\n        return (\n            swapId,\n            swap.token,\n            swap.recipient,\n            swap.sender,\n            swap.amount,\n            swap.nonce,\n            swap.signature\n        );\n    }\n\n    function parseSignature(bytes memory _signature)\n        internal\n        pure\n        returns (\n            bytes32 r,\n            bytes32 s,\n            uint8 v\n        )\n    {\n        assembly {\n            r := mload(add(_signature, 32))\n            s := mload(add(_signature, 64))\n            v := and(mload(add(_signature, 65)), 0xff)\n        }\n\n        if (v < 27) v += 27;\n        if (v != 27 && v != 28) revert SignatureInvalidV();\n    }\n\n    function sign(bytes32 swapId, bytes memory signature) external {\n        (bytes32 r, bytes32 s, uint8 v) = parseSignature(signature);\n        address signer = ecrecover(getUnsignedMsg(swapId), v, r, s);\n        if (signer != oracle) {\n            revert SignatureInvalidV();\n        }\n        swaps[swapId].signature = signature;\n        emit SwapSigned(swapId, signature);\n    }\n\n    function getUnsignedMsg(bytes32 swapId) internal pure returns (bytes32) {\n        return keccak256(abi.encodePacked(\"\\x19Ethereum Signed Message:\\n32\", swapId));\n    }\n\n    function setOracle(address _oracle) external onlyOwner {\n        oracle = _oracle;\n        emit NewOracleEvent(oracle);\n    }\n}\n",
  "sourcePath": "/Users/pomeschenkoanton/projects/nuclearswap/truffle/contracts/gate.sol",
  "compiler": {
    "name": "solc",
    "version": "0.8.14+commit.80d49f37.Emscripten.clang"
  },
  "schemaVersion": "3.4.7",
  "updatedAt": "2022-11-06T09:50:47.614Z",
  "devdoc": {
    "kind": "dev",
    "methods": {
      "owner()": {
        "details": "Returns the address of the current owner."
      },
      "renounceOwnership()": {
        "details": "Leaves the contract without owner. It will not be possible to call `onlyOwner` functions anymore. Can only be called by the current owner. NOTE: Renouncing ownership will leave the contract without an owner, thereby removing any functionality that is only available to the owner."
      },
      "transferOwnership(address)": {
        "details": "Transfers ownership of the contract to a new account (`newOwner`). Can only be called by the current owner."
      }
    },
    "version": 1
  },
  "userdoc": {
    "kind": "user",
    "methods": {},
    "version": 1
  }
}