{
  "contractName": "Gate",
  "abi": [
    {
      "inputs": [
        {
          "internalType": "address",
          "name": "_oracle",
          "type": "address"
        }
      ],
      "stateMutability": "nonpayable",
      "type": "constructor"
    },
    {
      "inputs": [],
      "name": "SignatureInvalidV",
      "type": "error"
    },
    {
      "anonymous": false,
      "inputs": [
        {
          "indexed": true,
          "internalType": "bytes32",
          "name": "swapId",
          "type": "bytes32"
        }
      ],
      "name": "FundCancelEvent",
      "type": "event"
    },
    {
      "anonymous": false,
      "inputs": [
        {
          "indexed": true,
          "internalType": "bytes32",
          "name": "swapId",
          "type": "bytes32"
        },
        {
          "indexed": false,
          "internalType": "address",
          "name": "fromToken",
          "type": "address"
        },
        {
          "indexed": false,
          "internalType": "string",
          "name": "toToken",
          "type": "string"
        },
        {
          "indexed": true,
          "internalType": "address",
          "name": "sender",
          "type": "address"
        },
        {
          "indexed": true,
          "internalType": "string",
          "name": "recipient",
          "type": "string"
        },
        {
          "indexed": false,
          "internalType": "uint256",
          "name": "amount",
          "type": "uint256"
        },
        {
          "indexed": false,
          "internalType": "uint256",
          "name": "nonce",
          "type": "uint256"
        }
      ],
      "name": "FundEvent",
      "type": "event"
    },
    {
      "anonymous": false,
      "inputs": [
        {
          "indexed": false,
          "internalType": "address",
          "name": "fromToken",
          "type": "address"
        },
        {
          "indexed": false,
          "internalType": "string",
          "name": "toToken",
          "type": "string"
        }
      ],
      "name": "NewBridge",
      "type": "event"
    },
    {
      "anonymous": false,
      "inputs": [
        {
          "indexed": true,
          "internalType": "address",
          "name": "oracle",
          "type": "address"
        }
      ],
      "name": "NewOracleEvent",
      "type": "event"
    },
    {
      "anonymous": false,
      "inputs": [
        {
          "indexed": true,
          "internalType": "address",
          "name": "previousOwner",
          "type": "address"
        },
        {
          "indexed": true,
          "internalType": "address",
          "name": "newOwner",
          "type": "address"
        }
      ],
      "name": "OwnershipTransferred",
      "type": "event"
    },
    {
      "anonymous": false,
      "inputs": [
        {
          "indexed": false,
          "internalType": "address",
          "name": "fromToken",
          "type": "address"
        },
        {
          "indexed": false,
          "internalType": "string",
          "name": "toToken",
          "type": "string"
        }
      ],
      "name": "RemoveBridge",
      "type": "event"
    },
    {
      "anonymous": false,
      "inputs": [
        {
          "indexed": true,
          "internalType": "bytes32",
          "name": "swapId",
          "type": "bytes32"
        }
      ],
      "name": "SwapClaimed",
      "type": "event"
    },
    {
      "anonymous": false,
      "inputs": [
        {
          "indexed": true,
          "internalType": "bytes32",
          "name": "swapId",
          "type": "bytes32"
        },
        {
          "indexed": false,
          "internalType": "bytes",
          "name": "signature",
          "type": "bytes"
        }
      ],
      "name": "SwapSigned",
      "type": "event"
    },
    {
      "inputs": [],
      "name": "owner",
      "outputs": [
        {
          "internalType": "address",
          "name": "",
          "type": "address"
        }
      ],
      "stateMutability": "view",
      "type": "function",
      "constant": true
    },
    {
      "inputs": [],
      "name": "renounceOwnership",
      "outputs": [],
      "stateMutability": "nonpayable",
      "type": "function"
    },
    {
      "inputs": [
        {
          "internalType": "address",
          "name": "newOwner",
          "type": "address"
        }
      ],
      "name": "transferOwnership",
      "outputs": [],
      "stateMutability": "nonpayable",
      "type": "function"
    },
    {
      "inputs": [
        {
          "internalType": "address",
          "name": "fromToken",
          "type": "address"
        },
        {
          "internalType": "string",
          "name": "toToken",
          "type": "string"
        },
        {
          "internalType": "string",
          "name": "recipient",
          "type": "string"
        },
        {
          "internalType": "uint256",
          "name": "amount",
          "type": "uint256"
        },
        {
          "internalType": "uint256",
          "name": "nonce",
          "type": "uint256"
        },
        {
          "internalType": "uint256",
          "name": "endtime",
          "type": "uint256"
        }
      ],
      "name": "fund",
      "outputs": [
        {
          "internalType": "bytes32",
          "name": "res",
          "type": "bytes32"
        }
      ],
      "stateMutability": "nonpayable",
      "type": "function"
    },
    {
      "inputs": [
        {
          "internalType": "bytes32",
          "name": "swapId",
          "type": "bytes32"
        }
      ],
      "name": "fundCancel",
      "outputs": [
        {
          "internalType": "bool",
          "name": "",
          "type": "bool"
        }
      ],
      "stateMutability": "nonpayable",
      "type": "function"
    },
    {
      "inputs": [
        {
          "internalType": "bytes32",
          "name": "swapId",
          "type": "bytes32"
        },
        {
          "internalType": "bytes",
          "name": "signature",
          "type": "bytes"
        }
      ],
      "name": "sign",
      "outputs": [],
      "stateMutability": "nonpayable",
      "type": "function"
    },
    {
      "inputs": [
        {
          "internalType": "bytes32",
          "name": "swapId",
          "type": "bytes32"
        }
      ],
      "name": "getSwap",
      "outputs": [
        {
          "internalType": "bytes32",
          "name": "id",
          "type": "bytes32"
        },
        {
          "internalType": "address",
          "name": "fromToken",
          "type": "address"
        },
        {
          "internalType": "string",
          "name": "toToken",
          "type": "string"
        },
        {
          "internalType": "address",
          "name": "sender",
          "type": "address"
        },
        {
          "internalType": "string",
          "name": "recipient",
          "type": "string"
        },
        {
          "internalType": "uint256",
          "name": "amount",
          "type": "uint256"
        },
        {
          "internalType": "uint256",
          "name": "nonce",
          "type": "uint256"
        },
        {
          "internalType": "uint256",
          "name": "endtime",
          "type": "uint256"
        },
        {
          "internalType": "bool",
          "name": "withdrawn",
          "type": "bool"
        },
        {
          "internalType": "bool",
          "name": "refunded",
          "type": "bool"
        },
        {
          "internalType": "bytes",
          "name": "signature",
          "type": "bytes"
        }
      ],
      "stateMutability": "view",
      "type": "function",
      "constant": true
    },
    {
      "inputs": [
        {
          "internalType": "address",
          "name": "_oracle",
          "type": "address"
        }
      ],
      "name": "setOracle",
      "outputs": [],
      "stateMutability": "nonpayable",
      "type": "function"
    },
    {
      "inputs": [],
      "name": "getOracle",
      "outputs": [
        {
          "internalType": "address",
          "name": "oracleAddress",
          "type": "address"
        }
      ],
      "stateMutability": "view",
      "type": "function",
      "constant": true
    },
    {
      "inputs": [
        {
          "internalType": "address",
          "name": "fromToken",
          "type": "address"
        },
        {
          "internalType": "string",
          "name": "toToken",
          "type": "string"
        }
      ],
      "name": "getBridgeId",
      "outputs": [
        {
          "internalType": "bytes32",
          "name": "",
          "type": "bytes32"
        }
      ],
      "stateMutability": "pure",
      "type": "function",
      "constant": true
    },
    {
      "inputs": [
        {
          "internalType": "bytes32",
          "name": "bridgeId",
          "type": "bytes32"
        }
      ],
      "name": "haveBridge",
      "outputs": [
        {
          "internalType": "bool",
          "name": "exists",
          "type": "bool"
        }
      ],
      "stateMutability": "view",
      "type": "function",
      "constant": true
    },
    {
      "inputs": [
        {
          "internalType": "address",
          "name": "fromToken",
          "type": "address"
        },
        {
          "internalType": "string",
          "name": "toToken",
          "type": "string"
        }
      ],
      "name": "addBridge",
      "outputs": [],
      "stateMutability": "nonpayable",
      "type": "function"
    },
    {
      "inputs": [
        {
          "internalType": "address",
          "name": "fromToken",
          "type": "address"
        },
        {
          "internalType": "string",
          "name": "toToken",
          "type": "string"
        }
      ],
      "name": "removeBridge",
      "outputs": [],
      "stateMutability": "nonpayable",
      "type": "function"
    },
    {
      "inputs": [
        {
          "internalType": "bytes32",
          "name": "swapId",
          "type": "bytes32"
        },
        {
          "internalType": "string",
          "name": "fromToken",
          "type": "string"
        },
        {
          "internalType": "address",
          "name": "toToken",
          "type": "address"
        },
        {
          "internalType": "string",
          "name": "sender",
          "type": "string"
        },
        {
          "internalType": "address",
          "name": "recipient",
          "type": "address"
        },
        {
          "internalType": "uint256",
          "name": "amount",
          "type": "uint256"
        },
        {
          "internalType": "uint256",
          "name": "nonce",
          "type": "uint256"
        },
        {
          "internalType": "bytes",
          "name": "signature",
          "type": "bytes"
        }
      ],
      "name": "claim",
      "outputs": [],
      "stateMutability": "nonpayable",
      "type": "function"
    }
  ],
  "bytecode": "0x60806040523480156200001157600080fd5b5060405162003a2638038062003a268339818101604052810190620000379190620001d5565b620000576200004b6200009f60201b60201c565b620000a760201b60201c565b80600160006101000a81548173ffffffffffffffffffffffffffffffffffffffff021916908373ffffffffffffffffffffffffffffffffffffffff1602179055505062000207565b600033905090565b60008060009054906101000a900473ffffffffffffffffffffffffffffffffffffffff169050816000806101000a81548173ffffffffffffffffffffffffffffffffffffffff021916908373ffffffffffffffffffffffffffffffffffffffff1602179055508173ffffffffffffffffffffffffffffffffffffffff168173ffffffffffffffffffffffffffffffffffffffff167f8be0079c531659141344cd1fd0a4f28419497f9722a3daafe3b4186f6b6457e060405160405180910390a35050565b600080fd5b600073ffffffffffffffffffffffffffffffffffffffff82169050919050565b60006200019d8262000170565b9050919050565b620001af8162000190565b8114620001bb57600080fd5b50565b600081519050620001cf81620001a4565b92915050565b600060208284031215620001ee57620001ed6200016b565b5b6000620001fe84828501620001be565b91505092915050565b61380f80620002176000396000f3fe608060405234801561001057600080fd5b50600436106100ea5760003560e01c8063715018a61161008c5780638da5cb5b116100665780638da5cb5b1461026557806390ede8fa146102835780639d7da5481461029f578063f2fde38b146102bb576100ea565b8063715018a6146102215780637adbf9731461022b578063833b1fce14610247576100ea565b8063365e250b116100c8578063365e250b1461016b5780633da0e66e146101875780633dc32283146101c15780636948966f146101f1576100ea565b806302e3120d146100ef5780632b69f0131461010b5780633265d0bd1461013b575b600080fd5b610109600480360381019061010491906122aa565b6102d7565b005b610125600480360381019061012091906122aa565b610419565b604051610132919061231f565b60405180910390f35b61015560048036038101906101509190612366565b61044c565b60405161016291906123ae565b60405180910390f35b6101856004803603810190610180919061246a565b6107a8565b005b6101a1600480360381019061019c9190612366565b610a58565b6040516101b89b9a999897969594939291906125cb565b60405180910390f35b6101db60048036038101906101d691906126b7565b610d53565b6040516101e8919061231f565b60405180910390f35b61020b60048036038101906102069190612366565b6113bb565b60405161021891906123ae565b60405180910390f35b61022961142a565b005b6102456004803603810190610240919061277c565b61143e565b005b61024f6114ef565b60405161025c91906127a9565b60405180910390f35b61026d611519565b60405161027a91906127a9565b60405180910390f35b61029d600480360381019061029891906122aa565b611542565b005b6102b960048036038101906102b491906127c4565b611632565b005b6102d560048036038101906102d0919061277c565b611b2e565b005b6102df611bb1565b60006102eb8383610419565b90506102f6816113bb565b15610336576040517f08c379a000000000000000000000000000000000000000000000000000000000815260040161032d9061291a565b60405180910390fd5b60405180604001604052808473ffffffffffffffffffffffffffffffffffffffff168152602001838152506003600083815260200190815260200160002060008201518160000160006101000a81548173ffffffffffffffffffffffffffffffffffffffff021916908373ffffffffffffffffffffffffffffffffffffffff16021790555060208201518160010190805190602001906103d7929190611f89565b509050507f1af0ca75b5bcb5145630f83522dda2755a9ea333671a789e871b4a23e57a76da838360405161040c92919061293a565b60405180910390a1505050565b6000828260405160200161042e9291906129ee565b60405160208183030381529060405280519060200120905092915050565b60008161045881611c2f565b610497576040517f08c379a000000000000000000000000000000000000000000000000000000000815260040161048e90612a62565b60405180910390fd5b826104a0611c9e565b73ffffffffffffffffffffffffffffffffffffffff166002600083815260200190815260200160002060020160009054906101000a900473ffffffffffffffffffffffffffffffffffffffff1673ffffffffffffffffffffffffffffffffffffffff1614610543576040517f08c379a000000000000000000000000000000000000000000000000000000000815260040161053a90612ace565b60405180910390fd5b600015156002600083815260200190815260200160002060070160019054906101000a900460ff161515146105ad576040517f08c379a00000000000000000000000000000000000000000000000000000000081526004016105a490612b3a565b60405180910390fd5b600015156002600083815260200190815260200160002060070160009054906101000a900460ff16151514610617576040517f08c379a000000000000000000000000000000000000000000000000000000000815260040161060e90612ba6565b60405180910390fd5b4260026000838152602001908152602001600020600601541115610670576040517f08c379a000000000000000000000000000000000000000000000000000000000815260040161066790612c38565b60405180910390fd5b600060026000868152602001908152602001600020905060018160070160016101000a81548160ff0219169083151502179055508060000160009054906101000a900473ffffffffffffffffffffffffffffffffffffffff1673ffffffffffffffffffffffffffffffffffffffff1663a9059cbb8260020160009054906101000a900473ffffffffffffffffffffffffffffffffffffffff1683600401546040518363ffffffff1660e01b815260040161072b929190612c58565b6020604051808303816000875af115801561074a573d6000803e3d6000fd5b505050506040513d601f19601f8201168201806040525081019061076e9190612cad565b50847f6c0e214651db8d44150ff205e8e05c4ca8dc0bd059e8e78d18f683d0c6205d1d60405160405180910390a260019350505050919050565b816107b281611c2f565b6107f1576040517f08c379a00000000000000000000000000000000000000000000000000000000081526004016107e890612a62565b60405180910390fd5b82600015156002600083815260200190815260200160002060070160009054906101000a900460ff1615151461085c576040517f08c379a000000000000000000000000000000000000000000000000000000000815260040161085390612d26565b60405180910390fd5b600015156002600083815260200190815260200160002060070160019054906101000a900460ff161515146108c6576040517f08c379a00000000000000000000000000000000000000000000000000000000081526004016108bd90612d92565b60405180910390fd5b60008060006108d486611ca6565b925092509250600060016108e789611d35565b838686604051600081526020016040526040516109079493929190612dce565b6020604051602081039080840390855afa158015610929573d6000803e3d6000fd5b505050602060405103519050600160009054906101000a900473ffffffffffffffffffffffffffffffffffffffff1673ffffffffffffffffffffffffffffffffffffffff168173ffffffffffffffffffffffffffffffffffffffff16146109bc576040517f18ce829400000000000000000000000000000000000000000000000000000000815260040160405180910390fd5b86600260008a815260200190815260200160002060080190805190602001906109e692919061200f565b506001600260008a815260200190815260200160002060070160006101000a81548160ff021916908315150217905550877fa305accbd0db7f95239b77e0d12d0bc97086c07877ef9590128956c1f9c5a8b588604051610a469190612e13565b60405180910390a25050505050505050565b6000806060600060606000806000806000606060001515610a788d611c2f565b151503610ae7576000806000806000806000808760001b975060405180602001604052806000815250959493929190604051806020016040528060008152509493929190604051806020016040528060008152509a509a509a509a509a509a509a509a509a509a509a50610d44565b6000600260008e815260200190815260200160002090508c8160000160009054906101000a900473ffffffffffffffffffffffffffffffffffffffff16826001018360020160009054906101000a900473ffffffffffffffffffffffffffffffffffffffff16846003018560040154866005015487600601548860070160009054906101000a900460ff168960070160019054906101000a900460ff168a600801888054610b9490612e64565b80601f0160208091040260200160405190810160405280929190818152602001828054610bc090612e64565b8015610c0d5780601f10610be257610100808354040283529160200191610c0d565b820191906000526020600020905b815481529060010190602001808311610bf057829003601f168201915b50505050509850868054610c2090612e64565b80601f0160208091040260200160405190810160405280929190818152602001828054610c4c90612e64565b8015610c995780601f10610c6e57610100808354040283529160200191610c99565b820191906000526020600020905b815481529060010190602001808311610c7c57829003601f168201915b50505050509650808054610cac90612e64565b80601f0160208091040260200160405190810160405280929190818152602001828054610cd890612e64565b8015610d255780601f10610cfa57610100808354040283529160200191610d25565b820191906000526020600020905b815481529060010190602001808311610d0857829003601f168201915b505050505090509b509b509b509b509b509b509b509b509b509b509b50505b91939597999b90929496989a50565b600081428111610d98576040517f08c379a0000000000000000000000000000000000000000000000000000000008152600401610d8f90612f07565b60405180910390fd5b6000610da48989610419565b905060001515610db3826113bb565b151503610df5576040517f08c379a0000000000000000000000000000000000000000000000000000000008152600401610dec90612f73565b60405180910390fd5b600060028a60028b604051602001610e0d9190612f93565b604051602081830303815290604052604051610e299190612fe6565b602060405180830381855afa158015610e46573d6000803e3d6000fd5b5050506040513d601f19601f82011682018060405250810190610e699190613012565b610e71611c9e565b60028c604051602001610e849190612f93565b604051602081830303815290604052604051610ea09190612fe6565b602060405180830381855afa158015610ebd573d6000803e3d6000fd5b5050506040513d601f19601f82011682018060405250810190610ee09190613012565b6002610eeb8d611d65565b604051602001610efb9190612f93565b604051602081830303815290604052604051610f179190612fe6565b602060405180830381855afa158015610f34573d6000803e3d6000fd5b5050506040513d601f19601f82011682018060405250810190610f579190613012565b6002610f628d611d65565b604051602001610f729190612f93565b604051602081830303815290604052604051610f8e9190612fe6565b602060405180830381855afa158015610fab573d6000803e3d6000fd5b5050506040513d601f19601f82011682018060405250810190610fce9190613012565b604051602001610fe396959493929190613060565b604051602081830303815290604052604051610fff9190612fe6565b602060405180830381855afa15801561101c573d6000803e3d6000fd5b5050506040513d601f19601f8201168201806040525081019061103f9190613012565b905061104a81611c2f565b1561108a576040517f08c379a00000000000000000000000000000000000000000000000000000000081526004016110819061311c565b60405180910390fd5b8973ffffffffffffffffffffffffffffffffffffffff166323b872dd6110ae611c9e565b308a6040518463ffffffff1660e01b81526004016110ce9392919061313c565b6020604051808303816000875af11580156110ed573d6000803e3d6000fd5b505050506040513d601f19601f820116820180604052508101906111119190612cad565b611150576040517f08c379a0000000000000000000000000000000000000000000000000000000008152600401611147906131e5565b60405180910390fd5b6040518061014001604052808b73ffffffffffffffffffffffffffffffffffffffff1681526020018a8152602001611186611c9e565b73ffffffffffffffffffffffffffffffffffffffff168152602001898152602001888152602001878152602001868152602001600015158152602001600015158152602001604051806020016040528060008152508152506002600083815260200190815260200160002060008201518160000160006101000a81548173ffffffffffffffffffffffffffffffffffffffff021916908373ffffffffffffffffffffffffffffffffffffffff1602179055506020820151816001019080519060200190611254929190611f89565b5060408201518160020160006101000a81548173ffffffffffffffffffffffffffffffffffffffff021916908373ffffffffffffffffffffffffffffffffffffffff16021790555060608201518160030190805190602001906112b8929190611f89565b506080820151816004015560a0820151816005015560c0820151816006015560e08201518160070160006101000a81548160ff0219169083151502179055506101008201518160070160016101000a81548160ff02191690831515021790555061012082015181600801908051906020019061133592919061200f565b50905050876040516113479190612f93565b6040518091039020611357611c9e565b73ffffffffffffffffffffffffffffffffffffffff16827f8509d4a87aad586eb0290d532f65131b8872bf63168b88dad5f48171956a693e8d8d8c8c6040516113a39493929190613205565b60405180910390a48093505050509695505050505050565b60008073ffffffffffffffffffffffffffffffffffffffff166003600084815260200190815260200160002060000160009054906101000a900473ffffffffffffffffffffffffffffffffffffffff1673ffffffffffffffffffffffffffffffffffffffff1614159050919050565b611432611bb1565b61143c6000611ec5565b565b611446611bb1565b80600160006101000a81548173ffffffffffffffffffffffffffffffffffffffff021916908373ffffffffffffffffffffffffffffffffffffffff160217905550600160009054906101000a900473ffffffffffffffffffffffffffffffffffffffff1673ffffffffffffffffffffffffffffffffffffffff167f1938167943cd56e64085b4cc277d51cc1e0255c0d17871d3b34daf97355e8ea860405160405180910390a250565b6000600160009054906101000a900473ffffffffffffffffffffffffffffffffffffffff16905090565b60008060009054906101000a900473ffffffffffffffffffffffffffffffffffffffff16905090565b61154a611bb1565b60006115568383610419565b905060001515611565826113bb565b1515036115a7576040517f08c379a000000000000000000000000000000000000000000000000000000000815260040161159e9061329d565b60405180910390fd5b60036000828152602001908152602001600020600080820160006101000a81549073ffffffffffffffffffffffffffffffffffffffff02191690556001820160006115f29190612095565b50507fd0c88b2b7e8320eb04428ab66ea6c686a3854b550557daae14605d7eeb82c3ed838360405161162592919061293a565b60405180910390a1505050565b6004600089815260200190815260200160002060009054906101000a900460ff1615611693576040517f08c379a000000000000000000000000000000000000000000000000000000000815260040161168a90613309565b60405180910390fd5b6000600280896040516020016116a99190612f93565b6040516020818303038152906040526040516116c59190612fe6565b602060405180830381855afa1580156116e2573d6000803e3d6000fd5b5050506040513d601f19601f820116820180604052508101906117059190613012565b886002896040516020016117199190612f93565b6040516020818303038152906040526040516117359190612fe6565b602060405180830381855afa158015611752573d6000803e3d6000fd5b5050506040513d601f19601f820116820180604052508101906117759190613012565b8860026117818a611d65565b6040516020016117919190612f93565b6040516020818303038152906040526040516117ad9190612fe6565b602060405180830381855afa1580156117ca573d6000803e3d6000fd5b5050506040513d601f19601f820116820180604052508101906117ed9190613012565b60026117f88a611d65565b6040516020016118089190612f93565b6040516020818303038152906040526040516118249190612fe6565b602060405180830381855afa158015611841573d6000803e3d6000fd5b5050506040513d601f19601f820116820180604052508101906118649190613012565b60405160200161187996959493929190613329565b6040516020818303038152906040526040516118959190612fe6565b602060405180830381855afa1580156118b2573d6000803e3d6000fd5b5050506040513d601f19601f820116820180604052508101906118d59190613012565b9050888114611919576040517f08c379a0000000000000000000000000000000000000000000000000000000008152600401611910906133e5565b60405180910390fd5b600080600061192785611ca6565b925092509250600160009054906101000a900473ffffffffffffffffffffffffffffffffffffffff1673ffffffffffffffffffffffffffffffffffffffff1660016119718e611d35565b838686604051600081526020016040526040516119919493929190612dce565b6020604051602081039080840390855afa1580156119b3573d6000803e3d6000fd5b5050506020604051035173ffffffffffffffffffffffffffffffffffffffff1614611a0a576040517f18ce829400000000000000000000000000000000000000000000000000000000815260040160405180910390fd5b8973ffffffffffffffffffffffffffffffffffffffff1663a9059cbb89896040518363ffffffff1660e01b8152600401611a45929190612c58565b6020604051808303816000875af1158015611a64573d6000803e3d6000fd5b505050506040513d601f19601f82011682018060405250810190611a889190612cad565b611ac7576040517f08c379a0000000000000000000000000000000000000000000000000000000008152600401611abe90613451565b60405180910390fd5b6001600460008e815260200190815260200160002060006101000a81548160ff0219169083151502179055508b7fec3ecfa3b843753557aee45b07de8193a1a8f21aa826f5e8bb56fe1f9f5bab1d60405160405180910390a2505050505050505050505050565b611b36611bb1565b600073ffffffffffffffffffffffffffffffffffffffff168173ffffffffffffffffffffffffffffffffffffffff1603611ba5576040517f08c379a0000000000000000000000000000000000000000000000000000000008152600401611b9c906134e3565b60405180910390fd5b611bae81611ec5565b50565b611bb9611c9e565b73ffffffffffffffffffffffffffffffffffffffff16611bd7611519565b73ffffffffffffffffffffffffffffffffffffffff1614611c2d576040517f08c379a0000000000000000000000000000000000000000000000000000000008152600401611c249061354f565b60405180910390fd5b565b60008073ffffffffffffffffffffffffffffffffffffffff166002600084815260200190815260200160002060020160009054906101000a900473ffffffffffffffffffffffffffffffffffffffff1673ffffffffffffffffffffffffffffffffffffffff1614159050919050565b600033905090565b6000806000602084015192506040840151915060ff6041850151169050601b8160ff161015611cdf57601b81611cdc919061359e565b90505b601b8160ff1614158015611cf75750601c8160ff1614155b15611d2e576040517f18ce829400000000000000000000000000000000000000000000000000000000815260040160405180910390fd5b9193909250565b600081604051602001611d489190613621565b604051602081830303815290604052805190602001209050919050565b606060008203611dac576040518060400160405280600181526020017f30000000000000000000000000000000000000000000000000000000000000008152509050611ec0565b600082905060005b60008214611dde578080611dc790613647565b915050600a82611dd791906136be565b9150611db4565b60008167ffffffffffffffff811115611dfa57611df961217f565b5b6040519080825280601f01601f191660200182016040528015611e2c5781602001600182028036833780820191505090505b5090505b60008514611eb957600182611e4591906136ef565b9150600a85611e549190613723565b6030611e609190613754565b60f81b818381518110611e7657611e756137aa565b5b60200101907effffffffffffffffffffffffffffffffffffffffffffffffffffffffffffff1916908160001a905350600a85611eb291906136be565b9450611e30565b8093505050505b919050565b60008060009054906101000a900473ffffffffffffffffffffffffffffffffffffffff169050816000806101000a81548173ffffffffffffffffffffffffffffffffffffffff021916908373ffffffffffffffffffffffffffffffffffffffff1602179055508173ffffffffffffffffffffffffffffffffffffffff168173ffffffffffffffffffffffffffffffffffffffff167f8be0079c531659141344cd1fd0a4f28419497f9722a3daafe3b4186f6b6457e060405160405180910390a35050565b828054611f9590612e64565b90600052602060002090601f016020900481019282611fb75760008555611ffe565b82601f10611fd057805160ff1916838001178555611ffe565b82800160010185558215611ffe579182015b82811115611ffd578251825591602001919060010190611fe2565b5b50905061200b91906120d5565b5090565b82805461201b90612e64565b90600052602060002090601f01602090048101928261203d5760008555612084565b82601f1061205657805160ff1916838001178555612084565b82800160010185558215612084579182015b82811115612083578251825591602001919060010190612068565b5b50905061209191906120d5565b5090565b5080546120a190612e64565b6000825580601f106120b357506120d2565b601f0160209004906000526020600020908101906120d191906120d5565b5b50565b5b808211156120ee5760008160009055506001016120d6565b5090565b6000604051905090565b600080fd5b600080fd5b600073ffffffffffffffffffffffffffffffffffffffff82169050919050565b600061213182612106565b9050919050565b61214181612126565b811461214c57600080fd5b50565b60008135905061215e81612138565b92915050565b600080fd5b600080fd5b6000601f19601f8301169050919050565b7f4e487b7100000000000000000000000000000000000000000000000000000000600052604160045260246000fd5b6121b78261216e565b810181811067ffffffffffffffff821117156121d6576121d561217f565b5b80604052505050565b60006121e96120f2565b90506121f582826121ae565b919050565b600067ffffffffffffffff8211156122155761221461217f565b5b61221e8261216e565b9050602081019050919050565b82818337600083830152505050565b600061224d612248846121fa565b6121df565b90508281526020810184848401111561226957612268612169565b5b61227484828561222b565b509392505050565b600082601f83011261229157612290612164565b5b81356122a184826020860161223a565b91505092915050565b600080604083850312156122c1576122c06120fc565b5b60006122cf8582860161214f565b925050602083013567ffffffffffffffff8111156122f0576122ef612101565b5b6122fc8582860161227c565b9150509250929050565b6000819050919050565b61231981612306565b82525050565b60006020820190506123346000830184612310565b92915050565b61234381612306565b811461234e57600080fd5b50565b6000813590506123608161233a565b92915050565b60006020828403121561237c5761237b6120fc565b5b600061238a84828501612351565b91505092915050565b60008115159050919050565b6123a881612393565b82525050565b60006020820190506123c3600083018461239f565b92915050565b600067ffffffffffffffff8211156123e4576123e361217f565b5b6123ed8261216e565b9050602081019050919050565b600061240d612408846123c9565b6121df565b90508281526020810184848401111561242957612428612169565b5b61243484828561222b565b509392505050565b600082601f83011261245157612450612164565b5b81356124618482602086016123fa565b91505092915050565b60008060408385031215612481576124806120fc565b5b600061248f85828601612351565b925050602083013567ffffffffffffffff8111156124b0576124af612101565b5b6124bc8582860161243c565b9150509250929050565b6124cf81612126565b82525050565b600081519050919050565b600082825260208201905092915050565b60005b8381101561250f5780820151818401526020810190506124f4565b8381111561251e576000848401525b50505050565b600061252f826124d5565b61253981856124e0565b93506125498185602086016124f1565b6125528161216e565b840191505092915050565b6000819050919050565b6125708161255d565b82525050565b600081519050919050565b600082825260208201905092915050565b600061259d82612576565b6125a78185612581565b93506125b78185602086016124f1565b6125c08161216e565b840191505092915050565b6000610160820190506125e1600083018e612310565b6125ee602083018d6124c6565b8181036040830152612600818c612524565b905061260f606083018b6124c6565b8181036080830152612621818a612524565b905061263060a0830189612567565b61263d60c0830188612567565b61264a60e0830187612567565b61265861010083018661239f565b61266661012083018561239f565b8181036101408301526126798184612592565b90509c9b505050505050505050505050565b6126948161255d565b811461269f57600080fd5b50565b6000813590506126b18161268b565b92915050565b60008060008060008060c087890312156126d4576126d36120fc565b5b60006126e289828a0161214f565b965050602087013567ffffffffffffffff81111561270357612702612101565b5b61270f89828a0161227c565b955050604087013567ffffffffffffffff8111156127305761272f612101565b5b61273c89828a0161227c565b945050606061274d89828a016126a2565b935050608061275e89828a016126a2565b92505060a061276f89828a016126a2565b9150509295509295509295565b600060208284031215612792576127916120fc565b5b60006127a08482850161214f565b91505092915050565b60006020820190506127be60008301846124c6565b92915050565b600080600080600080600080610100898b0312156127e5576127e46120fc565b5b60006127f38b828c01612351565b985050602089013567ffffffffffffffff81111561281457612813612101565b5b6128208b828c0161227c565b97505060406128318b828c0161214f565b965050606089013567ffffffffffffffff81111561285257612851612101565b5b61285e8b828c0161227c565b955050608061286f8b828c0161214f565b94505060a06128808b828c016126a2565b93505060c06128918b828c016126a2565b92505060e089013567ffffffffffffffff8111156128b2576128b1612101565b5b6128be8b828c0161243c565b9150509295985092959890939650565b7f746869732062726964676520616c726561647920657869737473000000000000600082015250565b6000612904601a836124e0565b915061290f826128ce565b602082019050919050565b60006020820190508181036000830152612933816128f7565b9050919050565b600060408201905061294f60008301856124c6565b81810360208301526129618184612524565b90509392505050565b60008160601b9050919050565b60006129828261296a565b9050919050565b600061299482612977565b9050919050565b6129ac6129a782612126565b612989565b82525050565b600081905092915050565b60006129c8826124d5565b6129d281856129b2565b93506129e28185602086016124f1565b80840191505092915050565b60006129fa828561299b565b601482019150612a0a82846129bd565b91508190509392505050565b7f7377617020646f6573206e6f7420657869737400000000000000000000000000600082015250565b6000612a4c6013836124e0565b9150612a5782612a16565b602082019050919050565b60006020820190508181036000830152612a7b81612a3f565b9050919050565b7f726566756e6461626c653a206e6f742073656e64657200000000000000000000600082015250565b6000612ab86016836124e0565b9150612ac382612a82565b602082019050919050565b60006020820190508181036000830152612ae781612aab565b9050919050565b7f726566756e6461626c653a20616c726561647920726566756e64656400000000600082015250565b6000612b24601c836124e0565b9150612b2f82612aee565b602082019050919050565b60006020820190508181036000830152612b5381612b17565b9050919050565b7f726566756e6461626c653a20616c72656164792077697468647261776e000000600082015250565b6000612b90601d836124e0565b9150612b9b82612b5a565b602082019050919050565b60006020820190508181036000830152612bbf81612b83565b9050919050565b7f726566756e6461626c653a20656e6474696d65206e6f7420796574207061737360008201527f6564000000000000000000000000000000000000000000000000000000000000602082015250565b6000612c226022836124e0565b9150612c2d82612bc6565b604082019050919050565b60006020820190508181036000830152612c5181612c15565b9050919050565b6000604082019050612c6d60008301856124c6565b612c7a6020830184612567565b9392505050565b612c8a81612393565b8114612c9557600080fd5b50565b600081519050612ca781612c81565b92915050565b600060208284031215612cc357612cc26120fc565b5b6000612cd184828501612c98565b91505092915050565b7f776974686472617761626c653a20616c72656164792077697468647261776e00600082015250565b6000612d10601f836124e0565b9150612d1b82612cda565b602082019050919050565b60006020820190508181036000830152612d3f81612d03565b9050919050565b7f776974686472617761626c653a20616c726561647920726566756e6465640000600082015250565b6000612d7c601e836124e0565b9150612d8782612d46565b602082019050919050565b60006020820190508181036000830152612dab81612d6f565b9050919050565b600060ff82169050919050565b612dc881612db2565b82525050565b6000608082019050612de36000830187612310565b612df06020830186612dbf565b612dfd6040830185612310565b612e0a6060830184612310565b95945050505050565b60006020820190508181036000830152612e2d8184612592565b905092915050565b7f4e487b7100000000000000000000000000000000000000000000000000000000600052602260045260246000fd5b60006002820490506001821680612e7c57607f821691505b602082108103612e8f57612e8e612e35565b5b50919050565b7f656e6474696d652074696d65206d75737420626520696e20746865206675747560008201527f7265000000000000000000000000000000000000000000000000000000000000602082015250565b6000612ef16022836124e0565b9150612efc82612e95565b604082019050919050565b60006020820190508181036000830152612f2081612ee4565b9050919050565b7f746869732062726964676520646f6573206e6f74206578697374730000000000600082015250565b6000612f5d601b836124e0565b9150612f6882612f27565b602082019050919050565b60006020820190508181036000830152612f8c81612f50565b9050919050565b6000612f9f82846129bd565b915081905092915050565b600081905092915050565b6000612fc082612576565b612fca8185612faa565b9350612fda8185602086016124f1565b80840191505092915050565b6000612ff28284612fb5565b915081905092915050565b60008151905061300c8161233a565b92915050565b600060208284031215613028576130276120fc565b5b600061303684828501612ffd565b91505092915050565b6000819050919050565b61305a61305582612306565b61303f565b82525050565b600061306c828961299b565b60148201915061307c8288613049565b60208201915061308c828761299b565b60148201915061309c8286613049565b6020820191506130ac8285613049565b6020820191506130bc8284613049565b602082019150819050979650505050505050565b7f74686973207377617020616c7265616479206578697374730000000000000000600082015250565b60006131066018836124e0565b9150613111826130d0565b602082019050919050565b60006020820190508181036000830152613135816130f9565b9050919050565b600060608201905061315160008301866124c6565b61315e60208301856124c6565b61316b6040830184612567565b949350505050565b7f7472616e7366657246726f6d2073656e64657220746f2074686973206661696c60008201527f6564000000000000000000000000000000000000000000000000000000000000602082015250565b60006131cf6022836124e0565b91506131da82613173565b604082019050919050565b600060208201905081810360008301526131fe816131c2565b9050919050565b600060808201905061321a60008301876124c6565b818103602083015261322c8186612524565b905061323b6040830185612567565b6132486060830184612567565b95945050505050565b7f746869732062726964676520646f6573206e6f74206578697374000000000000600082015250565b6000613287601a836124e0565b915061329282613251565b602082019050919050565b600060208201905081810360008301526132b68161327a565b9050919050565b7f537761702073686f756c64206e6f742062652075736564000000000000000000600082015250565b60006132f36017836124e0565b91506132fe826132bd565b602082019050919050565b60006020820190508181036000830152613322816132e6565b9050919050565b60006133358289613049565b602082019150613345828861299b565b6014820191506133558287613049565b602082019150613365828661299b565b6014820191506133758285613049565b6020820191506133858284613049565b602082019150819050979650505050505050565b7f537761705f6964206973206e6f742076616c6964000000000000000000000000600082015250565b60006133cf6014836124e0565b91506133da82613399565b602082019050919050565b600060208201905081810360008301526133fe816133c2565b9050919050565b7f7472616e736665722073656e64657220746f2074686973206661696c65640000600082015250565b600061343b601e836124e0565b915061344682613405565b602082019050919050565b6000602082019050818103600083015261346a8161342e565b9050919050565b7f4f776e61626c653a206e6577206f776e657220697320746865207a65726f206160008201527f6464726573730000000000000000000000000000000000000000000000000000602082015250565b60006134cd6026836124e0565b91506134d882613471565b604082019050919050565b600060208201905081810360008301526134fc816134c0565b9050919050565b7f4f776e61626c653a2063616c6c6572206973206e6f7420746865206f776e6572600082015250565b60006135396020836124e0565b915061354482613503565b602082019050919050565b600060208201905081810360008301526135688161352c565b9050919050565b7f4e487b7100000000000000000000000000000000000000000000000000000000600052601160045260246000fd5b60006135a982612db2565b91506135b483612db2565b92508260ff038211156135ca576135c961356f565b5b828201905092915050565b7f19457468657265756d205369676e6564204d6573736167653a0a333200000000600082015250565b600061360b601c836129b2565b9150613616826135d5565b601c82019050919050565b600061362c826135fe565b91506136388284613049565b60208201915081905092915050565b60006136528261255d565b91507fffffffffffffffffffffffffffffffffffffffffffffffffffffffffffffffff82036136845761368361356f565b5b600182019050919050565b7f4e487b7100000000000000000000000000000000000000000000000000000000600052601260045260246000fd5b60006136c98261255d565b91506136d48361255d565b9250826136e4576136e361368f565b5b828204905092915050565b60006136fa8261255d565b91506137058361255d565b9250828210156137185761371761356f565b5b828203905092915050565b600061372e8261255d565b91506137398361255d565b9250826137495761374861368f565b5b828206905092915050565b600061375f8261255d565b915061376a8361255d565b9250827fffffffffffffffffffffffffffffffffffffffffffffffffffffffffffffffff0382111561379f5761379e61356f565b5b828201905092915050565b7f4e487b7100000000000000000000000000000000000000000000000000000000600052603260045260246000fdfea264697066735822122010394219140862b3655a47d49d71fceb4c9c5066bdcb916fe05844f4ab4ccee464736f6c634300080e0033",
  "immutableReferences": {},
  "source": "// SPDX-License-Identifier: AGPL-3.0\n\npragma solidity ^0.8.10;\n\nimport \"@openzeppelin/contracts/token/ERC20/IERC20.sol\";\nimport \"@openzeppelin/contracts/access/Ownable.sol\";\nimport \"@openzeppelin/contracts/utils/Strings.sol\";\n\ncontract Gate is Ownable {\n    error SignatureInvalidV();\n\n    struct Bridge {\n        address fromToken;\n        string toToken;\n    }\n\n    struct Swap {\n        address fromToken;\n        string toToken;\n        address sender;\n        string recipient;\n        uint256 amount;\n        uint256 nonce;\n        uint256 endtime;\n        bool withdrawn;\n        bool refunded;\n        bytes signature;\n    }\n\n    event FundEvent(\n        bytes32 indexed swapId,\n        address fromToken,\n        string toToken,\n        address indexed sender,\n        string indexed recipient,\n        uint256 amount,\n        uint256 nonce\n    );\n\n    event FundCancelEvent(\n        bytes32 indexed swapId\n    );\n\n    event SwapSigned(\n        bytes32 indexed swapId,\n        bytes signature\n    );\n    event SwapClaimed(bytes32 indexed swapId);\n\n    event NewBridge(\n        address fromToken,\n        string toToken\n    );\n\n    event RemoveBridge(\n        address fromToken,\n        string toToken\n    );\n\n    event NewOracleEvent(address indexed oracle);\n\n    address oracle;\n\n    mapping(bytes32 => Swap) swaps;\n    mapping(bytes32 => Bridge) bridges;\n    mapping(bytes32 => bool) usedSwaps;\n\n    constructor(address _oracle) {\n        oracle = _oracle;\n    }\n\n    modifier futureEndtime(uint256 endtime) {\n        require(\n            endtime > block.timestamp,\n            \"endtime time must be in the future\"\n        );\n        _;\n    }\n\n    modifier withdrawable(bytes32 swapId) {\n        require(\n            swaps[swapId].withdrawn == false,\n            \"withdrawable: already withdrawn\"\n        );\n        require(\n            swaps[swapId].refunded == false,\n            \"withdrawable: already refunded\"\n        );\n        _;\n    }\n\n    modifier refundable(bytes32 swapId) {\n        require(\n            swaps[swapId].sender == _msgSender(),\n            \"refundable: not sender\"\n        );\n        require(\n            swaps[swapId].refunded == false,\n            \"refundable: already refunded\"\n        );\n        require(\n            swaps[swapId].withdrawn == false,\n            \"refundable: already withdrawn\"\n        );\n        require(\n            swaps[swapId].endtime <= block.timestamp,\n            \"refundable: endtime not yet passed\"\n        );\n        _;\n    }\n\n    modifier isSwapExists(bytes32 swapId) {\n        require(\n            haveSwap(swapId),\n            \"swap does not exist\"\n        );\n        _;\n    }\n\n    function fund(\n        address fromToken,\n        string memory toToken,\n        string memory recipient,\n        uint256 amount,\n        uint256 nonce,\n        uint256 endtime\n    )\n        external\n        futureEndtime(endtime)\n        returns (bytes32 res)\n    {\n        bytes32 bridgeId = getBridgeId(fromToken, toToken);\n        if (haveBridge(bridgeId) == false) revert(\"this bridge does not exists\");\n\n        bytes32 swapId = sha256(\n            abi.encodePacked(\n                fromToken,\n                sha256(abi.encodePacked(toToken)),\n                _msgSender(),\n                sha256(abi.encodePacked(recipient)),\n                sha256(abi.encodePacked(Strings.toString(amount))),\n                sha256(abi.encodePacked(Strings.toString(nonce)))\n            )\n        );\n\n        if (haveSwap(swapId)) revert(\"this swap already exists\");\n\n        if (!IERC20(fromToken).transferFrom(_msgSender(), address(this), amount))\n            revert(\"transferFrom sender to this failed\");\n\n        swaps[swapId] = Swap(fromToken, toToken, _msgSender(), recipient, amount, nonce, endtime, false, false, \"\");\n\n        emit FundEvent(swapId, fromToken, toToken, _msgSender(), recipient, amount, nonce);\n\n        return swapId;\n    }\n\n    function fundCancel(bytes32 swapId)\n        external\n        isSwapExists(swapId)\n        refundable(swapId)\n        returns (bool)\n    {\n        Swap storage swap = swaps[swapId];\n\n        swap.refunded = true;\n        IERC20(swap.fromToken).transfer(\n            swap.sender,\n            swap.amount\n        );\n        emit FundCancelEvent(swapId);\n\n        return true;\n    }\n\n    function sign(bytes32 swapId, bytes memory signature)\n        external\n        isSwapExists(swapId)\n        withdrawable(swapId)\n    {\n        (bytes32 r, bytes32 s, uint8 v) = parseSignature(signature);\n\n        address signer = ecrecover(getUnsignedMsg(swapId), v, r, s);\n        if (signer != oracle) {\n            revert SignatureInvalidV();\n        }\n        swaps[swapId].signature = signature;\n        swaps[swapId].withdrawn = true;\n        emit SwapSigned(swapId, signature);\n    }\n\n    function haveSwap(bytes32 swapId) internal view returns (bool exists) {\n        exists = (swaps[swapId].sender != address(0));\n    }\n\n    function getSwap(bytes32 swapId)\n        public\n        view\n        returns (\n            bytes32 id,\n            address fromToken,\n            string memory toToken,\n            address sender,\n            string memory recipient,\n            uint256 amount,\n            uint256 nonce,\n            uint256 endtime,\n            bool withdrawn,\n            bool refunded,\n            bytes memory signature\n        )\n    {\n        if (haveSwap(swapId) == false)\n            return (0, address(0), \"\", address(0), \"\", 0, 0, 0, false, false, \"\");\n\n        Swap storage swap = swaps[swapId];\n\n        return (\n            swapId,\n            swap.fromToken,\n            swap.toToken,\n            swap.sender,\n            swap.recipient,\n            swap.amount,\n            swap.nonce,\n            swap.endtime,\n            swap.withdrawn,\n            swap.refunded,\n            swap.signature\n        );\n    }\n\n    function parseSignature(bytes memory _signature)\n        internal\n        pure\n        returns (\n            bytes32 r,\n            bytes32 s,\n            uint8 v\n        )\n    {\n        assembly {\n            r := mload(add(_signature, 32))\n            s := mload(add(_signature, 64))\n            v := and(mload(add(_signature, 65)), 0xff)\n        }\n\n        if (v < 27) v += 27;\n        if (v != 27 && v != 28) revert SignatureInvalidV();\n    }\n\n    function getUnsignedMsg(bytes32 data) internal pure returns (bytes32) {\n        return keccak256(abi.encodePacked(\"\\x19Ethereum Signed Message:\\n32\", data));\n    }\n\n    // oracle features\n    function setOracle(address _oracle) external onlyOwner {\n        oracle = _oracle;\n        emit NewOracleEvent(oracle);\n    }\n\n    function getOracle() public view returns(address oracleAddress) {\n        return oracle;\n    }\n\n    // bridge\n    function getBridgeId(address fromToken, string memory toToken) public pure returns (bytes32) {\n        return keccak256(abi.encodePacked(\n            fromToken,\n            toToken\n        ));\n    }\n\n    function haveBridge(bytes32 bridgeId) public view returns (bool exists) {\n        exists = (bridges[bridgeId].fromToken != address(0));\n    }\n\n    function addBridge(address fromToken, string memory toToken)\n        external\n        onlyOwner\n    {\n        bytes32 bridgeId = getBridgeId(fromToken, toToken);\n        if (haveBridge(bridgeId)) revert(\"this bridge already exists\");\n        bridges[bridgeId] = Bridge(fromToken, toToken);\n        emit NewBridge(fromToken, toToken);\n    }\n\n    function removeBridge(address fromToken, string memory toToken)\n        external\n        onlyOwner\n    {\n        bytes32 bridgeId = getBridgeId(fromToken, toToken);\n        if (haveBridge(bridgeId) == false) revert(\"this bridge does not exist\");\n        delete bridges[bridgeId];\n        emit RemoveBridge(fromToken, toToken);\n    }\n\n    function claim(\n        bytes32 swapId,\n        string memory fromToken,\n        address toToken,\n        string memory sender,\n        address recipient,\n        uint256 amount,\n        uint256 nonce,\n        bytes memory signature\n    )\n        external\n    {\n        if (usedSwaps[swapId]) {\n            revert(\"Swap should not be used\");\n        }\n\n        bytes32 correctSwapId = sha256(\n            abi.encodePacked(\n                sha256(abi.encodePacked(fromToken)),\n                toToken,\n                sha256(abi.encodePacked(sender)),\n                recipient,\n                sha256(abi.encodePacked(Strings.toString(amount))),\n                sha256(abi.encodePacked(Strings.toString(nonce)))\n            )\n        );\n\n        require(correctSwapId == swapId, \"Swap_id is not valid\");\n\n        (bytes32 r, bytes32 s, uint8 v) = parseSignature(signature);\n\n        if (ecrecover(getUnsignedMsg(swapId), v, r, s) != oracle) {\n            revert SignatureInvalidV();\n        }\n\n        if (!IERC20(toToken).transfer(recipient, amount))\n            revert(\"transfer sender to this failed\");\n\n        usedSwaps[swapId] = true;\n        emit SwapClaimed(swapId);\n    }\n}\n",
  "sourcePath": "/Users/pomeschenkoanton/projects/nuclearswap/truffle/contracts/Gate.sol",
  "compiler": {
    "name": "solc",
    "version": "0.8.14+commit.80d49f37.Emscripten.clang"
  },
  "schemaVersion": "3.4.7",
  "updatedAt": "2022-11-21T20:22:30.019Z",
  "networkType": "ethereum",
  "devdoc": {
    "kind": "dev",
    "methods": {
      "owner()": {
        "details": "Returns the address of the current owner."
      },
      "renounceOwnership()": {
        "details": "Leaves the contract without owner. It will not be possible to call `onlyOwner` functions anymore. Can only be called by the current owner. NOTE: Renouncing ownership will leave the contract without an owner, thereby removing any functionality that is only available to the owner."
      },
      "transferOwnership(address)": {
        "details": "Transfers ownership of the contract to a new account (`newOwner`). Can only be called by the current owner."
      }
    },
    "version": 1
  },
  "userdoc": {
    "kind": "user",
    "methods": {},
    "version": 1
  }
}