{
  "contractName": "HTLC_ERC20",
  "abi": [
    {
      "anonymous": false,
      "inputs": [
        {
          "indexed": true,
          "internalType": "address",
          "name": "previousOwner",
          "type": "address"
        },
        {
          "indexed": true,
          "internalType": "address",
          "name": "newOwner",
          "type": "address"
        }
      ],
      "name": "OwnershipTransferred",
      "type": "event"
    },
    {
      "anonymous": false,
      "inputs": [
        {
          "indexed": true,
          "internalType": "bytes32",
          "name": "locked_contract_id",
          "type": "bytes32"
        },
        {
          "indexed": false,
          "internalType": "address",
          "name": "token",
          "type": "address"
        },
        {
          "indexed": false,
          "internalType": "bytes32",
          "name": "secret_hash",
          "type": "bytes32"
        },
        {
          "indexed": true,
          "internalType": "address",
          "name": "recipient",
          "type": "address"
        },
        {
          "indexed": true,
          "internalType": "address",
          "name": "sender",
          "type": "address"
        },
        {
          "indexed": false,
          "internalType": "uint256",
          "name": "endtime",
          "type": "uint256"
        },
        {
          "indexed": false,
          "internalType": "uint256",
          "name": "amount",
          "type": "uint256"
        }
      ],
      "name": "log_fund",
      "type": "event"
    },
    {
      "anonymous": false,
      "inputs": [
        {
          "indexed": true,
          "internalType": "bytes32",
          "name": "locked_contract_id",
          "type": "bytes32"
        }
      ],
      "name": "log_fund_cancel",
      "type": "event"
    },
    {
      "anonymous": false,
      "inputs": [
        {
          "indexed": true,
          "internalType": "bytes32",
          "name": "locked_contract_id",
          "type": "bytes32"
        }
      ],
      "name": "log_fund_confirm",
      "type": "event"
    },
    {
      "anonymous": false,
      "inputs": [
        {
          "indexed": true,
          "internalType": "bytes32",
          "name": "locked_contract_id",
          "type": "bytes32"
        },
        {
          "indexed": false,
          "internalType": "address",
          "name": "token",
          "type": "address"
        },
        {
          "indexed": false,
          "internalType": "bytes32",
          "name": "secret_hash",
          "type": "bytes32"
        },
        {
          "indexed": true,
          "internalType": "address",
          "name": "recipient",
          "type": "address"
        },
        {
          "indexed": true,
          "internalType": "address",
          "name": "sender",
          "type": "address"
        },
        {
          "indexed": false,
          "internalType": "uint256",
          "name": "endtime",
          "type": "uint256"
        },
        {
          "indexed": false,
          "internalType": "uint256",
          "name": "amount",
          "type": "uint256"
        }
      ],
      "name": "log_withdraw",
      "type": "event"
    },
    {
      "anonymous": false,
      "inputs": [
        {
          "indexed": true,
          "internalType": "bytes32",
          "name": "locked_contract_id",
          "type": "bytes32"
        }
      ],
      "name": "log_withdraw_cancel",
      "type": "event"
    },
    {
      "anonymous": false,
      "inputs": [
        {
          "indexed": true,
          "internalType": "bytes32",
          "name": "locked_contract_id",
          "type": "bytes32"
        }
      ],
      "name": "log_withdraw_confirm",
      "type": "event"
    },
    {
      "inputs": [],
      "name": "owner",
      "outputs": [
        {
          "internalType": "address",
          "name": "",
          "type": "address"
        }
      ],
      "stateMutability": "view",
      "type": "function"
    },
    {
      "inputs": [],
      "name": "renounceOwnership",
      "outputs": [],
      "stateMutability": "nonpayable",
      "type": "function"
    },
    {
      "inputs": [
        {
          "internalType": "address",
          "name": "newOwner",
          "type": "address"
        }
      ],
      "name": "transferOwnership",
      "outputs": [],
      "stateMutability": "nonpayable",
      "type": "function"
    },
    {
      "inputs": [
        {
          "internalType": "address",
          "name": "token",
          "type": "address"
        },
        {
          "internalType": "bytes32",
          "name": "secret_hash",
          "type": "bytes32"
        },
        {
          "internalType": "address payable",
          "name": "recipient",
          "type": "address"
        },
        {
          "internalType": "address payable",
          "name": "sender",
          "type": "address"
        },
        {
          "internalType": "uint256",
          "name": "endtime",
          "type": "uint256"
        },
        {
          "internalType": "uint256",
          "name": "amount",
          "type": "uint256"
        }
      ],
      "name": "fund",
      "outputs": [
        {
          "internalType": "bytes32",
          "name": "locked_contract_id",
          "type": "bytes32"
        }
      ],
      "stateMutability": "nonpayable",
      "type": "function"
    },
    {
      "inputs": [
        {
          "internalType": "address",
          "name": "token",
          "type": "address"
        },
        {
          "internalType": "bytes32",
          "name": "secret_hash",
          "type": "bytes32"
        },
        {
          "internalType": "address payable",
          "name": "recipient",
          "type": "address"
        },
        {
          "internalType": "address payable",
          "name": "sender",
          "type": "address"
        },
        {
          "internalType": "uint256",
          "name": "endtime",
          "type": "uint256"
        },
        {
          "internalType": "uint256",
          "name": "amount",
          "type": "uint256"
        }
      ],
      "name": "withdraw",
      "outputs": [
        {
          "internalType": "bytes32",
          "name": "locked_contract_id",
          "type": "bytes32"
        }
      ],
      "stateMutability": "nonpayable",
      "type": "function"
    },
    {
      "inputs": [
        {
          "internalType": "bytes32",
          "name": "locked_contract_id",
          "type": "bytes32"
        },
        {
          "internalType": "string",
          "name": "preimage",
          "type": "string"
        }
      ],
      "name": "fund_confirm",
      "outputs": [
        {
          "internalType": "bool",
          "name": "",
          "type": "bool"
        }
      ],
      "stateMutability": "nonpayable",
      "type": "function"
    },
    {
      "inputs": [
        {
          "internalType": "bytes32",
          "name": "locked_contract_id",
          "type": "bytes32"
        },
        {
          "internalType": "string",
          "name": "preimage",
          "type": "string"
        }
      ],
      "name": "withdraw_confirm",
      "outputs": [
        {
          "internalType": "bool",
          "name": "",
          "type": "bool"
        }
      ],
      "stateMutability": "nonpayable",
      "type": "function"
    },
    {
      "inputs": [
        {
          "internalType": "bytes32",
          "name": "locked_contract_id",
          "type": "bytes32"
        }
      ],
      "name": "fund_cancel",
      "outputs": [
        {
          "internalType": "bool",
          "name": "",
          "type": "bool"
        }
      ],
      "stateMutability": "nonpayable",
      "type": "function"
    },
    {
      "inputs": [
        {
          "internalType": "bytes32",
          "name": "locked_contract_id",
          "type": "bytes32"
        }
      ],
      "name": "withdraw_cancel",
      "outputs": [
        {
          "internalType": "bool",
          "name": "",
          "type": "bool"
        }
      ],
      "stateMutability": "nonpayable",
      "type": "function"
    },
    {
      "inputs": [
        {
          "internalType": "bytes32",
          "name": "locked_contract_id",
          "type": "bytes32"
        }
      ],
      "name": "get_locked_contract",
      "outputs": [
        {
          "internalType": "bytes32",
          "name": "id",
          "type": "bytes32"
        },
        {
          "internalType": "address",
          "name": "token",
          "type": "address"
        },
        {
          "internalType": "bytes32",
          "name": "secret_hash",
          "type": "bytes32"
        },
        {
          "internalType": "address",
          "name": "recipient",
          "type": "address"
        },
        {
          "internalType": "address",
          "name": "sender",
          "type": "address"
        },
        {
          "internalType": "uint256",
          "name": "endtime",
          "type": "uint256"
        },
        {
          "internalType": "uint256",
          "name": "amount",
          "type": "uint256"
        },
        {
          "internalType": "bool",
          "name": "withdrawn",
          "type": "bool"
        },
        {
          "internalType": "bool",
          "name": "refunded",
          "type": "bool"
        },
        {
          "internalType": "string",
          "name": "preimage",
          "type": "string"
        }
      ],
      "stateMutability": "view",
      "type": "function"
    },
    {
      "inputs": [
        {
          "internalType": "address",
          "name": "sender",
          "type": "address"
        }
      ],
      "name": "get_fund_contracts",
      "outputs": [
        {
          "internalType": "bytes32[]",
          "name": "pendings",
          "type": "bytes32[]"
        }
      ],
      "stateMutability": "view",
      "type": "function"
    },
    {
      "inputs": [
        {
          "internalType": "address",
          "name": "sender",
          "type": "address"
        }
      ],
      "name": "get_withdraw_contracts",
      "outputs": [
        {
          "internalType": "bytes32[]",
          "name": "pendings",
          "type": "bytes32[]"
        }
      ],
      "stateMutability": "view",
      "type": "function"
    },
    {
      "inputs": [
        {
          "internalType": "address",
          "name": "token",
          "type": "address"
        }
      ],
      "name": "get_token_balance",
      "outputs": [
        {
          "internalType": "uint256",
          "name": "balance",
          "type": "uint256"
        }
      ],
      "stateMutability": "view",
      "type": "function"
    }
  ],
  "bytecode": "0x60806040523480156200001157600080fd5b5062000032620000266200003860201b60201c565b6200004060201b60201c565b62000104565b600033905090565b60008060009054906101000a900473ffffffffffffffffffffffffffffffffffffffff169050816000806101000a81548173ffffffffffffffffffffffffffffffffffffffff021916908373ffffffffffffffffffffffffffffffffffffffff1602179055508173ffffffffffffffffffffffffffffffffffffffff168173ffffffffffffffffffffffffffffffffffffffff167f8be0079c531659141344cd1fd0a4f28419497f9722a3daafe3b4186f6b6457e060405160405180910390a35050565b613edb80620001146000396000f3fe608060405234801561001057600080fd5b50600436106100cf5760003560e01c8063c8486bac1161008c578063d472d6bf11610066578063d472d6bf14610255578063ebfcea3714610285578063eddc1dca146102b5578063f2fde38b146102e5576100cf565b8063c8486bac146101bc578063c9a1ea43146101ec578063cfd4b66e1461021c576100cf565b806339b39faf146100d45780633a21c9f914610104578063715018a6146101345780637eb9b69e1461013e5780638da5cb5b1461016e578063adfb5ff71461018c575b600080fd5b6100ee60048036038101906100e99190612950565b610301565b6040516100fb9190612a45565b60405180910390f35b61011e60048036038101906101199190612b07565b610477565b60405161012b9190612ba3565b60405180910390f35b61013c610afe565b005b61015860048036038101906101539190612d04565b610b12565b6040516101659190612d7b565b60405180910390f35b610176610f12565b6040516101839190612da5565b60405180910390f35b6101a660048036038101906101a19190612dc0565b610f3b565b6040516101b39190612d7b565b60405180910390f35b6101d660048036038101906101d19190612950565b6112fd565b6040516101e39190612a45565b60405180910390f35b61020660048036038101906102019190612d04565b611473565b6040516102139190612d7b565b60405180910390f35b61023660048036038101906102319190612dc0565b61193e565b60405161024c9a99989796959493929190612e84565b60405180910390f35b61026f600480360381019061026a9190612950565b611b12565b60405161027c9190612f27565b60405180910390f35b61029f600480360381019061029a9190612b07565b611b5b565b6040516102ac9190612ba3565b60405180910390f35b6102cf60048036038101906102ca9190612dc0565b612173565b6040516102dc9190612d7b565b60405180910390f35b6102ff60048036038101906102fa9190612950565b61246a565b005b60606000600260008473ffffffffffffffffffffffffffffffffffffffff1673ffffffffffffffffffffffffffffffffffffffff1681526020019081526020016000208054905067ffffffffffffffff81111561036157610360612bd9565b5b60405190808252806020026020018201604052801561038f5781602001602082028036833780820191505090505b50905060005b600260008573ffffffffffffffffffffffffffffffffffffffff1673ffffffffffffffffffffffffffffffffffffffff1681526020019081526020016000208054905081101561046d57600260008573ffffffffffffffffffffffffffffffffffffffff1673ffffffffffffffffffffffffffffffffffffffff16815260200190815260200160002081815481106104305761042f612f42565b5b906000526020600020015482828151811061044e5761044d612f42565b5b602002602001018181525050808061046590612fa0565b915050610395565b5080915050919050565b6000863383600081116104bf576040517f08c379a00000000000000000000000000000000000000000000000000000000081526004016104b690613034565b60405180910390fd5b808373ffffffffffffffffffffffffffffffffffffffff1663dd62ed3e84306040518363ffffffff1660e01b81526004016104fb929190613054565b602060405180830381865afa158015610518573d6000803e3d6000fd5b505050506040513d601f19601f8201168201806040525081019061053c9190613092565b101561057d576040517f08c379a000000000000000000000000000000000000000000000000000000000815260040161057490613131565b60405180910390fd5b854281116105c0576040517f08c379a00000000000000000000000000000000000000000000000000000000081526004016105b7906131c3565b60405180910390fd5b8773ffffffffffffffffffffffffffffffffffffffff163373ffffffffffffffffffffffffffffffffffffffff161461062e576040517f08c379a000000000000000000000000000000000000000000000000000000000815260040161062590613255565b60405180910390fd5b60028b8b8b8b8b8b60405160200161064b96959493929190613328565b60405160208183030381529060405260405161066791906133df565b602060405180830381855afa158015610684573d6000803e3d6000fd5b5050506040513d601f19601f820116820180604052508101906106a7919061340b565b94506106b2856124ed565b156106f2576040517f08c379a00000000000000000000000000000000000000000000000000000000081526004016106e9906134aa565b60405180910390fd5b85600460008d73ffffffffffffffffffffffffffffffffffffffff1673ffffffffffffffffffffffffffffffffffffffff168152602001908152602001600020541015610774576040517f08c379a000000000000000000000000000000000000000000000000000000000815260040161076b9061353c565b60405180910390fd5b6040518061012001604052808c73ffffffffffffffffffffffffffffffffffffffff1681526020018b81526020018a73ffffffffffffffffffffffffffffffffffffffff1681526020018973ffffffffffffffffffffffffffffffffffffffff168152602001888152602001878152602001600015158152602001600015158152602001604051806020016040528060008152508152506001600087815260200190815260200160002060008201518160000160006101000a81548173ffffffffffffffffffffffffffffffffffffffff021916908373ffffffffffffffffffffffffffffffffffffffff1602179055506020820151816001015560408201518160020160006101000a81548173ffffffffffffffffffffffffffffffffffffffff021916908373ffffffffffffffffffffffffffffffffffffffff16021790555060608201518160030160006101000a81548173ffffffffffffffffffffffffffffffffffffffff021916908373ffffffffffffffffffffffffffffffffffffffff1602179055506080820151816004015560a0820151816005015560c08201518160060160006101000a81548160ff02191690831515021790555060e08201518160060160016101000a81548160ff02191690831515021790555061010082015181600701908051906020019061096e92919061283b565b5090505085600460008d73ffffffffffffffffffffffffffffffffffffffff1673ffffffffffffffffffffffffffffffffffffffff16815260200190815260200160002060008282546109c1919061355c565b9250508190555085600560008d73ffffffffffffffffffffffffffffffffffffffff1673ffffffffffffffffffffffffffffffffffffffff1681526020019081526020016000206000828254610a179190613590565b92505081905550600360008973ffffffffffffffffffffffffffffffffffffffff1673ffffffffffffffffffffffffffffffffffffffff1681526020019081526020016000208590806001815401808255809150506001900390600052602060002001600090919091909150558773ffffffffffffffffffffffffffffffffffffffff168973ffffffffffffffffffffffffffffffffffffffff16867ff7791a8b9c4788955be840cdd621552f6c385b5b4607809d01b5a3544330cc9d8e8e8c8c604051610ae894939291906135e6565b60405180910390a4505050509695505050505050565b610b0661255c565b610b1060006125da565b565b600082610b1e816124ed565b610b5d576040517f08c379a0000000000000000000000000000000000000000000000000000000008152600401610b549061369d565b60405180910390fd5b8383600281604051602001610b7291906136f9565b604051602081830303815290604052604051610b8e91906133df565b602060405180830381855afa158015610bab573d6000803e3d6000fd5b5050506040513d601f19601f82011682018060405250810190610bce919061340b565b600160008481526020019081526020016000206001015414610c25576040517f08c379a0000000000000000000000000000000000000000000000000000000008152600401610c1c9061375c565b60405180910390fd5b853373ffffffffffffffffffffffffffffffffffffffff166001600083815260200190815260200160002060020160009054906101000a900473ffffffffffffffffffffffffffffffffffffffff1673ffffffffffffffffffffffffffffffffffffffff1614610cca576040517f08c379a0000000000000000000000000000000000000000000000000000000008152600401610cc1906137c8565b60405180910390fd5b600015156001600083815260200190815260200160002060060160009054906101000a900460ff16151514610d34576040517f08c379a0000000000000000000000000000000000000000000000000000000008152600401610d2b90613834565b60405180910390fd5b600015156001600083815260200190815260200160002060060160019054906101000a900460ff16151514610d9e576040517f08c379a0000000000000000000000000000000000000000000000000000000008152600401610d95906138a0565b60405180910390fd5b600060016000898152602001908152602001600020905086816007019080519060200190610dcd92919061283b565b5060018160060160006101000a81548160ff0219169083151502179055508060050154600460008360000160009054906101000a900473ffffffffffffffffffffffffffffffffffffffff1673ffffffffffffffffffffffffffffffffffffffff1673ffffffffffffffffffffffffffffffffffffffff1681526020019081526020016000206000828254610e629190613590565b92505081905550610ed5600260008360030160009054906101000a900473ffffffffffffffffffffffffffffffffffffffff1673ffffffffffffffffffffffffffffffffffffffff1673ffffffffffffffffffffffffffffffffffffffff1681526020019081526020016000208961269e565b50877f8c9421530136978b379af0fbde34da9825ab4da44279acf7fe1ae5a15006fe9360405160405180910390a260019550505050505092915050565b60008060009054906101000a900473ffffffffffffffffffffffffffffffffffffffff16905090565b600081610f47816124ed565b610f86576040517f08c379a0000000000000000000000000000000000000000000000000000000008152600401610f7d9061369d565b60405180910390fd5b823373ffffffffffffffffffffffffffffffffffffffff166001600083815260200190815260200160002060030160009054906101000a900473ffffffffffffffffffffffffffffffffffffffff1673ffffffffffffffffffffffffffffffffffffffff161461102b576040517f08c379a00000000000000000000000000000000000000000000000000000000081526004016110229061390c565b60405180910390fd5b600015156001600083815260200190815260200160002060060160019054906101000a900460ff16151514611095576040517f08c379a000000000000000000000000000000000000000000000000000000000815260040161108c90613978565b60405180910390fd5b600015156001600083815260200190815260200160002060060160009054906101000a900460ff161515146110ff576040517f08c379a00000000000000000000000000000000000000000000000000000000081526004016110f6906139e4565b60405180910390fd5b4260016000838152602001908152602001600020600401541115611158576040517f08c379a000000000000000000000000000000000000000000000000000000000815260040161114f90613a76565b60405180910390fd5b600060016000868152602001908152602001600020905060018160060160016101000a81548160ff0219169083151502179055508060000160009054906101000a900473ffffffffffffffffffffffffffffffffffffffff1673ffffffffffffffffffffffffffffffffffffffff1663a9059cbb8260030160009054906101000a900473ffffffffffffffffffffffffffffffffffffffff1683600501546040518363ffffffff1660e01b8152600401611213929190613af5565b6020604051808303816000875af1158015611232573d6000803e3d6000fd5b505050506040513d601f19601f820116820180604052508101906112569190613b4a565b506112c3600260008360030160009054906101000a900473ffffffffffffffffffffffffffffffffffffffff1673ffffffffffffffffffffffffffffffffffffffff1673ffffffffffffffffffffffffffffffffffffffff1681526020019081526020016000208661269e565b50847fe5eec6e2596883f9aaffa69b4df15c3d7add1b80a094b6c41baeede73486104b60405160405180910390a260019350505050919050565b60606000600260008473ffffffffffffffffffffffffffffffffffffffff1673ffffffffffffffffffffffffffffffffffffffff1681526020019081526020016000208054905067ffffffffffffffff81111561135d5761135c612bd9565b5b60405190808252806020026020018201604052801561138b5781602001602082028036833780820191505090505b50905060005b600260008573ffffffffffffffffffffffffffffffffffffffff1673ffffffffffffffffffffffffffffffffffffffff1681526020019081526020016000208054905081101561146957600260008573ffffffffffffffffffffffffffffffffffffffff1673ffffffffffffffffffffffffffffffffffffffff168152602001908152602001600020818154811061142c5761142b612f42565b5b906000526020600020015482828151811061144a57611449612f42565b5b602002602001018181525050808061146190612fa0565b915050611391565b5080915050919050565b60008261147f816124ed565b6114be576040517f08c379a00000000000000000000000000000000000000000000000000000000081526004016114b59061369d565b60405180910390fd5b83836002816040516020016114d391906136f9565b6040516020818303038152906040526040516114ef91906133df565b602060405180830381855afa15801561150c573d6000803e3d6000fd5b5050506040513d601f19601f8201168201806040525081019061152f919061340b565b600160008481526020019081526020016000206001015414611586576040517f08c379a000000000000000000000000000000000000000000000000000000000815260040161157d9061375c565b60405180910390fd5b853373ffffffffffffffffffffffffffffffffffffffff166001600083815260200190815260200160002060020160009054906101000a900473ffffffffffffffffffffffffffffffffffffffff1673ffffffffffffffffffffffffffffffffffffffff161461162b576040517f08c379a0000000000000000000000000000000000000000000000000000000008152600401611622906137c8565b60405180910390fd5b600015156001600083815260200190815260200160002060060160009054906101000a900460ff16151514611695576040517f08c379a000000000000000000000000000000000000000000000000000000000815260040161168c90613834565b60405180910390fd5b600015156001600083815260200190815260200160002060060160019054906101000a900460ff161515146116ff576040517f08c379a00000000000000000000000000000000000000000000000000000000081526004016116f6906138a0565b60405180910390fd5b60006001600089815260200190815260200160002090508681600701908051906020019061172e92919061283b565b5060018160060160006101000a81548160ff0219169083151502179055508060000160009054906101000a900473ffffffffffffffffffffffffffffffffffffffff1673ffffffffffffffffffffffffffffffffffffffff1663a9059cbb8260020160009054906101000a900473ffffffffffffffffffffffffffffffffffffffff1683600501546040518363ffffffff1660e01b81526004016117d3929190613af5565b6020604051808303816000875af11580156117f2573d6000803e3d6000fd5b505050506040513d601f19601f820116820180604052508101906118169190613b4a565b508060050154600560008360000160009054906101000a900473ffffffffffffffffffffffffffffffffffffffff1673ffffffffffffffffffffffffffffffffffffffff1673ffffffffffffffffffffffffffffffffffffffff168152602001908152602001600020600082825461188e919061355c565b92505081905550611901600360008360030160009054906101000a900473ffffffffffffffffffffffffffffffffffffffff1673ffffffffffffffffffffffffffffffffffffffff1673ffffffffffffffffffffffffffffffffffffffff1681526020019081526020016000208961269e565b50877f8c9421530136978b379af0fbde34da9825ab4da44279acf7fe1ae5a15006fe9360405160405180910390a260019550505050505092915050565b600080600080600080600080600060606000151561195b8c6124ed565b1515036119a55760008060008060008060008060008860001b98508660001b9650604051806020016040528060008152509950995099509950995099509950995099509950611b05565b6000600160008d815260200190815260200160002090508b8160000160009054906101000a900473ffffffffffffffffffffffffffffffffffffffff1682600101548360020160009054906101000a900473ffffffffffffffffffffffffffffffffffffffff168460030160009054906101000a900473ffffffffffffffffffffffffffffffffffffffff16856004015486600501548760060160009054906101000a900460ff168860060160019054906101000a900460ff1689600701808054611a6f90613ba6565b80601f0160208091040260200160405190810160405280929190818152602001828054611a9b90613ba6565b8015611ae85780601f10611abd57610100808354040283529160200191611ae8565b820191906000526020600020905b815481529060010190602001808311611acb57829003601f168201915b505050505090509a509a509a509a509a509a509a509a509a509a50505b9193959799509193959799565b6000600460008373ffffffffffffffffffffffffffffffffffffffff1673ffffffffffffffffffffffffffffffffffffffff168152602001908152602001600020549050919050565b600086338360008111611ba3576040517f08c379a0000000000000000000000000000000000000000000000000000000008152600401611b9a90613034565b60405180910390fd5b808373ffffffffffffffffffffffffffffffffffffffff1663dd62ed3e84306040518363ffffffff1660e01b8152600401611bdf929190613054565b602060405180830381865afa158015611bfc573d6000803e3d6000fd5b505050506040513d601f19601f82011682018060405250810190611c209190613092565b1015611c61576040517f08c379a0000000000000000000000000000000000000000000000000000000008152600401611c5890613131565b60405180910390fd5b85428111611ca4576040517f08c379a0000000000000000000000000000000000000000000000000000000008152600401611c9b906131c3565b60405180910390fd5b8773ffffffffffffffffffffffffffffffffffffffff163373ffffffffffffffffffffffffffffffffffffffff1614611d12576040517f08c379a0000000000000000000000000000000000000000000000000000000008152600401611d0990613255565b60405180910390fd5b60028b8b8b8b8b8b604051602001611d2f96959493929190613328565b604051602081830303815290604052604051611d4b91906133df565b602060405180830381855afa158015611d68573d6000803e3d6000fd5b5050506040513d601f19601f82011682018060405250810190611d8b919061340b565b9450611d96856124ed565b15611dd6576040517f08c379a0000000000000000000000000000000000000000000000000000000008152600401611dcd906134aa565b60405180910390fd5b8a73ffffffffffffffffffffffffffffffffffffffff166323b872dd8930896040518463ffffffff1660e01b8152600401611e1393929190613bd7565b6020604051808303816000875af1158015611e32573d6000803e3d6000fd5b505050506040513d601f19601f82011682018060405250810190611e569190613b4a565b611e95576040517f08c379a0000000000000000000000000000000000000000000000000000000008152600401611e8c90613c80565b60405180910390fd5b6040518061012001604052808c73ffffffffffffffffffffffffffffffffffffffff1681526020018b81526020018a73ffffffffffffffffffffffffffffffffffffffff1681526020018973ffffffffffffffffffffffffffffffffffffffff168152602001888152602001878152602001600015158152602001600015158152602001604051806020016040528060008152508152506001600087815260200190815260200160002060008201518160000160006101000a81548173ffffffffffffffffffffffffffffffffffffffff021916908373ffffffffffffffffffffffffffffffffffffffff1602179055506020820151816001015560408201518160020160006101000a81548173ffffffffffffffffffffffffffffffffffffffff021916908373ffffffffffffffffffffffffffffffffffffffff16021790555060608201518160030160006101000a81548173ffffffffffffffffffffffffffffffffffffffff021916908373ffffffffffffffffffffffffffffffffffffffff1602179055506080820151816004015560a0820151816005015560c08201518160060160006101000a81548160ff02191690831515021790555060e08201518160060160016101000a81548160ff02191690831515021790555061010082015181600701908051906020019061208f92919061283b565b50905050600260008973ffffffffffffffffffffffffffffffffffffffff1673ffffffffffffffffffffffffffffffffffffffff1681526020019081526020016000208590806001815401808255809150506001900390600052602060002001600090919091909150558773ffffffffffffffffffffffffffffffffffffffff168973ffffffffffffffffffffffffffffffffffffffff16867fdeb113c37962b77726f3111a1d9f63c98c3a700416aaf4463e95f1f1f20bc8d18e8e8c8c60405161215d94939291906135e6565b60405180910390a4505050509695505050505050565b60008161217f816124ed565b6121be576040517f08c379a00000000000000000000000000000000000000000000000000000000081526004016121b59061369d565b60405180910390fd5b823373ffffffffffffffffffffffffffffffffffffffff166001600083815260200190815260200160002060030160009054906101000a900473ffffffffffffffffffffffffffffffffffffffff1673ffffffffffffffffffffffffffffffffffffffff1614612263576040517f08c379a000000000000000000000000000000000000000000000000000000000815260040161225a9061390c565b60405180910390fd5b600015156001600083815260200190815260200160002060060160019054906101000a900460ff161515146122cd576040517f08c379a00000000000000000000000000000000000000000000000000000000081526004016122c490613978565b60405180910390fd5b600015156001600083815260200190815260200160002060060160009054906101000a900460ff16151514612337576040517f08c379a000000000000000000000000000000000000000000000000000000000815260040161232e906139e4565b60405180910390fd5b4260016000838152602001908152602001600020600401541115612390576040517f08c379a000000000000000000000000000000000000000000000000000000000815260040161238790613a76565b60405180910390fd5b600060016000868152602001908152602001600020905060018160060160016101000a81548160ff021916908315150217905550612430600360008360030160009054906101000a900473ffffffffffffffffffffffffffffffffffffffff1673ffffffffffffffffffffffffffffffffffffffff1673ffffffffffffffffffffffffffffffffffffffff1681526020019081526020016000208661269e565b50847fe5eec6e2596883f9aaffa69b4df15c3d7add1b80a094b6c41baeede73486104b60405160405180910390a260019350505050919050565b61247261255c565b600073ffffffffffffffffffffffffffffffffffffffff168173ffffffffffffffffffffffffffffffffffffffff16036124e1576040517f08c379a00000000000000000000000000000000000000000000000000000000081526004016124d890613d12565b60405180910390fd5b6124ea816125da565b50565b60008073ffffffffffffffffffffffffffffffffffffffff166001600084815260200190815260200160002060030160009054906101000a900473ffffffffffffffffffffffffffffffffffffffff1673ffffffffffffffffffffffffffffffffffffffff1614159050919050565b612564612833565b73ffffffffffffffffffffffffffffffffffffffff16612582610f12565b73ffffffffffffffffffffffffffffffffffffffff16146125d8576040517f08c379a00000000000000000000000000000000000000000000000000000000081526004016125cf90613d7e565b60405180910390fd5b565b60008060009054906101000a900473ffffffffffffffffffffffffffffffffffffffff169050816000806101000a81548173ffffffffffffffffffffffffffffffffffffffff021916908373ffffffffffffffffffffffffffffffffffffffff1602179055508173ffffffffffffffffffffffffffffffffffffffff168173ffffffffffffffffffffffffffffffffffffffff167f8be0079c531659141344cd1fd0a4f28419497f9722a3daafe3b4186f6b6457e060405160405180910390a35050565b6000808380549050036126e6576040517f08c379a00000000000000000000000000000000000000000000000000000000081526004016126dd90613dea565b60405180910390fd5b60008060005b858054905081101561273b578486828154811061270c5761270b612f42565b5b906000526020600020015403612728578092506001915061273b565b808061273390612fa0565b9150506126ec565b506000151581151503612783576040517f08c379a000000000000000000000000000000000000000000000000000000000815260040161277a90613e56565b60405180910390fd5b60008290505b6001868054905061279a919061355c565b8110156127ff57856001826127af9190613590565b815481106127c0576127bf612f42565b5b90600052602060002001548682815481106127de576127dd612f42565b5b906000526020600020018190555080806127f790612fa0565b915050612789565b508480548061281157612810613e76565b5b6001900381819060005260206000200160009055905560019250505092915050565b600033905090565b82805461284790613ba6565b90600052602060002090601f01602090048101928261286957600085556128b0565b82601f1061288257805160ff19168380011785556128b0565b828001600101855582156128b0579182015b828111156128af578251825591602001919060010190612894565b5b5090506128bd91906128c1565b5090565b5b808211156128da5760008160009055506001016128c2565b5090565b6000604051905090565b600080fd5b600080fd5b600073ffffffffffffffffffffffffffffffffffffffff82169050919050565b600061291d826128f2565b9050919050565b61292d81612912565b811461293857600080fd5b50565b60008135905061294a81612924565b92915050565b600060208284031215612966576129656128e8565b5b60006129748482850161293b565b91505092915050565b600081519050919050565b600082825260208201905092915050565b6000819050602082019050919050565b6000819050919050565b6129bc816129a9565b82525050565b60006129ce83836129b3565b60208301905092915050565b6000602082019050919050565b60006129f28261297d565b6129fc8185612988565b9350612a0783612999565b8060005b83811015612a38578151612a1f88826129c2565b9750612a2a836129da565b925050600181019050612a0b565b5085935050505092915050565b60006020820190508181036000830152612a5f81846129e7565b905092915050565b612a70816129a9565b8114612a7b57600080fd5b50565b600081359050612a8d81612a67565b92915050565b6000612a9e826128f2565b9050919050565b612aae81612a93565b8114612ab957600080fd5b50565b600081359050612acb81612aa5565b92915050565b6000819050919050565b612ae481612ad1565b8114612aef57600080fd5b50565b600081359050612b0181612adb565b92915050565b60008060008060008060c08789031215612b2457612b236128e8565b5b6000612b3289828a0161293b565b9650506020612b4389828a01612a7e565b9550506040612b5489828a01612abc565b9450506060612b6589828a01612abc565b9350506080612b7689828a01612af2565b92505060a0612b8789828a01612af2565b9150509295509295509295565b612b9d816129a9565b82525050565b6000602082019050612bb86000830184612b94565b92915050565b600080fd5b600080fd5b6000601f19601f8301169050919050565b7f4e487b7100000000000000000000000000000000000000000000000000000000600052604160045260246000fd5b612c1182612bc8565b810181811067ffffffffffffffff82111715612c3057612c2f612bd9565b5b80604052505050565b6000612c436128de565b9050612c4f8282612c08565b919050565b600067ffffffffffffffff821115612c6f57612c6e612bd9565b5b612c7882612bc8565b9050602081019050919050565b82818337600083830152505050565b6000612ca7612ca284612c54565b612c39565b905082815260208101848484011115612cc357612cc2612bc3565b5b612cce848285612c85565b509392505050565b600082601f830112612ceb57612cea612bbe565b5b8135612cfb848260208601612c94565b91505092915050565b60008060408385031215612d1b57612d1a6128e8565b5b6000612d2985828601612a7e565b925050602083013567ffffffffffffffff811115612d4a57612d496128ed565b5b612d5685828601612cd6565b9150509250929050565b60008115159050919050565b612d7581612d60565b82525050565b6000602082019050612d906000830184612d6c565b92915050565b612d9f81612912565b82525050565b6000602082019050612dba6000830184612d96565b92915050565b600060208284031215612dd657612dd56128e8565b5b6000612de484828501612a7e565b91505092915050565b612df681612ad1565b82525050565b600081519050919050565b600082825260208201905092915050565b60005b83811015612e36578082015181840152602081019050612e1b565b83811115612e45576000848401525b50505050565b6000612e5682612dfc565b612e608185612e07565b9350612e70818560208601612e18565b612e7981612bc8565b840191505092915050565b600061014082019050612e9a600083018d612b94565b612ea7602083018c612d96565b612eb4604083018b612b94565b612ec1606083018a612d96565b612ece6080830189612d96565b612edb60a0830188612ded565b612ee860c0830187612ded565b612ef560e0830186612d6c565b612f03610100830185612d6c565b818103610120830152612f168184612e4b565b90509b9a5050505050505050505050565b6000602082019050612f3c6000830184612ded565b92915050565b7f4e487b7100000000000000000000000000000000000000000000000000000000600052603260045260246000fd5b7f4e487b7100000000000000000000000000000000000000000000000000000000600052601160045260246000fd5b6000612fab82612ad1565b91507fffffffffffffffffffffffffffffffffffffffffffffffffffffffffffffffff8203612fdd57612fdc612f71565b5b600182019050919050565b7f746f6b656e20616d6f756e74206d757374206265203e20300000000000000000600082015250565b600061301e601883612e07565b915061302982612fe8565b602082019050919050565b6000602082019050818103600083015261304d81613011565b9050919050565b60006040820190506130696000830185612d96565b6130766020830184612d96565b9392505050565b60008151905061308c81612adb565b92915050565b6000602082840312156130a8576130a76128e8565b5b60006130b68482850161307d565b91505092915050565b7f746f6b656e20616c6c6f77616e6365206d757374206265203e3d20616d6f756e60008201527f7400000000000000000000000000000000000000000000000000000000000000602082015250565b600061311b602183612e07565b9150613126826130bf565b604082019050919050565b6000602082019050818103600083015261314a8161310e565b9050919050565b7f656e6474696d652074696d65206d75737420626520696e20746865206675747560008201527f7265000000000000000000000000000000000000000000000000000000000000602082015250565b60006131ad602283612e07565b91506131b882613151565b604082019050919050565b600060208201905081810360008301526131dc816131a0565b9050919050565b7f6d73672e73656e646572206d7573742062652073616d6520776974682073656e60008201527f6465722061646472657373000000000000000000000000000000000000000000602082015250565b600061323f602b83612e07565b915061324a826131e3565b604082019050919050565b6000602082019050818103600083015261326e81613232565b9050919050565b60008160601b9050919050565b600061328d82613275565b9050919050565b600061329f82613282565b9050919050565b6132b76132b282612912565b613294565b82525050565b6000819050919050565b6132d86132d3826129a9565b6132bd565b82525050565b60006132e982613282565b9050919050565b6133016132fc82612a93565b6132de565b82525050565b6000819050919050565b61332261331d82612ad1565b613307565b82525050565b600061333482896132a6565b60148201915061334482886132c7565b60208201915061335482876132f0565b60148201915061336482866132f0565b6014820191506133748285613311565b6020820191506133848284613311565b602082019150819050979650505050505050565b600081519050919050565b600081905092915050565b60006133b982613398565b6133c381856133a3565b93506133d3818560208601612e18565b80840191505092915050565b60006133eb82846133ae565b915081905092915050565b60008151905061340581612a67565b92915050565b600060208284031215613421576134206128e8565b5b600061342f848285016133f6565b91505092915050565b7f74686973206c6f636b656420636f6e747261637420616c72656164792065786960008201527f7374730000000000000000000000000000000000000000000000000000000000602082015250565b6000613494602383612e07565b915061349f82613438565b604082019050919050565b600060208201905081810360008301526134c381613487565b9050919050565b7f746f6b656e2062616c616e63653a206e6f7420656e6f756768206f6e20636f6e60008201527f7472616374000000000000000000000000000000000000000000000000000000602082015250565b6000613526602583612e07565b9150613531826134ca565b604082019050919050565b6000602082019050818103600083015261355581613519565b9050919050565b600061356782612ad1565b915061357283612ad1565b92508282101561358557613584612f71565b5b828203905092915050565b600061359b82612ad1565b91506135a683612ad1565b9250827fffffffffffffffffffffffffffffffffffffffffffffffffffffffffffffffff038211156135db576135da612f71565b5b828201905092915050565b60006080820190506135fb6000830187612d96565b6136086020830186612b94565b6136156040830185612ded565b6136226060830184612ded565b95945050505050565b7f6c6f636b65645f636f6e74726163745f696420646f6573206e6f74206578697360008201527f7400000000000000000000000000000000000000000000000000000000000000602082015250565b6000613687602183612e07565b91506136928261362b565b604082019050919050565b600060208201905081810360008301526136b68161367a565b9050919050565b600081905092915050565b60006136d382612dfc565b6136dd81856136bd565b93506136ed818560208601612e18565b80840191505092915050565b600061370582846136c8565b915081905092915050565b7f7365637265742068617368206861736820646f6573206e6f74206d6174636800600082015250565b6000613746601f83612e07565b915061375182613710565b602082019050919050565b6000602082019050818103600083015261377581613739565b9050919050565b7f776974686472617761626c653a206e6f7420726563697069656e740000000000600082015250565b60006137b2601b83612e07565b91506137bd8261377c565b602082019050919050565b600060208201905081810360008301526137e1816137a5565b9050919050565b7f776974686472617761626c653a20616c72656164792077697468647261776e00600082015250565b600061381e601f83612e07565b9150613829826137e8565b602082019050919050565b6000602082019050818103600083015261384d81613811565b9050919050565b7f776974686472617761626c653a20616c726561647920726566756e6465640000600082015250565b600061388a601e83612e07565b915061389582613854565b602082019050919050565b600060208201905081810360008301526138b98161387d565b9050919050565b7f726566756e6461626c653a206e6f742073656e64657200000000000000000000600082015250565b60006138f6601683612e07565b9150613901826138c0565b602082019050919050565b60006020820190508181036000830152613925816138e9565b9050919050565b7f726566756e6461626c653a20616c726561647920726566756e64656400000000600082015250565b6000613962601c83612e07565b915061396d8261392c565b602082019050919050565b6000602082019050818103600083015261399181613955565b9050919050565b7f726566756e6461626c653a20616c72656164792077697468647261776e000000600082015250565b60006139ce601d83612e07565b91506139d982613998565b602082019050919050565b600060208201905081810360008301526139fd816139c1565b9050919050565b7f726566756e6461626c653a20656e6474696d65206e6f7420796574207061737360008201527f6564000000000000000000000000000000000000000000000000000000000000602082015250565b6000613a60602283612e07565b9150613a6b82613a04565b604082019050919050565b60006020820190508181036000830152613a8f81613a53565b9050919050565b6000819050919050565b6000613abb613ab6613ab1846128f2565b613a96565b6128f2565b9050919050565b6000613acd82613aa0565b9050919050565b6000613adf82613ac2565b9050919050565b613aef81613ad4565b82525050565b6000604082019050613b0a6000830185613ae6565b613b176020830184612ded565b9392505050565b613b2781612d60565b8114613b3257600080fd5b50565b600081519050613b4481613b1e565b92915050565b600060208284031215613b6057613b5f6128e8565b5b6000613b6e84828501613b35565b91505092915050565b7f4e487b7100000000000000000000000000000000000000000000000000000000600052602260045260246000fd5b60006002820490506001821680613bbe57607f821691505b602082108103613bd157613bd0613b77565b5b50919050565b6000606082019050613bec6000830186613ae6565b613bf96020830185612d96565b613c066040830184612ded565b949350505050565b7f7472616e7366657246726f6d2073656e64657220746f2074686973206661696c60008201527f6564000000000000000000000000000000000000000000000000000000000000602082015250565b6000613c6a602283612e07565b9150613c7582613c0e565b604082019050919050565b60006020820190508181036000830152613c9981613c5d565b9050919050565b7f4f776e61626c653a206e6577206f776e657220697320746865207a65726f206160008201527f6464726573730000000000000000000000000000000000000000000000000000602082015250565b6000613cfc602683612e07565b9150613d0782613ca0565b604082019050919050565b60006020820190508181036000830152613d2b81613cef565b9050919050565b7f4f776e61626c653a2063616c6c6572206973206e6f7420746865206f776e6572600082015250565b6000613d68602083612e07565b9150613d7382613d32565b602082019050919050565b60006020820190508181036000830152613d9781613d5b565b9050919050565b7f43616e206e6f742064656c6574652066726f6d2070656e64696e677300000000600082015250565b6000613dd4601c83612e07565b9150613ddf82613d9e565b602082019050919050565b60006020820190508181036000830152613e0381613dc7565b9050919050565b7f43616e206e6f742066696e6420696e2070656e64696e67730000000000000000600082015250565b6000613e40601883612e07565b9150613e4b82613e0a565b602082019050919050565b60006020820190508181036000830152613e6f81613e33565b9050919050565b7f4e487b7100000000000000000000000000000000000000000000000000000000600052603160045260246000fdfea2646970667358221220ab894b1791708436bdf4e5434355284e4aa479970933b57ec706be34dfdaf79664736f6c634300080e0033",
  "immutableReferences": {},
  "source": "// SPDX-License-Identifier: AGPL-3.0\n\npragma solidity ^0.8.10;\n\nimport \"@openzeppelin/contracts/token/ERC20/IERC20.sol\";\nimport \"@openzeppelin/contracts/access/Ownable.sol\";\n\n/**\n * @title Hash Time Lock Contract (HTLC) IERC20\n *\n * @author Meheret Tesfaye Batu <meherett@zoho.com>\n *\n * HTLC -> A Hash Time Lock Contract is essentially a type of payment in which two people\n * agree to a financial arrangement where one party will pay the other party a certain amount\n * of cryptocurrencies, such as Bitcoin or Ethereum assets.\n * However, because these contracts are Time-Locked, the receiving party only has a certain\n * amount of time to accept the payment, otherwise the money can be returned to the sender.\n *\n * Hash-Locked -> A Hash locked functions like two-factor authentication (2FA). It requires\n * the intended recipient to provide the correct secret passphrase to withdraw the funds.\n *\n * Time-Locked -> A Time locked adds a timeout expiration date to a payment. It requires\n * the intended recipient to claim the funds prior to the expiry. Otherwise, the transaction\n * defaults to enabling the original sender of funds to withdraw a refund.\n */\ncontract HTLC_ERC20 is Ownable {\n    struct LockContract {\n        address token;\n        bytes32 secret_hash;\n        address payable recipient;\n        address payable sender;\n        uint256 endtime;\n        uint256 amount;\n        bool withdrawn;\n        bool refunded;\n        string preimage;\n    }\n\n    mapping(bytes32 => LockContract) locked_contracts;\n    mapping(address => bytes32[]) fund_pendings;\n    mapping(address => bytes32[]) withdraw_pendings;\n\n    mapping(address => uint256) token_balances;\n    mapping(address => uint256) pending_token_balances;\n\n    event log_fund(\n        bytes32 indexed locked_contract_id,\n        address token,\n        bytes32 secret_hash,\n        address indexed recipient,\n        address indexed sender,\n        uint256 endtime,\n        uint256 amount\n    );\n    event log_fund_confirm(bytes32 indexed locked_contract_id);\n    event log_fund_cancel(bytes32 indexed locked_contract_id);\n\n    event log_withdraw(\n        bytes32 indexed locked_contract_id,\n        address token,\n        bytes32 secret_hash,\n        address indexed recipient,\n        address indexed sender,\n        uint256 endtime,\n        uint256 amount\n    );\n    event log_withdraw_confirm(bytes32 indexed locked_contract_id);\n    event log_withdraw_cancel(bytes32 indexed locked_contract_id);\n\n    modifier is_token_transferable(\n        address token,\n        address sender,\n        uint256 amount\n    ) {\n        require(amount > 0, \"token amount must be > 0\");\n        require(\n            IERC20(token).allowance(sender, address(this)) >= amount,\n            \"token allowance must be >= amount\"\n        );\n        _;\n    }\n    modifier future_endtime(uint256 endtime) {\n        require(\n            endtime > block.timestamp,\n            \"endtime time must be in the future\"\n        );\n        _;\n    }\n    modifier is_locked_contract_exist(bytes32 locked_contract_id) {\n        require(\n            have_locked_contract(locked_contract_id),\n            \"locked_contract_id does not exist\"\n        );\n        _;\n    }\n    modifier check_secret_hash_matches(\n        bytes32 locked_contract_id,\n        string memory preimage\n    ) {\n        require(\n            locked_contracts[locked_contract_id].secret_hash ==\n                sha256(abi.encodePacked(preimage)),\n            \"secret hash hash does not match\"\n        );\n        _;\n    }\n    modifier withdrawable(bytes32 locked_contract_id) {\n        require(\n            locked_contracts[locked_contract_id].recipient == msg.sender,\n            \"withdrawable: not recipient\"\n        );\n        require(\n            locked_contracts[locked_contract_id].withdrawn == false,\n            \"withdrawable: already withdrawn\"\n        );\n        require(\n            locked_contracts[locked_contract_id].refunded == false,\n            \"withdrawable: already refunded\"\n        );\n        _;\n    }\n    modifier refundable(bytes32 locked_contract_id) {\n        require(\n            locked_contracts[locked_contract_id].sender == msg.sender,\n            \"refundable: not sender\"\n        );\n        require(\n            locked_contracts[locked_contract_id].refunded == false,\n            \"refundable: already refunded\"\n        );\n        require(\n            locked_contracts[locked_contract_id].withdrawn == false,\n            \"refundable: already withdrawn\"\n        );\n        require(\n            locked_contracts[locked_contract_id].endtime <= block.timestamp,\n            \"refundable: endtime not yet passed\"\n        );\n        _;\n    }\n\n    /**\n     * @dev Sender sets up a new Hash Time Lock Contract (HTLC) and depositing the IERC20 token.\n     *\n     * @param token IERC20 Token contract address.\n     * @param secret_hash A sha256 secret hash.\n     * @param recipient Recipient account of the IERC20 token.\n     * @param sender Sender account of the IERC20 token.\n     * @param endtime The timestamp that the lock expires at.\n     * @param amount Amount of the token to lock up.\n     *\n     * @return locked_contract_id of the new HTLC.\n     */\n    function fund(\n        address token,\n        bytes32 secret_hash,\n        address payable recipient,\n        address payable sender,\n        uint256 endtime,\n        uint256 amount\n    )\n        external\n        is_token_transferable(token, msg.sender, amount)\n        future_endtime(endtime)\n        returns (bytes32 locked_contract_id)\n    {\n        require(\n            msg.sender == sender,\n            \"msg.sender must be same with sender address\"\n        );\n\n        locked_contract_id = sha256(\n            abi.encodePacked(\n                token,\n                secret_hash,\n                recipient,\n                sender,\n                endtime,\n                amount\n            )\n        );\n\n        if (have_locked_contract(locked_contract_id))\n            revert(\"this locked contract already exists\");\n\n        if (!IERC20(token).transferFrom(sender, address(this), amount))\n            revert(\"transferFrom sender to this failed\");\n\n        locked_contracts[locked_contract_id] = LockContract(\n            token,\n            secret_hash,\n            recipient,\n            sender,\n            endtime,\n            amount,\n            false,\n            false,\n            \"\"\n        );\n        fund_pendings[sender].push(locked_contract_id);\n\n        emit log_fund(\n            locked_contract_id,\n            token,\n            secret_hash,\n            recipient,\n            sender,\n            endtime,\n            amount\n        );\n        return locked_contract_id;\n    }\n\n    function withdraw(\n        address token,\n        bytes32 secret_hash,\n        address payable recipient,\n        address payable sender,\n        uint256 endtime,\n        uint256 amount\n    )\n        external\n        is_token_transferable(token, msg.sender, amount)\n        future_endtime(endtime)\n        returns (bytes32 locked_contract_id)\n    {\n        require(\n            msg.sender == sender,\n            \"msg.sender must be same with sender address\"\n        );\n\n        locked_contract_id = sha256(\n            abi.encodePacked(\n                token,\n                secret_hash,\n                recipient,\n                sender,\n                endtime,\n                amount\n            )\n        );\n\n        if (have_locked_contract(locked_contract_id))\n            revert(\"this locked contract already exists\");\n\n        if (token_balances[token] < amount)\n            revert(\"token balance: not enough on contract\");\n\n        locked_contracts[locked_contract_id] = LockContract(\n            token,\n            secret_hash,\n            recipient,\n            sender,\n            endtime,\n            amount,\n            false,\n            false,\n            \"\"\n        );\n        token_balances[token] -= amount;\n        pending_token_balances[token] += amount;\n        withdraw_pendings[sender].push(locked_contract_id);\n\n        emit log_withdraw(\n            locked_contract_id,\n            token,\n            secret_hash,\n            recipient,\n            sender,\n            endtime,\n            amount\n        );\n        return locked_contract_id;\n    }\n\n    /**\n     * @dev Called by the recipient once they know the preimage (secret key) of the secret hash.\n     *\n     * @param locked_contract_id of HTLC to withdraw.\n     * @param preimage sha256(preimage) hash should equal the contract secret hash.\n     *\n     * @return bool true on success or false on failure.\n     */\n    function fund_confirm(bytes32 locked_contract_id, string memory preimage)\n        external\n        is_locked_contract_exist(locked_contract_id)\n        check_secret_hash_matches(locked_contract_id, preimage)\n        withdrawable(locked_contract_id)\n        returns (bool)\n    {\n        LockContract storage locked_contract = locked_contracts[\n            locked_contract_id\n        ];\n\n        locked_contract.preimage = preimage;\n        locked_contract.withdrawn = true;\n\n        token_balances[locked_contract.token] += locked_contract.amount;\n        remove_from_pendings(fund_pendings[locked_contract.sender], locked_contract_id);\n\n        emit log_fund_confirm(locked_contract_id);\n        return true;\n    }\n\n    function withdraw_confirm(bytes32 locked_contract_id, string memory preimage)\n        external\n        is_locked_contract_exist(locked_contract_id)\n        check_secret_hash_matches(locked_contract_id, preimage)\n        withdrawable(locked_contract_id)\n        returns (bool)\n    {\n        LockContract storage locked_contract = locked_contracts[\n            locked_contract_id\n        ];\n\n        locked_contract.preimage = preimage;\n        locked_contract.withdrawn = true;\n\n        IERC20(locked_contract.token).transfer(\n            locked_contract.recipient,\n            locked_contract.amount\n        );\n\n        pending_token_balances[locked_contract.token] -= locked_contract.amount;\n        remove_from_pendings(withdraw_pendings[locked_contract.sender], locked_contract_id);\n\n        emit log_fund_confirm(locked_contract_id);\n        return true;\n    }\n\n    /**\n     * @dev Called by the sender if there was no withdraw and the time lock has expired.\n     *\n     * @param locked_contract_id of HTLC to refund.\n     *\n     * @return bool true on success or false on failure.\n     */\n    function fund_cancel(bytes32 locked_contract_id)\n        external\n        is_locked_contract_exist(locked_contract_id)\n        refundable(locked_contract_id)\n        returns (bool)\n    {\n        LockContract storage locked_contract = locked_contracts[\n            locked_contract_id\n        ];\n\n        locked_contract.refunded = true;\n        IERC20(locked_contract.token).transfer(\n            locked_contract.sender,\n            locked_contract.amount\n        );\n        remove_from_pendings(fund_pendings[locked_contract.sender], locked_contract_id);\n\n        emit log_fund_cancel(locked_contract_id);\n        return true;\n    }\n\n    function withdraw_cancel(bytes32 locked_contract_id)\n        external\n        is_locked_contract_exist(locked_contract_id)\n        refundable(locked_contract_id)\n        returns (bool)\n    {\n        LockContract storage locked_contract = locked_contracts[\n            locked_contract_id\n        ];\n\n        locked_contract.refunded = true;\n        remove_from_pendings(withdraw_pendings[locked_contract.sender], locked_contract_id);\n\n        emit log_fund_cancel(locked_contract_id);\n        return true;\n    }\n\n    /**\n     * @dev Get HTLC IERC20 contract details.\n     *\n     * @param locked_contract_id of HTLC IERC20 to get details.\n     *\n     * @return id token secret_hash recipient sender endtime amount withdrawn refunded preimage locked HTLC IERC20 contract data's.\n     */\n    function get_locked_contract(bytes32 locked_contract_id)\n        public\n        view\n        returns (\n            bytes32 id,\n            address token,\n            bytes32 secret_hash,\n            address recipient,\n            address sender,\n            uint256 endtime,\n            uint256 amount,\n            bool withdrawn,\n            bool refunded,\n            string memory preimage\n        )\n    {\n        if (have_locked_contract(locked_contract_id) == false)\n            return (\n                0,\n                address(0),\n                0,\n                address(0),\n                address(0),\n                0,\n                0,\n                false,\n                false,\n                \"\"\n            );\n\n        LockContract storage locked_contract = locked_contracts[\n            locked_contract_id\n        ];\n\n        return (\n            locked_contract_id,\n            locked_contract.token,\n            locked_contract.secret_hash,\n            locked_contract.recipient,\n            locked_contract.sender,\n            locked_contract.endtime,\n            locked_contract.amount,\n            locked_contract.withdrawn,\n            locked_contract.refunded,\n            locked_contract.preimage\n        );\n    }\n\n    /**\n     * @dev Is there a locked contract with HTLC contract id.\n     *\n     * @param locked_contract_id of HTLC to find it exists.\n     *\n     * @return exists boolean true or false.\n     */\n    function have_locked_contract(bytes32 locked_contract_id)\n        internal\n        view\n        returns (bool exists)\n    {\n        exists = (locked_contracts[locked_contract_id].sender != address(0));\n    }\n\n    function remove_from_pendings(bytes32[] storage pendings, bytes32 locked_contract_id)\n        internal\n        returns (bool status)\n    {\n        if (pendings.length == 0) {\n            revert(\"Can not delete from pendings\");\n        }\n\n        uint256 index = 0;\n        bool found = false;\n        for (uint256 i = 0; i < pendings.length; i++) {\n            if (pendings[i] == locked_contract_id) {\n                index = i;\n                found = true;\n                break;\n            }\n        }\n        if (found == false) {\n            revert(\"Can not find in pendings\");\n        }\n\n        for (\n            uint256 i = index;\n            i < pendings.length - 1;\n            i++\n        ) {\n            pendings[i] = pendings[i + 1];\n        }\n        pendings.pop();\n        return true;\n    }\n\n    /**\n     * @dev return pending tranfers for user\n     *\n     * @param sender of user to return list of locked_contracts\n     *\n     * @return pendings list of locked_contracts\n     */\n    function get_fund_contracts(address sender)\n        external\n        view\n        returns (bytes32[] memory pendings)\n    {\n        bytes32[] memory result = new bytes32[](\n            fund_pendings[sender].length\n        );\n\n        for (uint256 i = 0; i < fund_pendings[sender].length; i++) {\n            result[i] = fund_pendings[sender][i];\n        }\n        return result;\n    }\n\n    function get_withdraw_contracts(address sender)\n        external\n        view\n        returns (bytes32[] memory pendings)\n    {\n        bytes32[] memory result = new bytes32[](\n            fund_pendings[sender].length\n        );\n\n        for (uint256 i = 0; i < fund_pendings[sender].length; i++) {\n            result[i] = fund_pendings[sender][i];\n        }\n        return result;\n    }\n\n    /**\n     * @dev return current token balances located on smartcontract\n     *\n     * @param token address of token\n     *\n     * @return balance return amount of tokens located on smartcontract\n     */\n    function get_token_balance(address token) external view returns(uint256 balance) {\n        return token_balances[token];\n    }\n}\n",
  "sourcePath": "/Users/pomeschenkoanton/projects/nuclearswap/truffle/contracts/htlc_erc20.sol",
  "compiler": {
    "name": "solc",
    "version": "0.8.14+commit.80d49f37.Emscripten.clang"
  },
  "schemaVersion": "3.4.7",
  "updatedAt": "2022-11-06T09:50:47.642Z",
  "devdoc": {
    "author": "Meheret Tesfaye Batu <meherett@zoho.com> HTLC -> A Hash Time Lock Contract is essentially a type of payment in which two people agree to a financial arrangement where one party will pay the other party a certain amount of cryptocurrencies, such as Bitcoin or Ethereum assets. However, because these contracts are Time-Locked, the receiving party only has a certain amount of time to accept the payment, otherwise the money can be returned to the sender. Hash-Locked -> A Hash locked functions like two-factor authentication (2FA). It requires the intended recipient to provide the correct secret passphrase to withdraw the funds. Time-Locked -> A Time locked adds a timeout expiration date to a payment. It requires the intended recipient to claim the funds prior to the expiry. Otherwise, the transaction defaults to enabling the original sender of funds to withdraw a refund.",
    "kind": "dev",
    "methods": {
      "fund(address,bytes32,address,address,uint256,uint256)": {
        "details": "Sender sets up a new Hash Time Lock Contract (HTLC) and depositing the IERC20 token.",
        "params": {
          "amount": "Amount of the token to lock up.",
          "endtime": "The timestamp that the lock expires at.",
          "recipient": "Recipient account of the IERC20 token.",
          "secret_hash": "A sha256 secret hash.",
          "sender": "Sender account of the IERC20 token.",
          "token": "IERC20 Token contract address."
        },
        "returns": {
          "locked_contract_id": "of the new HTLC."
        }
      },
      "fund_cancel(bytes32)": {
        "details": "Called by the sender if there was no withdraw and the time lock has expired.",
        "params": {
          "locked_contract_id": "of HTLC to refund."
        },
        "returns": {
          "_0": "bool true on success or false on failure."
        }
      },
      "fund_confirm(bytes32,string)": {
        "details": "Called by the recipient once they know the preimage (secret key) of the secret hash.",
        "params": {
          "locked_contract_id": "of HTLC to withdraw.",
          "preimage": "sha256(preimage) hash should equal the contract secret hash."
        },
        "returns": {
          "_0": "bool true on success or false on failure."
        }
      },
      "get_fund_contracts(address)": {
        "details": "return pending tranfers for user",
        "params": {
          "sender": "of user to return list of locked_contracts"
        },
        "returns": {
          "pendings": "list of locked_contracts"
        }
      },
      "get_locked_contract(bytes32)": {
        "details": "Get HTLC IERC20 contract details.",
        "params": {
          "locked_contract_id": "of HTLC IERC20 to get details."
        },
        "returns": {
          "id": "token secret_hash recipient sender endtime amount withdrawn refunded preimage locked HTLC IERC20 contract data's."
        }
      },
      "get_token_balance(address)": {
        "details": "return current token balances located on smartcontract",
        "params": {
          "token": "address of token"
        },
        "returns": {
          "balance": "return amount of tokens located on smartcontract"
        }
      },
      "owner()": {
        "details": "Returns the address of the current owner."
      },
      "renounceOwnership()": {
        "details": "Leaves the contract without owner. It will not be possible to call `onlyOwner` functions anymore. Can only be called by the current owner. NOTE: Renouncing ownership will leave the contract without an owner, thereby removing any functionality that is only available to the owner."
      },
      "transferOwnership(address)": {
        "details": "Transfers ownership of the contract to a new account (`newOwner`). Can only be called by the current owner."
      }
    },
    "title": "Hash Time Lock Contract (HTLC) IERC20",
    "version": 1
  },
  "userdoc": {
    "kind": "user",
    "methods": {},
    "version": 1
  }
}