{
  "contractName": "HTLC_ERC20",
  "abi": [
    {
      "anonymous": false,
      "inputs": [
        {
          "indexed": true,
          "internalType": "bytes32",
          "name": "locked_contract_id",
          "type": "bytes32"
        },
        {
          "indexed": false,
          "internalType": "address",
          "name": "token",
          "type": "address"
        },
        {
          "indexed": false,
          "internalType": "bytes32",
          "name": "secret_hash",
          "type": "bytes32"
        },
        {
          "indexed": true,
          "internalType": "address",
          "name": "recipient",
          "type": "address"
        },
        {
          "indexed": true,
          "internalType": "address",
          "name": "sender",
          "type": "address"
        },
        {
          "indexed": false,
          "internalType": "uint256",
          "name": "endtime",
          "type": "uint256"
        },
        {
          "indexed": false,
          "internalType": "uint256",
          "name": "amount",
          "type": "uint256"
        }
      ],
      "name": "log_fund",
      "type": "event"
    },
    {
      "anonymous": false,
      "inputs": [
        {
          "indexed": true,
          "internalType": "bytes32",
          "name": "locked_contract_id",
          "type": "bytes32"
        }
      ],
      "name": "log_refund",
      "type": "event"
    },
    {
      "anonymous": false,
      "inputs": [
        {
          "indexed": true,
          "internalType": "bytes32",
          "name": "locked_contract_id",
          "type": "bytes32"
        }
      ],
      "name": "log_withdraw",
      "type": "event"
    },
    {
      "inputs": [
        {
          "internalType": "address",
          "name": "token",
          "type": "address"
        },
        {
          "internalType": "bytes32",
          "name": "secret_hash",
          "type": "bytes32"
        },
        {
          "internalType": "address payable",
          "name": "recipient",
          "type": "address"
        },
        {
          "internalType": "address payable",
          "name": "sender",
          "type": "address"
        },
        {
          "internalType": "uint256",
          "name": "endtime",
          "type": "uint256"
        },
        {
          "internalType": "uint256",
          "name": "amount",
          "type": "uint256"
        }
      ],
      "name": "fund",
      "outputs": [
        {
          "internalType": "bytes32",
          "name": "locked_contract_id",
          "type": "bytes32"
        }
      ],
      "stateMutability": "nonpayable",
      "type": "function"
    },
    {
      "inputs": [
        {
          "internalType": "bytes32",
          "name": "locked_contract_id",
          "type": "bytes32"
        },
        {
          "internalType": "string",
          "name": "preimage",
          "type": "string"
        }
      ],
      "name": "withdraw",
      "outputs": [
        {
          "internalType": "bool",
          "name": "",
          "type": "bool"
        }
      ],
      "stateMutability": "nonpayable",
      "type": "function"
    },
    {
      "inputs": [
        {
          "internalType": "bytes32",
          "name": "locked_contract_id",
          "type": "bytes32"
        }
      ],
      "name": "refund",
      "outputs": [
        {
          "internalType": "bool",
          "name": "",
          "type": "bool"
        }
      ],
      "stateMutability": "nonpayable",
      "type": "function"
    },
    {
      "inputs": [
        {
          "internalType": "bytes32",
          "name": "locked_contract_id",
          "type": "bytes32"
        }
      ],
      "name": "get_locked_contract",
      "outputs": [
        {
          "internalType": "bytes32",
          "name": "id",
          "type": "bytes32"
        },
        {
          "internalType": "address",
          "name": "token",
          "type": "address"
        },
        {
          "internalType": "bytes32",
          "name": "secret_hash",
          "type": "bytes32"
        },
        {
          "internalType": "address",
          "name": "recipient",
          "type": "address"
        },
        {
          "internalType": "address",
          "name": "sender",
          "type": "address"
        },
        {
          "internalType": "uint256",
          "name": "endtime",
          "type": "uint256"
        },
        {
          "internalType": "uint256",
          "name": "amount",
          "type": "uint256"
        },
        {
          "internalType": "bool",
          "name": "withdrawn",
          "type": "bool"
        },
        {
          "internalType": "bool",
          "name": "refunded",
          "type": "bool"
        },
        {
          "internalType": "string",
          "name": "preimage",
          "type": "string"
        }
      ],
      "stateMutability": "view",
      "type": "function"
    },
    {
      "inputs": [
        {
          "internalType": "address",
          "name": "sender",
          "type": "address"
        }
      ],
      "name": "get_pending_contracts",
      "outputs": [
        {
          "internalType": "bytes32[]",
          "name": "pendings",
          "type": "bytes32[]"
        }
      ],
      "stateMutability": "view",
      "type": "function"
    }
  ],
  "bytecode": "0x608060405234801561001057600080fd5b506128fb806100206000396000f3fe608060405234801561001057600080fd5b50600436106100575760003560e01c806306a536651461005c57806323fde1b71461008c5780637249fbb6146100bc578063cfd4b66e146100ec578063ebfcea3714610125575b600080fd5b6100766004803603810190610071919061172c565b610155565b60405161008391906117a3565b60405180910390f35b6100a660048036038101906100a1919061181c565b6104ed565b6040516100b39190611907565b60405180910390f35b6100d660048036038101906100d19190611929565b610663565b6040516100e391906117a3565b60405180910390f35b61010660048036038101906101019190611929565b6109bd565b60405161011c9a99989796959493929190611a15565b60405180910390f35b61013f600480360381019061013a9190611b22565b610b90565b60405161014c9190611baf565b60405180910390f35b600082610161816111a7565b6101a0576040517f08c379a000000000000000000000000000000000000000000000000000000000815260040161019790611c3c565b60405180910390fd5b83836002816040516020016101b59190611c98565b6040516020818303038152906040526040516101d19190611cf6565b602060405180830381855afa1580156101ee573d6000803e3d6000fd5b5050506040513d601f19601f820116820180604052508101906102119190611d22565b6000808481526020019081526020016000206001015414610267576040517f08c379a000000000000000000000000000000000000000000000000000000000815260040161025e90611d9b565b60405180910390fd5b853373ffffffffffffffffffffffffffffffffffffffff1660008083815260200190815260200160002060020160009054906101000a900473ffffffffffffffffffffffffffffffffffffffff1673ffffffffffffffffffffffffffffffffffffffff161461030b576040517f08c379a000000000000000000000000000000000000000000000000000000000815260040161030290611e07565b60405180910390fd5b6000151560008083815260200190815260200160002060060160009054906101000a900460ff16151514610374576040517f08c379a000000000000000000000000000000000000000000000000000000000815260040161036b90611e73565b60405180910390fd5b6000151560008083815260200190815260200160002060060160019054906101000a900460ff161515146103dd576040517f08c379a00000000000000000000000000000000000000000000000000000000081526004016103d490611edf565b60405180910390fd5b600080600089815260200190815260200160002090508681600701908051906020019061040b9291906114f9565b5060018160060160006101000a81548160ff0219169083151502179055508060050154600260008360000160009054906101000a900473ffffffffffffffffffffffffffffffffffffffff1673ffffffffffffffffffffffffffffffffffffffff1673ffffffffffffffffffffffffffffffffffffffff16815260200190815260200160002060008282546104a09190611f2e565b925050819055506104b088611215565b50877f504d590eb5fc388d52f9ec13027846f2a4be1de21e120f4f6cb81577631925b660405160405180910390a260019550505050505092915050565b60606000600160008473ffffffffffffffffffffffffffffffffffffffff1673ffffffffffffffffffffffffffffffffffffffff1681526020019081526020016000208054905067ffffffffffffffff81111561054d5761054c611601565b5b60405190808252806020026020018201604052801561057b5781602001602082028036833780820191505090505b50905060005b600160008573ffffffffffffffffffffffffffffffffffffffff1673ffffffffffffffffffffffffffffffffffffffff1681526020019081526020016000208054905081101561065957600160008573ffffffffffffffffffffffffffffffffffffffff1673ffffffffffffffffffffffffffffffffffffffff168152602001908152602001600020818154811061061c5761061b611f84565b5b906000526020600020015482828151811061063a57610639611f84565b5b602002602001018181525050808061065190611fb3565b915050610581565b5080915050919050565b60008161066f816111a7565b6106ae576040517f08c379a00000000000000000000000000000000000000000000000000000000081526004016106a590611c3c565b60405180910390fd5b823373ffffffffffffffffffffffffffffffffffffffff1660008083815260200190815260200160002060030160009054906101000a900473ffffffffffffffffffffffffffffffffffffffff1673ffffffffffffffffffffffffffffffffffffffff1614610752576040517f08c379a000000000000000000000000000000000000000000000000000000000815260040161074990612047565b60405180910390fd5b6000151560008083815260200190815260200160002060060160019054906101000a900460ff161515146107bb576040517f08c379a00000000000000000000000000000000000000000000000000000000081526004016107b2906120b3565b60405180910390fd5b6000151560008083815260200190815260200160002060060160009054906101000a900460ff16151514610824576040517f08c379a000000000000000000000000000000000000000000000000000000000815260040161081b9061211f565b60405180910390fd5b4260008083815260200190815260200160002060040154111561087c576040517f08c379a0000000000000000000000000000000000000000000000000000000008152600401610873906121b1565b60405180910390fd5b6000806000868152602001908152602001600020905060018160060160016101000a81548160ff0219169083151502179055508060000160009054906101000a900473ffffffffffffffffffffffffffffffffffffffff1673ffffffffffffffffffffffffffffffffffffffff1663a9059cbb8260030160009054906101000a900473ffffffffffffffffffffffffffffffffffffffff1683600501546040518363ffffffff1660e01b8152600401610936929190612230565b6020604051808303816000875af1158015610955573d6000803e3d6000fd5b505050506040513d601f19601f820116820180604052508101906109799190612285565b5061098385611215565b50847ff9f621227215a273c53adae3204668db470019bad0903f243eefc5f7736fc95660405160405180910390a260019350505050919050565b60008060008060008060008060006060600015156109da8c6111a7565b151503610a245760008060008060008060008060008860001b98508660001b9650604051806020016040528060008152509950995099509950995099509950995099509950610b83565b60008060008d815260200190815260200160002090508b8160000160009054906101000a900473ffffffffffffffffffffffffffffffffffffffff1682600101548360020160009054906101000a900473ffffffffffffffffffffffffffffffffffffffff168460030160009054906101000a900473ffffffffffffffffffffffffffffffffffffffff16856004015486600501548760060160009054906101000a900460ff168860060160019054906101000a900460ff1689600701808054610aed906122e1565b80601f0160208091040260200160405190810160405280929190818152602001828054610b19906122e1565b8015610b665780601f10610b3b57610100808354040283529160200191610b66565b820191906000526020600020905b815481529060010190602001808311610b4957829003601f168201915b505050505090509a509a509a509a509a509a509a509a509a509a50505b9193959799509193959799565b600086338360008111610bd8576040517f08c379a0000000000000000000000000000000000000000000000000000000008152600401610bcf9061235e565b60405180910390fd5b808373ffffffffffffffffffffffffffffffffffffffff1663dd62ed3e84306040518363ffffffff1660e01b8152600401610c1492919061237e565b602060405180830381865afa158015610c31573d6000803e3d6000fd5b505050506040513d601f19601f82011682018060405250810190610c5591906123bc565b1015610c96576040517f08c379a0000000000000000000000000000000000000000000000000000000008152600401610c8d9061245b565b60405180910390fd5b85428111610cd9576040517f08c379a0000000000000000000000000000000000000000000000000000000008152600401610cd0906124ed565b60405180910390fd5b8773ffffffffffffffffffffffffffffffffffffffff163373ffffffffffffffffffffffffffffffffffffffff1614610d47576040517f08c379a0000000000000000000000000000000000000000000000000000000008152600401610d3e9061257f565b60405180910390fd5b60028b8b8b8b8b8b604051602001610d6496959493929190612652565b604051602081830303815290604052604051610d809190611cf6565b602060405180830381855afa158015610d9d573d6000803e3d6000fd5b5050506040513d601f19601f82011682018060405250810190610dc09190611d22565b9450610dcb856111a7565b15610e0b576040517f08c379a0000000000000000000000000000000000000000000000000000000008152600401610e0290612734565b60405180910390fd5b8a73ffffffffffffffffffffffffffffffffffffffff166323b872dd8930896040518463ffffffff1660e01b8152600401610e4893929190612754565b6020604051808303816000875af1158015610e67573d6000803e3d6000fd5b505050506040513d601f19601f82011682018060405250810190610e8b9190612285565b610eca576040517f08c379a0000000000000000000000000000000000000000000000000000000008152600401610ec1906127fd565b60405180910390fd5b6040518061012001604052808c73ffffffffffffffffffffffffffffffffffffffff1681526020018b81526020018a73ffffffffffffffffffffffffffffffffffffffff1681526020018973ffffffffffffffffffffffffffffffffffffffff1681526020018881526020018781526020016000151581526020016000151581526020016040518060200160405280600081525081525060008087815260200190815260200160002060008201518160000160006101000a81548173ffffffffffffffffffffffffffffffffffffffff021916908373ffffffffffffffffffffffffffffffffffffffff1602179055506020820151816001015560408201518160020160006101000a81548173ffffffffffffffffffffffffffffffffffffffff021916908373ffffffffffffffffffffffffffffffffffffffff16021790555060608201518160030160006101000a81548173ffffffffffffffffffffffffffffffffffffffff021916908373ffffffffffffffffffffffffffffffffffffffff1602179055506080820151816004015560a0820151816005015560c08201518160060160006101000a81548160ff02191690831515021790555060e08201518160060160016101000a81548160ff0219169083151502179055506101008201518160070190805190602001906110c39291906114f9565b50905050600160008973ffffffffffffffffffffffffffffffffffffffff1673ffffffffffffffffffffffffffffffffffffffff1681526020019081526020016000208590806001815401808255809150506001900390600052602060002001600090919091909150558773ffffffffffffffffffffffffffffffffffffffff168973ffffffffffffffffffffffffffffffffffffffff16867fdeb113c37962b77726f3111a1d9f63c98c3a700416aaf4463e95f1f1f20bc8d18e8e8c8c604051611191949392919061281d565b60405180910390a4505050509695505050505050565b60008073ffffffffffffffffffffffffffffffffffffffff1660008084815260200190815260200160002060030160009054906101000a900473ffffffffffffffffffffffffffffffffffffffff1673ffffffffffffffffffffffffffffffffffffffff1614159050919050565b600080600160003373ffffffffffffffffffffffffffffffffffffffff1673ffffffffffffffffffffffffffffffffffffffff168152602001908152602001600020805490500361126957600090506114f4565b60008060005b600160003373ffffffffffffffffffffffffffffffffffffffff1673ffffffffffffffffffffffffffffffffffffffff1681526020019081526020016000208054905081101561133a5784600160003373ffffffffffffffffffffffffffffffffffffffff1673ffffffffffffffffffffffffffffffffffffffff168152602001908152602001600020828154811061130b5761130a611f84565b5b906000526020600020015403611327578092506001915061133a565b808061133290611fb3565b91505061126f565b506000151581151503611352576000925050506114f4565b60008290505b60018060003373ffffffffffffffffffffffffffffffffffffffff1673ffffffffffffffffffffffffffffffffffffffff168152602001908152602001600020805490506113a69190612862565b81101561148757600160003373ffffffffffffffffffffffffffffffffffffffff1673ffffffffffffffffffffffffffffffffffffffff1681526020019081526020016000206001826113f99190611f2e565b8154811061140a57611409611f84565b5b9060005260206000200154600160003373ffffffffffffffffffffffffffffffffffffffff1673ffffffffffffffffffffffffffffffffffffffff168152602001908152602001600020828154811061146657611465611f84565b5b9060005260206000200181905550808061147f90611fb3565b915050611358565b50600160003373ffffffffffffffffffffffffffffffffffffffff1673ffffffffffffffffffffffffffffffffffffffff1681526020019081526020016000208054806114d7576114d6612896565b5b600190038181906000526020600020016000905590556001925050505b919050565b828054611505906122e1565b90600052602060002090601f016020900481019282611527576000855561156e565b82601f1061154057805160ff191683800117855561156e565b8280016001018555821561156e579182015b8281111561156d578251825591602001919060010190611552565b5b50905061157b919061157f565b5090565b5b80821115611598576000816000905550600101611580565b5090565b6000604051905090565b600080fd5b600080fd5b6000819050919050565b6115c3816115b0565b81146115ce57600080fd5b50565b6000813590506115e0816115ba565b92915050565b600080fd5b600080fd5b6000601f19601f8301169050919050565b7f4e487b7100000000000000000000000000000000000000000000000000000000600052604160045260246000fd5b611639826115f0565b810181811067ffffffffffffffff8211171561165857611657611601565b5b80604052505050565b600061166b61159c565b90506116778282611630565b919050565b600067ffffffffffffffff82111561169757611696611601565b5b6116a0826115f0565b9050602081019050919050565b82818337600083830152505050565b60006116cf6116ca8461167c565b611661565b9050828152602081018484840111156116eb576116ea6115eb565b5b6116f68482856116ad565b509392505050565b600082601f830112611713576117126115e6565b5b81356117238482602086016116bc565b91505092915050565b60008060408385031215611743576117426115a6565b5b6000611751858286016115d1565b925050602083013567ffffffffffffffff811115611772576117716115ab565b5b61177e858286016116fe565b9150509250929050565b60008115159050919050565b61179d81611788565b82525050565b60006020820190506117b86000830184611794565b92915050565b600073ffffffffffffffffffffffffffffffffffffffff82169050919050565b60006117e9826117be565b9050919050565b6117f9816117de565b811461180457600080fd5b50565b600081359050611816816117f0565b92915050565b600060208284031215611832576118316115a6565b5b600061184084828501611807565b91505092915050565b600081519050919050565b600082825260208201905092915050565b6000819050602082019050919050565b61187e816115b0565b82525050565b60006118908383611875565b60208301905092915050565b6000602082019050919050565b60006118b482611849565b6118be8185611854565b93506118c983611865565b8060005b838110156118fa5781516118e18882611884565b97506118ec8361189c565b9250506001810190506118cd565b5085935050505092915050565b6000602082019050818103600083015261192181846118a9565b905092915050565b60006020828403121561193f5761193e6115a6565b5b600061194d848285016115d1565b91505092915050565b61195f816115b0565b82525050565b61196e816117de565b82525050565b6000819050919050565b61198781611974565b82525050565b600081519050919050565b600082825260208201905092915050565b60005b838110156119c75780820151818401526020810190506119ac565b838111156119d6576000848401525b50505050565b60006119e78261198d565b6119f18185611998565b9350611a018185602086016119a9565b611a0a816115f0565b840191505092915050565b600061014082019050611a2b600083018d611956565b611a38602083018c611965565b611a45604083018b611956565b611a52606083018a611965565b611a5f6080830189611965565b611a6c60a083018861197e565b611a7960c083018761197e565b611a8660e0830186611794565b611a94610100830185611794565b818103610120830152611aa781846119dc565b90509b9a5050505050505050505050565b6000611ac3826117be565b9050919050565b611ad381611ab8565b8114611ade57600080fd5b50565b600081359050611af081611aca565b92915050565b611aff81611974565b8114611b0a57600080fd5b50565b600081359050611b1c81611af6565b92915050565b60008060008060008060c08789031215611b3f57611b3e6115a6565b5b6000611b4d89828a01611807565b9650506020611b5e89828a016115d1565b9550506040611b6f89828a01611ae1565b9450506060611b8089828a01611ae1565b9350506080611b9189828a01611b0d565b92505060a0611ba289828a01611b0d565b9150509295509295509295565b6000602082019050611bc46000830184611956565b92915050565b7f6c6f636b65645f636f6e74726163745f696420646f6573206e6f74206578697360008201527f7400000000000000000000000000000000000000000000000000000000000000602082015250565b6000611c26602183611998565b9150611c3182611bca565b604082019050919050565b60006020820190508181036000830152611c5581611c19565b9050919050565b600081905092915050565b6000611c728261198d565b611c7c8185611c5c565b9350611c8c8185602086016119a9565b80840191505092915050565b6000611ca48284611c67565b915081905092915050565b600081519050919050565b600081905092915050565b6000611cd082611caf565b611cda8185611cba565b9350611cea8185602086016119a9565b80840191505092915050565b6000611d028284611cc5565b915081905092915050565b600081519050611d1c816115ba565b92915050565b600060208284031215611d3857611d376115a6565b5b6000611d4684828501611d0d565b91505092915050565b7f7365637265742068617368206861736820646f6573206e6f74206d6174636800600082015250565b6000611d85601f83611998565b9150611d9082611d4f565b602082019050919050565b60006020820190508181036000830152611db481611d78565b9050919050565b7f776974686472617761626c653a206e6f7420726563697069656e740000000000600082015250565b6000611df1601b83611998565b9150611dfc82611dbb565b602082019050919050565b60006020820190508181036000830152611e2081611de4565b9050919050565b7f776974686472617761626c653a20616c72656164792077697468647261776e00600082015250565b6000611e5d601f83611998565b9150611e6882611e27565b602082019050919050565b60006020820190508181036000830152611e8c81611e50565b9050919050565b7f776974686472617761626c653a20616c726561647920726566756e6465640000600082015250565b6000611ec9601e83611998565b9150611ed482611e93565b602082019050919050565b60006020820190508181036000830152611ef881611ebc565b9050919050565b7f4e487b7100000000000000000000000000000000000000000000000000000000600052601160045260246000fd5b6000611f3982611974565b9150611f4483611974565b9250827fffffffffffffffffffffffffffffffffffffffffffffffffffffffffffffffff03821115611f7957611f78611eff565b5b828201905092915050565b7f4e487b7100000000000000000000000000000000000000000000000000000000600052603260045260246000fd5b6000611fbe82611974565b91507fffffffffffffffffffffffffffffffffffffffffffffffffffffffffffffffff8203611ff057611fef611eff565b5b600182019050919050565b7f726566756e6461626c653a206e6f742073656e64657200000000000000000000600082015250565b6000612031601683611998565b915061203c82611ffb565b602082019050919050565b6000602082019050818103600083015261206081612024565b9050919050565b7f726566756e6461626c653a20616c726561647920726566756e64656400000000600082015250565b600061209d601c83611998565b91506120a882612067565b602082019050919050565b600060208201905081810360008301526120cc81612090565b9050919050565b7f726566756e6461626c653a20616c72656164792077697468647261776e000000600082015250565b6000612109601d83611998565b9150612114826120d3565b602082019050919050565b60006020820190508181036000830152612138816120fc565b9050919050565b7f726566756e6461626c653a20656e6474696d65206e6f7420796574207061737360008201527f6564000000000000000000000000000000000000000000000000000000000000602082015250565b600061219b602283611998565b91506121a68261213f565b604082019050919050565b600060208201905081810360008301526121ca8161218e565b9050919050565b6000819050919050565b60006121f66121f16121ec846117be565b6121d1565b6117be565b9050919050565b6000612208826121db565b9050919050565b600061221a826121fd565b9050919050565b61222a8161220f565b82525050565b60006040820190506122456000830185612221565b612252602083018461197e565b9392505050565b61226281611788565b811461226d57600080fd5b50565b60008151905061227f81612259565b92915050565b60006020828403121561229b5761229a6115a6565b5b60006122a984828501612270565b91505092915050565b7f4e487b7100000000000000000000000000000000000000000000000000000000600052602260045260246000fd5b600060028204905060018216806122f957607f821691505b60208210810361230c5761230b6122b2565b5b50919050565b7f746f6b656e20616d6f756e74206d757374206265203e20300000000000000000600082015250565b6000612348601883611998565b915061235382612312565b602082019050919050565b600060208201905081810360008301526123778161233b565b9050919050565b60006040820190506123936000830185611965565b6123a06020830184611965565b9392505050565b6000815190506123b681611af6565b92915050565b6000602082840312156123d2576123d16115a6565b5b60006123e0848285016123a7565b91505092915050565b7f746f6b656e20616c6c6f77616e6365206d757374206265203e3d20616d6f756e60008201527f7400000000000000000000000000000000000000000000000000000000000000602082015250565b6000612445602183611998565b9150612450826123e9565b604082019050919050565b6000602082019050818103600083015261247481612438565b9050919050565b7f656e6474696d652074696d65206d75737420626520696e20746865206675747560008201527f7265000000000000000000000000000000000000000000000000000000000000602082015250565b60006124d7602283611998565b91506124e28261247b565b604082019050919050565b60006020820190508181036000830152612506816124ca565b9050919050565b7f6d73672e73656e646572206d7573742062652073616d6520776974682073656e60008201527f6465722061646472657373000000000000000000000000000000000000000000602082015250565b6000612569602b83611998565b91506125748261250d565b604082019050919050565b600060208201905081810360008301526125988161255c565b9050919050565b60008160601b9050919050565b60006125b78261259f565b9050919050565b60006125c9826125ac565b9050919050565b6125e16125dc826117de565b6125be565b82525050565b6000819050919050565b6126026125fd826115b0565b6125e7565b82525050565b6000612613826125ac565b9050919050565b61262b61262682611ab8565b612608565b82525050565b6000819050919050565b61264c61264782611974565b612631565b82525050565b600061265e82896125d0565b60148201915061266e82886125f1565b60208201915061267e828761261a565b60148201915061268e828661261a565b60148201915061269e828561263b565b6020820191506126ae828461263b565b602082019150819050979650505050505050565b7f74686973206c6f636b656420636f6e747261637420616c72656164792065786960008201527f7374730000000000000000000000000000000000000000000000000000000000602082015250565b600061271e602383611998565b9150612729826126c2565b604082019050919050565b6000602082019050818103600083015261274d81612711565b9050919050565b60006060820190506127696000830186612221565b6127766020830185611965565b612783604083018461197e565b949350505050565b7f7472616e7366657246726f6d2073656e64657220746f2074686973206661696c60008201527f6564000000000000000000000000000000000000000000000000000000000000602082015250565b60006127e7602283611998565b91506127f28261278b565b604082019050919050565b60006020820190508181036000830152612816816127da565b9050919050565b60006080820190506128326000830187611965565b61283f6020830186611956565b61284c604083018561197e565b612859606083018461197e565b95945050505050565b600061286d82611974565b915061287883611974565b92508282101561288b5761288a611eff565b5b828203905092915050565b7f4e487b7100000000000000000000000000000000000000000000000000000000600052603160045260246000fdfea264697066735822122022a8d10f91e313a5cdb25885d3af40bdf852fdd3f8588b6d159c2c047ad8661b64736f6c634300080e0033",
  "immutableReferences": {},
  "source": "// SPDX-License-Identifier: AGPL-3.0\n\npragma solidity ^0.8.10;\n\nimport \"@openzeppelin/contracts/token/ERC20/IERC20.sol\";\n\n/**\n * @title Hash Time Lock Contract (HTLC) IERC20\n *\n * @author Meheret Tesfaye Batu <meherett@zoho.com>\n *\n * HTLC -> A Hash Time Lock Contract is essentially a type of payment in which two people\n * agree to a financial arrangement where one party will pay the other party a certain amount\n * of cryptocurrencies, such as Bitcoin or Ethereum assets.\n * However, because these contracts are Time-Locked, the receiving party only has a certain\n * amount of time to accept the payment, otherwise the money can be returned to the sender.\n *\n * Hash-Locked -> A Hash locked functions like two-factor authentication (2FA). It requires\n * the intended recipient to provide the correct secret passphrase to withdraw the funds.\n *\n * Time-Locked -> A Time locked adds a timeout expiration date to a payment. It requires\n * the intended recipient to claim the funds prior to the expiry. Otherwise, the transaction\n * defaults to enabling the original sender of funds to withdraw a refund.\n */\ncontract HTLC_ERC20 {\n    struct LockContract {\n        address token;\n        bytes32 secret_hash;\n        address payable recipient;\n        address payable sender;\n        uint256 endtime;\n        uint256 amount;\n        bool withdrawn;\n        bool refunded;\n        string preimage;\n    }\n\n    mapping(bytes32 => LockContract) locked_contracts;\n    mapping(address => bytes32[]) recipient_pendings;\n    mapping(address => uint256) token_balances;\n\n    event log_fund(\n        bytes32 indexed locked_contract_id,\n        address token,\n        bytes32 secret_hash,\n        address indexed recipient,\n        address indexed sender,\n        uint256 endtime,\n        uint256 amount\n    );\n    event log_withdraw(bytes32 indexed locked_contract_id);\n    event log_refund(bytes32 indexed locked_contract_id);\n\n    modifier is_token_transferable(\n        address token,\n        address sender,\n        uint256 amount\n    ) {\n        require(amount > 0, \"token amount must be > 0\");\n        require(\n            IERC20(token).allowance(sender, address(this)) >= amount,\n            \"token allowance must be >= amount\"\n        );\n        _;\n    }\n    modifier future_endtime(uint256 endtime) {\n        require(\n            endtime > block.timestamp,\n            \"endtime time must be in the future\"\n        );\n        _;\n    }\n    modifier is_locked_contract_exist(bytes32 locked_contract_id) {\n        require(\n            have_locked_contract(locked_contract_id),\n            \"locked_contract_id does not exist\"\n        );\n        _;\n    }\n    modifier check_secret_hash_matches(\n        bytes32 locked_contract_id,\n        string memory preimage\n    ) {\n        require(\n            locked_contracts[locked_contract_id].secret_hash ==\n                sha256(abi.encodePacked(preimage)),\n            \"secret hash hash does not match\"\n        );\n        _;\n    }\n    modifier withdrawable(bytes32 locked_contract_id) {\n        require(\n            locked_contracts[locked_contract_id].recipient == msg.sender,\n            \"withdrawable: not recipient\"\n        );\n        require(\n            locked_contracts[locked_contract_id].withdrawn == false,\n            \"withdrawable: already withdrawn\"\n        );\n        require(\n            locked_contracts[locked_contract_id].refunded == false,\n            \"withdrawable: already refunded\"\n        );\n        _;\n    }\n    modifier refundable(bytes32 locked_contract_id) {\n        require(\n            locked_contracts[locked_contract_id].sender == msg.sender,\n            \"refundable: not sender\"\n        );\n        require(\n            locked_contracts[locked_contract_id].refunded == false,\n            \"refundable: already refunded\"\n        );\n        require(\n            locked_contracts[locked_contract_id].withdrawn == false,\n            \"refundable: already withdrawn\"\n        );\n        require(\n            locked_contracts[locked_contract_id].endtime <= block.timestamp,\n            \"refundable: endtime not yet passed\"\n        );\n        _;\n    }\n\n    /**\n     * @dev Sender sets up a new Hash Time Lock Contract (HTLC) and depositing the IERC20 token.\n     *\n     * @param token IERC20 Token contract address.\n     * @param secret_hash A sha256 secret hash.\n     * @param recipient Recipient account of the IERC20 token.\n     * @param sender Sender account of the IERC20 token.\n     * @param endtime The timestamp that the lock expires at.\n     * @param amount Amount of the token to lock up.\n     *\n     * @return locked_contract_id of the new HTLC.\n     */\n    function fund(\n        address token,\n        bytes32 secret_hash,\n        address payable recipient,\n        address payable sender,\n        uint256 endtime,\n        uint256 amount\n    )\n        external\n        is_token_transferable(token, msg.sender, amount)\n        future_endtime(endtime)\n        returns (bytes32 locked_contract_id)\n    {\n        require(\n            msg.sender == sender,\n            \"msg.sender must be same with sender address\"\n        );\n\n        locked_contract_id = sha256(\n            abi.encodePacked(\n                token,\n                secret_hash,\n                recipient,\n                sender,\n                endtime,\n                amount\n            )\n        );\n\n        if (have_locked_contract(locked_contract_id))\n            revert(\"this locked contract already exists\");\n\n        if (!IERC20(token).transferFrom(sender, address(this), amount))\n            revert(\"transferFrom sender to this failed\");\n\n        locked_contracts[locked_contract_id] = LockContract(\n            token,\n            secret_hash,\n            recipient,\n            sender,\n            endtime,\n            amount,\n            false,\n            false,\n            \"\"\n        );\n        recipient_pendings[sender].push(locked_contract_id);\n\n        emit log_fund(\n            locked_contract_id,\n            token,\n            secret_hash,\n            recipient,\n            sender,\n            endtime,\n            amount\n        );\n        return locked_contract_id;\n    }\n\n    /**\n     * @dev Called by the recipient once they know the preimage (secret key) of the secret hash.\n     *\n     * @param locked_contract_id of HTLC to withdraw.\n     * @param preimage sha256(preimage) hash should equal the contract secret hash.\n     *\n     * @return bool true on success or false on failure.\n     */\n    function withdraw(bytes32 locked_contract_id, string memory preimage)\n        external\n        is_locked_contract_exist(locked_contract_id)\n        check_secret_hash_matches(locked_contract_id, preimage)\n        withdrawable(locked_contract_id)\n        returns (bool)\n    {\n        LockContract storage locked_contract = locked_contracts[\n            locked_contract_id\n        ];\n\n        locked_contract.preimage = preimage;\n        locked_contract.withdrawn = true;\n        token_balances[locked_contract.token] += locked_contract.amount;\n        remove_from_pendings(locked_contract_id);\n\n        emit log_withdraw(locked_contract_id);\n        return true;\n    }\n\n    /**\n     * @dev Called by the sender if there was no withdraw and the time lock has expired.\n     *\n     * @param locked_contract_id of HTLC to refund.\n     *\n     * @return bool true on success or false on failure.\n     */\n    function refund(bytes32 locked_contract_id)\n        external\n        is_locked_contract_exist(locked_contract_id)\n        refundable(locked_contract_id)\n        returns (bool)\n    {\n        LockContract storage locked_contract = locked_contracts[\n            locked_contract_id\n        ];\n\n        locked_contract.refunded = true;\n        IERC20(locked_contract.token).transfer(\n            locked_contract.sender,\n            locked_contract.amount\n        );\n        remove_from_pendings(locked_contract_id);\n\n        emit log_refund(locked_contract_id);\n        return true;\n    }\n\n    /**\n     * @dev Get HTLC IERC20 contract details.\n     *\n     * @param locked_contract_id of HTLC IERC20 to get details.\n     *\n     * @return id token secret_hash recipient sender endtime amount withdrawn refunded preimage locked HTLC IERC20 contract data's.\n     */\n    function get_locked_contract(bytes32 locked_contract_id)\n        public\n        view\n        returns (\n            bytes32 id,\n            address token,\n            bytes32 secret_hash,\n            address recipient,\n            address sender,\n            uint256 endtime,\n            uint256 amount,\n            bool withdrawn,\n            bool refunded,\n            string memory preimage\n        )\n    {\n        if (have_locked_contract(locked_contract_id) == false)\n            return (\n                0,\n                address(0),\n                0,\n                address(0),\n                address(0),\n                0,\n                0,\n                false,\n                false,\n                \"\"\n            );\n\n        LockContract storage locked_contract = locked_contracts[\n            locked_contract_id\n        ];\n\n        return (\n            locked_contract_id,\n            locked_contract.token,\n            locked_contract.secret_hash,\n            locked_contract.recipient,\n            locked_contract.sender,\n            locked_contract.endtime,\n            locked_contract.amount,\n            locked_contract.withdrawn,\n            locked_contract.refunded,\n            locked_contract.preimage\n        );\n    }\n\n    /**\n     * @dev Is there a locked contract with HTLC contract id.\n     *\n     * @param locked_contract_id of HTLC to find it exists.\n     *\n     * @return exists boolean true or false.\n     */\n    function have_locked_contract(bytes32 locked_contract_id)\n        internal\n        view\n        returns (bool exists)\n    {\n        exists = (locked_contracts[locked_contract_id].sender != address(0));\n    }\n\n    function remove_from_pendings(bytes32 locked_contract_id)\n        internal\n        returns (bool status)\n    {\n        if (recipient_pendings[msg.sender].length == 0) {\n            return false;\n        }\n\n        uint256 index = 0;\n        bool found = false;\n        for (uint256 i = 0; i < recipient_pendings[msg.sender].length; i++) {\n            if (recipient_pendings[msg.sender][i] == locked_contract_id) {\n                index = i;\n                found = true;\n                break;\n            }\n        }\n        if (found == false) {\n            return false;\n        }\n\n        for (\n            uint256 i = index;\n            i < recipient_pendings[msg.sender].length - 1;\n            i++\n        ) {\n            recipient_pendings[msg.sender][i] = recipient_pendings[msg.sender][\n                i + 1\n            ];\n        }\n        recipient_pendings[msg.sender].pop();\n        return true;\n    }\n\n    /**\n     * @dev return pending tranfers for user\n     *\n     * @param sender of user to return list of locked_contracts\n     *\n     * @return pendings list of locked_contracts\n     */\n    function get_pending_contracts(address sender)\n        external\n        view\n        returns (bytes32[] memory pendings)\n    {\n        bytes32[] memory result = new bytes32[](\n            recipient_pendings[sender].length\n        );\n\n        for (uint256 i = 0; i < recipient_pendings[sender].length; i++) {\n            result[i] = recipient_pendings[sender][i];\n        }\n        return result;\n    }\n}\n",
  "sourcePath": "/Users/pomeschenkoanton/projects/nuclearswap/truffle/contracts/htlc_erc20.sol",
  "compiler": {
    "name": "solc",
    "version": "0.8.14+commit.80d49f37.Emscripten.clang"
  },
  "schemaVersion": "3.4.7",
  "updatedAt": "2022-10-28T12:59:20.154Z",
  "devdoc": {
    "author": "Meheret Tesfaye Batu <meherett@zoho.com> HTLC -> A Hash Time Lock Contract is essentially a type of payment in which two people agree to a financial arrangement where one party will pay the other party a certain amount of cryptocurrencies, such as Bitcoin or Ethereum assets. However, because these contracts are Time-Locked, the receiving party only has a certain amount of time to accept the payment, otherwise the money can be returned to the sender. Hash-Locked -> A Hash locked functions like two-factor authentication (2FA). It requires the intended recipient to provide the correct secret passphrase to withdraw the funds. Time-Locked -> A Time locked adds a timeout expiration date to a payment. It requires the intended recipient to claim the funds prior to the expiry. Otherwise, the transaction defaults to enabling the original sender of funds to withdraw a refund.",
    "kind": "dev",
    "methods": {
      "fund(address,bytes32,address,address,uint256,uint256)": {
        "details": "Sender sets up a new Hash Time Lock Contract (HTLC) and depositing the IERC20 token.",
        "params": {
          "amount": "Amount of the token to lock up.",
          "endtime": "The timestamp that the lock expires at.",
          "recipient": "Recipient account of the IERC20 token.",
          "secret_hash": "A sha256 secret hash.",
          "sender": "Sender account of the IERC20 token.",
          "token": "IERC20 Token contract address."
        },
        "returns": {
          "locked_contract_id": "of the new HTLC."
        }
      },
      "get_locked_contract(bytes32)": {
        "details": "Get HTLC IERC20 contract details.",
        "params": {
          "locked_contract_id": "of HTLC IERC20 to get details."
        },
        "returns": {
          "id": "token secret_hash recipient sender endtime amount withdrawn refunded preimage locked HTLC IERC20 contract data's."
        }
      },
      "get_pending_contracts(address)": {
        "details": "return pending tranfers for user",
        "params": {
          "sender": "of user to return list of locked_contracts"
        },
        "returns": {
          "pendings": "list of locked_contracts"
        }
      },
      "refund(bytes32)": {
        "details": "Called by the sender if there was no withdraw and the time lock has expired.",
        "params": {
          "locked_contract_id": "of HTLC to refund."
        },
        "returns": {
          "_0": "bool true on success or false on failure."
        }
      },
      "withdraw(bytes32,string)": {
        "details": "Called by the recipient once they know the preimage (secret key) of the secret hash.",
        "params": {
          "locked_contract_id": "of HTLC to withdraw.",
          "preimage": "sha256(preimage) hash should equal the contract secret hash."
        },
        "returns": {
          "_0": "bool true on success or false on failure."
        }
      }
    },
    "title": "Hash Time Lock Contract (HTLC) IERC20",
    "version": 1
  },
  "userdoc": {
    "kind": "user",
    "methods": {},
    "version": 1
  }
}