{
  "contractName": "HTLC_ERC20",
  "abi": [
    {
      "anonymous": false,
      "inputs": [
        {
          "indexed": true,
          "internalType": "bytes32",
          "name": "locked_contract_id",
          "type": "bytes32"
        },
        {
          "indexed": false,
          "internalType": "address",
          "name": "token",
          "type": "address"
        },
        {
          "indexed": false,
          "internalType": "bytes32",
          "name": "secret_hash",
          "type": "bytes32"
        },
        {
          "indexed": true,
          "internalType": "address",
          "name": "recipient",
          "type": "address"
        },
        {
          "indexed": true,
          "internalType": "address",
          "name": "sender",
          "type": "address"
        },
        {
          "indexed": false,
          "internalType": "uint256",
          "name": "endtime",
          "type": "uint256"
        },
        {
          "indexed": false,
          "internalType": "uint256",
          "name": "amount",
          "type": "uint256"
        }
      ],
      "name": "log_fund",
      "type": "event"
    },
    {
      "anonymous": false,
      "inputs": [
        {
          "indexed": true,
          "internalType": "bytes32",
          "name": "locked_contract_id",
          "type": "bytes32"
        }
      ],
      "name": "log_refund",
      "type": "event"
    },
    {
      "anonymous": false,
      "inputs": [
        {
          "indexed": true,
          "internalType": "bytes32",
          "name": "locked_contract_id",
          "type": "bytes32"
        }
      ],
      "name": "log_withdraw",
      "type": "event"
    },
    {
      "inputs": [
        {
          "internalType": "address",
          "name": "token",
          "type": "address"
        },
        {
          "internalType": "bytes32",
          "name": "secret_hash",
          "type": "bytes32"
        },
        {
          "internalType": "address payable",
          "name": "recipient",
          "type": "address"
        },
        {
          "internalType": "address payable",
          "name": "sender",
          "type": "address"
        },
        {
          "internalType": "uint256",
          "name": "endtime",
          "type": "uint256"
        },
        {
          "internalType": "uint256",
          "name": "amount",
          "type": "uint256"
        }
      ],
      "name": "fund",
      "outputs": [
        {
          "internalType": "bytes32",
          "name": "locked_contract_id",
          "type": "bytes32"
        }
      ],
      "stateMutability": "nonpayable",
      "type": "function"
    },
    {
      "inputs": [
        {
          "internalType": "bytes32",
          "name": "locked_contract_id",
          "type": "bytes32"
        },
        {
          "internalType": "string",
          "name": "preimage",
          "type": "string"
        }
      ],
      "name": "withdraw",
      "outputs": [
        {
          "internalType": "bool",
          "name": "",
          "type": "bool"
        }
      ],
      "stateMutability": "nonpayable",
      "type": "function"
    },
    {
      "inputs": [
        {
          "internalType": "bytes32",
          "name": "locked_contract_id",
          "type": "bytes32"
        }
      ],
      "name": "refund",
      "outputs": [
        {
          "internalType": "bool",
          "name": "",
          "type": "bool"
        }
      ],
      "stateMutability": "nonpayable",
      "type": "function"
    },
    {
      "inputs": [
        {
          "internalType": "bytes32",
          "name": "locked_contract_id",
          "type": "bytes32"
        }
      ],
      "name": "get_locked_contract",
      "outputs": [
        {
          "internalType": "bytes32",
          "name": "id",
          "type": "bytes32"
        },
        {
          "internalType": "address",
          "name": "token",
          "type": "address"
        },
        {
          "internalType": "bytes32",
          "name": "secret_hash",
          "type": "bytes32"
        },
        {
          "internalType": "address",
          "name": "recipient",
          "type": "address"
        },
        {
          "internalType": "address",
          "name": "sender",
          "type": "address"
        },
        {
          "internalType": "uint256",
          "name": "endtime",
          "type": "uint256"
        },
        {
          "internalType": "uint256",
          "name": "amount",
          "type": "uint256"
        },
        {
          "internalType": "bool",
          "name": "withdrawn",
          "type": "bool"
        },
        {
          "internalType": "bool",
          "name": "refunded",
          "type": "bool"
        },
        {
          "internalType": "string",
          "name": "preimage",
          "type": "string"
        }
      ],
      "stateMutability": "view",
      "type": "function",
      "constant": true
    }
  ],
  "bytecode": "0x608060405234801561001057600080fd5b506121cd806100206000396000f3fe608060405234801561001057600080fd5b506004361061004c5760003560e01c806306a53665146100515780637249fbb614610081578063cfd4b66e146100b1578063ebfcea37146100ea575b600080fd5b61006b6004803603810190610066919061126a565b61011a565b60405161007891906112e1565b60405180910390f35b61009b600480360381019061009691906112fc565b6104f5565b6040516100a891906112e1565b60405180910390f35b6100cb60048036038101906100c691906112fc565b610845565b6040516100e19a9998979695949392919061141a565b60405180910390f35b61010460048036038101906100ff9190611553565b610a18565b60405161011191906115e0565b60405180910390f35b60008261012681610fc9565b610165576040517f08c379a000000000000000000000000000000000000000000000000000000000815260040161015c9061166d565b60405180910390fd5b838360028160405160200161017a91906116c9565b6040516020818303038152906040526040516101969190611727565b602060405180830381855afa1580156101b3573d6000803e3d6000fd5b5050506040513d601f19601f820116820180604052508101906101d69190611753565b600080848152602001908152602001600020600101541461022c576040517f08c379a0000000000000000000000000000000000000000000000000000000008152600401610223906117cc565b60405180910390fd5b853373ffffffffffffffffffffffffffffffffffffffff1660008083815260200190815260200160002060020160009054906101000a900473ffffffffffffffffffffffffffffffffffffffff1673ffffffffffffffffffffffffffffffffffffffff16146102d0576040517f08c379a00000000000000000000000000000000000000000000000000000000081526004016102c790611838565b60405180910390fd5b6000151560008083815260200190815260200160002060060160009054906101000a900460ff16151514610339576040517f08c379a0000000000000000000000000000000000000000000000000000000008152600401610330906118a4565b60405180910390fd5b6000151560008083815260200190815260200160002060060160019054906101000a900460ff161515146103a2576040517f08c379a000000000000000000000000000000000000000000000000000000000815260040161039990611910565b60405180910390fd5b60008060008981526020019081526020016000209050868160070190805190602001906103d0929190611037565b5060018160060160006101000a81548160ff0219169083151502179055508060000160009054906101000a900473ffffffffffffffffffffffffffffffffffffffff1673ffffffffffffffffffffffffffffffffffffffff1663a9059cbb8260020160009054906101000a900473ffffffffffffffffffffffffffffffffffffffff1683600501546040518363ffffffff1660e01b815260040161047592919061198f565b6020604051808303816000875af1158015610494573d6000803e3d6000fd5b505050506040513d601f19601f820116820180604052508101906104b891906119e4565b50877f504d590eb5fc388d52f9ec13027846f2a4be1de21e120f4f6cb81577631925b660405160405180910390a260019550505050505092915050565b60008161050181610fc9565b610540576040517f08c379a00000000000000000000000000000000000000000000000000000000081526004016105379061166d565b60405180910390fd5b823373ffffffffffffffffffffffffffffffffffffffff1660008083815260200190815260200160002060030160009054906101000a900473ffffffffffffffffffffffffffffffffffffffff1673ffffffffffffffffffffffffffffffffffffffff16146105e4576040517f08c379a00000000000000000000000000000000000000000000000000000000081526004016105db90611a5d565b60405180910390fd5b6000151560008083815260200190815260200160002060060160019054906101000a900460ff1615151461064d576040517f08c379a000000000000000000000000000000000000000000000000000000000815260040161064490611ac9565b60405180910390fd5b6000151560008083815260200190815260200160002060060160009054906101000a900460ff161515146106b6576040517f08c379a00000000000000000000000000000000000000000000000000000000081526004016106ad90611b35565b60405180910390fd5b4260008083815260200190815260200160002060040154111561070e576040517f08c379a000000000000000000000000000000000000000000000000000000000815260040161070590611bc7565b60405180910390fd5b6000806000868152602001908152602001600020905060018160060160016101000a81548160ff0219169083151502179055508060000160009054906101000a900473ffffffffffffffffffffffffffffffffffffffff1673ffffffffffffffffffffffffffffffffffffffff1663a9059cbb8260030160009054906101000a900473ffffffffffffffffffffffffffffffffffffffff1683600501546040518363ffffffff1660e01b81526004016107c892919061198f565b6020604051808303816000875af11580156107e7573d6000803e3d6000fd5b505050506040513d601f19601f8201168201806040525081019061080b91906119e4565b50847ff9f621227215a273c53adae3204668db470019bad0903f243eefc5f7736fc95660405160405180910390a260019350505050919050565b60008060008060008060008060006060600015156108628c610fc9565b1515036108ac5760008060008060008060008060008860001b98508660001b9650604051806020016040528060008152509950995099509950995099509950995099509950610a0b565b60008060008d815260200190815260200160002090508b8160000160009054906101000a900473ffffffffffffffffffffffffffffffffffffffff1682600101548360020160009054906101000a900473ffffffffffffffffffffffffffffffffffffffff168460030160009054906101000a900473ffffffffffffffffffffffffffffffffffffffff16856004015486600501548760060160009054906101000a900460ff168860060160019054906101000a900460ff168960070180805461097590611c16565b80601f01602080910402602001604051908101604052809291908181526020018280546109a190611c16565b80156109ee5780601f106109c3576101008083540402835291602001916109ee565b820191906000526020600020905b8154815290600101906020018083116109d157829003601f168201915b505050505090509a509a509a509a509a509a509a509a509a509a50505b9193959799509193959799565b600086338360008111610a60576040517f08c379a0000000000000000000000000000000000000000000000000000000008152600401610a5790611c93565b60405180910390fd5b808373ffffffffffffffffffffffffffffffffffffffff1663dd62ed3e84306040518363ffffffff1660e01b8152600401610a9c929190611cb3565b602060405180830381865afa158015610ab9573d6000803e3d6000fd5b505050506040513d601f19601f82011682018060405250810190610add9190611cf1565b1015610b1e576040517f08c379a0000000000000000000000000000000000000000000000000000000008152600401610b1590611d90565b60405180910390fd5b85428111610b61576040517f08c379a0000000000000000000000000000000000000000000000000000000008152600401610b5890611e22565b60405180910390fd5b8773ffffffffffffffffffffffffffffffffffffffff163373ffffffffffffffffffffffffffffffffffffffff1614610bcf576040517f08c379a0000000000000000000000000000000000000000000000000000000008152600401610bc690611eb4565b60405180910390fd5b60028b8b8b8b8b8b604051602001610bec96959493929190611f87565b604051602081830303815290604052604051610c089190611727565b602060405180830381855afa158015610c25573d6000803e3d6000fd5b5050506040513d601f19601f82011682018060405250810190610c489190611753565b9450610c5385610fc9565b15610c93576040517f08c379a0000000000000000000000000000000000000000000000000000000008152600401610c8a90612069565b60405180910390fd5b8a73ffffffffffffffffffffffffffffffffffffffff166323b872dd8930896040518463ffffffff1660e01b8152600401610cd093929190612089565b6020604051808303816000875af1158015610cef573d6000803e3d6000fd5b505050506040513d601f19601f82011682018060405250810190610d1391906119e4565b610d52576040517f08c379a0000000000000000000000000000000000000000000000000000000008152600401610d4990612132565b60405180910390fd5b6040518061012001604052808c73ffffffffffffffffffffffffffffffffffffffff1681526020018b81526020018a73ffffffffffffffffffffffffffffffffffffffff1681526020018973ffffffffffffffffffffffffffffffffffffffff1681526020018881526020018781526020016000151581526020016000151581526020016040518060200160405280600081525081525060008087815260200190815260200160002060008201518160000160006101000a81548173ffffffffffffffffffffffffffffffffffffffff021916908373ffffffffffffffffffffffffffffffffffffffff1602179055506020820151816001015560408201518160020160006101000a81548173ffffffffffffffffffffffffffffffffffffffff021916908373ffffffffffffffffffffffffffffffffffffffff16021790555060608201518160030160006101000a81548173ffffffffffffffffffffffffffffffffffffffff021916908373ffffffffffffffffffffffffffffffffffffffff1602179055506080820151816004015560a0820151816005015560c08201518160060160006101000a81548160ff02191690831515021790555060e08201518160060160016101000a81548160ff021916908315150217905550610100820151816007019080519060200190610f4b929190611037565b509050508773ffffffffffffffffffffffffffffffffffffffff168973ffffffffffffffffffffffffffffffffffffffff16867fdeb113c37962b77726f3111a1d9f63c98c3a700416aaf4463e95f1f1f20bc8d18e8e8c8c604051610fb39493929190612152565b60405180910390a4505050509695505050505050565b60008073ffffffffffffffffffffffffffffffffffffffff1660008084815260200190815260200160002060030160009054906101000a900473ffffffffffffffffffffffffffffffffffffffff1673ffffffffffffffffffffffffffffffffffffffff1614159050919050565b82805461104390611c16565b90600052602060002090601f01602090048101928261106557600085556110ac565b82601f1061107e57805160ff19168380011785556110ac565b828001600101855582156110ac579182015b828111156110ab578251825591602001919060010190611090565b5b5090506110b991906110bd565b5090565b5b808211156110d65760008160009055506001016110be565b5090565b6000604051905090565b600080fd5b600080fd5b6000819050919050565b611101816110ee565b811461110c57600080fd5b50565b60008135905061111e816110f8565b92915050565b600080fd5b600080fd5b6000601f19601f8301169050919050565b7f4e487b7100000000000000000000000000000000000000000000000000000000600052604160045260246000fd5b6111778261112e565b810181811067ffffffffffffffff821117156111965761119561113f565b5b80604052505050565b60006111a96110da565b90506111b5828261116e565b919050565b600067ffffffffffffffff8211156111d5576111d461113f565b5b6111de8261112e565b9050602081019050919050565b82818337600083830152505050565b600061120d611208846111ba565b61119f565b90508281526020810184848401111561122957611228611129565b5b6112348482856111eb565b509392505050565b600082601f83011261125157611250611124565b5b81356112618482602086016111fa565b91505092915050565b60008060408385031215611281576112806110e4565b5b600061128f8582860161110f565b925050602083013567ffffffffffffffff8111156112b0576112af6110e9565b5b6112bc8582860161123c565b9150509250929050565b60008115159050919050565b6112db816112c6565b82525050565b60006020820190506112f660008301846112d2565b92915050565b600060208284031215611312576113116110e4565b5b60006113208482850161110f565b91505092915050565b611332816110ee565b82525050565b600073ffffffffffffffffffffffffffffffffffffffff82169050919050565b600061136382611338565b9050919050565b61137381611358565b82525050565b6000819050919050565b61138c81611379565b82525050565b600081519050919050565b600082825260208201905092915050565b60005b838110156113cc5780820151818401526020810190506113b1565b838111156113db576000848401525b50505050565b60006113ec82611392565b6113f6818561139d565b93506114068185602086016113ae565b61140f8161112e565b840191505092915050565b600061014082019050611430600083018d611329565b61143d602083018c61136a565b61144a604083018b611329565b611457606083018a61136a565b611464608083018961136a565b61147160a0830188611383565b61147e60c0830187611383565b61148b60e08301866112d2565b6114996101008301856112d2565b8181036101208301526114ac81846113e1565b90509b9a5050505050505050505050565b6114c681611358565b81146114d157600080fd5b50565b6000813590506114e3816114bd565b92915050565b60006114f482611338565b9050919050565b611504816114e9565b811461150f57600080fd5b50565b600081359050611521816114fb565b92915050565b61153081611379565b811461153b57600080fd5b50565b60008135905061154d81611527565b92915050565b60008060008060008060c087890312156115705761156f6110e4565b5b600061157e89828a016114d4565b965050602061158f89828a0161110f565b95505060406115a089828a01611512565b94505060606115b189828a01611512565b93505060806115c289828a0161153e565b92505060a06115d389828a0161153e565b9150509295509295509295565b60006020820190506115f56000830184611329565b92915050565b7f6c6f636b65645f636f6e74726163745f696420646f6573206e6f74206578697360008201527f7400000000000000000000000000000000000000000000000000000000000000602082015250565b600061165760218361139d565b9150611662826115fb565b604082019050919050565b600060208201905081810360008301526116868161164a565b9050919050565b600081905092915050565b60006116a382611392565b6116ad818561168d565b93506116bd8185602086016113ae565b80840191505092915050565b60006116d58284611698565b915081905092915050565b600081519050919050565b600081905092915050565b6000611701826116e0565b61170b81856116eb565b935061171b8185602086016113ae565b80840191505092915050565b600061173382846116f6565b915081905092915050565b60008151905061174d816110f8565b92915050565b600060208284031215611769576117686110e4565b5b60006117778482850161173e565b91505092915050565b7f7365637265742068617368206861736820646f6573206e6f74206d6174636800600082015250565b60006117b6601f8361139d565b91506117c182611780565b602082019050919050565b600060208201905081810360008301526117e5816117a9565b9050919050565b7f776974686472617761626c653a206e6f7420726563697069656e740000000000600082015250565b6000611822601b8361139d565b915061182d826117ec565b602082019050919050565b6000602082019050818103600083015261185181611815565b9050919050565b7f776974686472617761626c653a20616c72656164792077697468647261776e00600082015250565b600061188e601f8361139d565b915061189982611858565b602082019050919050565b600060208201905081810360008301526118bd81611881565b9050919050565b7f776974686472617761626c653a20616c726561647920726566756e6465640000600082015250565b60006118fa601e8361139d565b9150611905826118c4565b602082019050919050565b60006020820190508181036000830152611929816118ed565b9050919050565b6000819050919050565b600061195561195061194b84611338565b611930565b611338565b9050919050565b60006119678261193a565b9050919050565b60006119798261195c565b9050919050565b6119898161196e565b82525050565b60006040820190506119a46000830185611980565b6119b16020830184611383565b9392505050565b6119c1816112c6565b81146119cc57600080fd5b50565b6000815190506119de816119b8565b92915050565b6000602082840312156119fa576119f96110e4565b5b6000611a08848285016119cf565b91505092915050565b7f726566756e6461626c653a206e6f742073656e64657200000000000000000000600082015250565b6000611a4760168361139d565b9150611a5282611a11565b602082019050919050565b60006020820190508181036000830152611a7681611a3a565b9050919050565b7f726566756e6461626c653a20616c726561647920726566756e64656400000000600082015250565b6000611ab3601c8361139d565b9150611abe82611a7d565b602082019050919050565b60006020820190508181036000830152611ae281611aa6565b9050919050565b7f726566756e6461626c653a20616c72656164792077697468647261776e000000600082015250565b6000611b1f601d8361139d565b9150611b2a82611ae9565b602082019050919050565b60006020820190508181036000830152611b4e81611b12565b9050919050565b7f726566756e6461626c653a20656e6474696d65206e6f7420796574207061737360008201527f6564000000000000000000000000000000000000000000000000000000000000602082015250565b6000611bb160228361139d565b9150611bbc82611b55565b604082019050919050565b60006020820190508181036000830152611be081611ba4565b9050919050565b7f4e487b7100000000000000000000000000000000000000000000000000000000600052602260045260246000fd5b60006002820490506001821680611c2e57607f821691505b602082108103611c4157611c40611be7565b5b50919050565b7f746f6b656e20616d6f756e74206d757374206265203e20300000000000000000600082015250565b6000611c7d60188361139d565b9150611c8882611c47565b602082019050919050565b60006020820190508181036000830152611cac81611c70565b9050919050565b6000604082019050611cc8600083018561136a565b611cd5602083018461136a565b9392505050565b600081519050611ceb81611527565b92915050565b600060208284031215611d0757611d066110e4565b5b6000611d1584828501611cdc565b91505092915050565b7f746f6b656e20616c6c6f77616e6365206d757374206265203e3d20616d6f756e60008201527f7400000000000000000000000000000000000000000000000000000000000000602082015250565b6000611d7a60218361139d565b9150611d8582611d1e565b604082019050919050565b60006020820190508181036000830152611da981611d6d565b9050919050565b7f656e6474696d652074696d65206d75737420626520696e20746865206675747560008201527f7265000000000000000000000000000000000000000000000000000000000000602082015250565b6000611e0c60228361139d565b9150611e1782611db0565b604082019050919050565b60006020820190508181036000830152611e3b81611dff565b9050919050565b7f6d73672e73656e646572206d7573742062652073616d6520776974682073656e60008201527f6465722061646472657373000000000000000000000000000000000000000000602082015250565b6000611e9e602b8361139d565b9150611ea982611e42565b604082019050919050565b60006020820190508181036000830152611ecd81611e91565b9050919050565b60008160601b9050919050565b6000611eec82611ed4565b9050919050565b6000611efe82611ee1565b9050919050565b611f16611f1182611358565b611ef3565b82525050565b6000819050919050565b611f37611f32826110ee565b611f1c565b82525050565b6000611f4882611ee1565b9050919050565b611f60611f5b826114e9565b611f3d565b82525050565b6000819050919050565b611f81611f7c82611379565b611f66565b82525050565b6000611f938289611f05565b601482019150611fa38288611f26565b602082019150611fb38287611f4f565b601482019150611fc38286611f4f565b601482019150611fd38285611f70565b602082019150611fe38284611f70565b602082019150819050979650505050505050565b7f74686973206c6f636b656420636f6e747261637420616c72656164792065786960008201527f7374730000000000000000000000000000000000000000000000000000000000602082015250565b600061205360238361139d565b915061205e82611ff7565b604082019050919050565b6000602082019050818103600083015261208281612046565b9050919050565b600060608201905061209e6000830186611980565b6120ab602083018561136a565b6120b86040830184611383565b949350505050565b7f7472616e7366657246726f6d2073656e64657220746f2074686973206661696c60008201527f6564000000000000000000000000000000000000000000000000000000000000602082015250565b600061211c60228361139d565b9150612127826120c0565b604082019050919050565b6000602082019050818103600083015261214b8161210f565b9050919050565b6000608082019050612167600083018761136a565b6121746020830186611329565b6121816040830185611383565b61218e6060830184611383565b9594505050505056fea2646970667358221220e76843a211080a24706999a424ffadfff7b0bf06dcf8d2ab5b30ecd68305243764736f6c634300080e0033",
  "immutableReferences": {},
  "source": "// SPDX-License-Identifier: AGPL-3.0\n\npragma solidity ^0.8.10;\n\nimport \"@openzeppelin/contracts/token/ERC20/IERC20.sol\";\n\n/**\n * @title Hash Time Lock Contract (HTLC) IERC20\n *\n * @author Meheret Tesfaye Batu <meherett@zoho.com>\n *\n * HTLC -> A Hash Time Lock Contract is essentially a type of payment in which two people\n * agree to a financial arrangement where one party will pay the other party a certain amount\n * of cryptocurrencies, such as Bitcoin or Ethereum assets.\n * However, because these contracts are Time-Locked, the receiving party only has a certain\n * amount of time to accept the payment, otherwise the money can be returned to the sender.\n *\n * Hash-Locked -> A Hash locked functions like two-factor authentication (2FA). It requires\n * the intended recipient to provide the correct secret passphrase to withdraw the funds.\n *\n * Time-Locked -> A Time locked adds a timeout expiration date to a payment. It requires\n * the intended recipient to claim the funds prior to the expiry. Otherwise, the transaction\n * defaults to enabling the original sender of funds to withdraw a refund.\n */\ncontract HTLC_ERC20 {\n\n    struct LockContract {\n        address token;\n        bytes32 secret_hash;\n        address payable recipient;\n        address payable sender;\n        uint256 endtime;\n        uint256 amount;\n        bool withdrawn;\n        bool refunded;\n        string preimage;\n    }\n\n    mapping (bytes32 => LockContract) locked_contracts;\n\n    event log_fund (\n        bytes32 indexed locked_contract_id,\n        address token,\n        bytes32 secret_hash,\n        address indexed recipient,\n        address indexed sender,\n        uint256 endtime,\n        uint256 amount\n    );\n    event log_withdraw (\n        bytes32 indexed locked_contract_id\n    );\n    event log_refund (\n        bytes32 indexed locked_contract_id\n    );\n\n    modifier is_token_transferable (address token, address sender, uint256 amount) {\n        require(amount > 0, \"token amount must be > 0\");\n        require(IERC20(token).allowance(sender, address(this)) >= amount, \"token allowance must be >= amount\");\n        _;\n    }\n    modifier future_endtime (uint256 endtime) {\n        require(endtime > block.timestamp, \"endtime time must be in the future\");\n        _;\n    }\n    modifier is_locked_contract_exist (bytes32 locked_contract_id) {\n        require(have_locked_contract(locked_contract_id), \"locked_contract_id does not exist\");\n        _;\n    }\n    modifier check_secret_hash_matches (bytes32 locked_contract_id, string memory preimage) {\n        require(locked_contracts[locked_contract_id].secret_hash == sha256(abi.encodePacked(preimage)), \"secret hash hash does not match\");\n        _;\n    }\n    modifier withdrawable (bytes32 locked_contract_id) {\n        require(locked_contracts[locked_contract_id].recipient == msg.sender, \"withdrawable: not recipient\");\n        require(locked_contracts[locked_contract_id].withdrawn == false, \"withdrawable: already withdrawn\");\n        require(locked_contracts[locked_contract_id].refunded == false, \"withdrawable: already refunded\");\n        _;\n    }\n    modifier refundable (bytes32 locked_contract_id) {\n        require(locked_contracts[locked_contract_id].sender == msg.sender, \"refundable: not sender\");\n        require(locked_contracts[locked_contract_id].refunded == false, \"refundable: already refunded\");\n        require(locked_contracts[locked_contract_id].withdrawn == false, \"refundable: already withdrawn\");\n        require(locked_contracts[locked_contract_id].endtime <= block.timestamp, \"refundable: endtime not yet passed\");\n        _;\n    }\n\n    /**\n     * @dev Sender sets up a new Hash Time Lock Contract (HTLC) and depositing the IERC20 token.\n     *\n     * @param token IERC20 Token contract address.\n     * @param secret_hash A sha256 secret hash.\n     * @param recipient Recipient account of the IERC20 token.\n     * @param sender Sender account of the IERC20 token.\n     * @param endtime The timestamp that the lock expires at.\n     * @param amount Amount of the token to lock up.\n     *\n     * @return locked_contract_id of the new HTLC.\n     */\n    function fund (\n        address token, bytes32 secret_hash, address payable recipient, address payable sender, uint256 endtime, uint256 amount\n    ) external is_token_transferable (token, msg.sender, amount) future_endtime (endtime) returns (bytes32 locked_contract_id) {\n\n        require(msg.sender == sender, \"msg.sender must be same with sender address\");\n\n        locked_contract_id = sha256(abi.encodePacked(\n            token, secret_hash, recipient, sender, endtime, amount\n        ));\n\n        if (have_locked_contract(locked_contract_id))\n            revert(\"this locked contract already exists\");\n\n        if (!IERC20(token).transferFrom(sender, address(this), amount))\n            revert(\"transferFrom sender to this failed\");\n\n        locked_contracts[locked_contract_id] = LockContract(\n            token, secret_hash, recipient, sender, endtime, amount, false, false, \"\"\n        );\n\n        emit log_fund (\n            locked_contract_id, token, secret_hash, recipient, sender, endtime, amount\n        );\n        return locked_contract_id;\n    }\n\n    /**\n     * @dev Called by the recipient once they know the preimage (secret key) of the secret hash.\n     *\n     * @param locked_contract_id of HTLC to withdraw.\n     * @param preimage sha256(preimage) hash should equal the contract secret hash.\n     *\n     * @return bool true on success or false on failure.\n     */\n    function withdraw (bytes32 locked_contract_id, string memory preimage) external is_locked_contract_exist (locked_contract_id) check_secret_hash_matches (locked_contract_id, preimage) withdrawable (locked_contract_id) returns (bool) {\n\n        LockContract storage locked_contract = locked_contracts[locked_contract_id];\n\n        locked_contract.preimage = preimage;\n        locked_contract.withdrawn = true;\n        IERC20(locked_contract.token).transfer(\n            locked_contract.recipient, locked_contract.amount\n        );\n\n        emit log_withdraw(\n            locked_contract_id\n        );\n        return true;\n    }\n\n    /**\n     * @dev Called by the sender if there was no withdraw and the time lock has expired.\n     *\n     * @param locked_contract_id of HTLC to refund.\n     *\n     * @return bool true on success or false on failure.\n     */\n    function refund (bytes32 locked_contract_id) external is_locked_contract_exist (locked_contract_id) refundable (locked_contract_id) returns (bool) {\n\n        LockContract storage locked_contract = locked_contracts[locked_contract_id];\n\n        locked_contract.refunded = true;\n        IERC20(locked_contract.token).transfer(\n            locked_contract.sender, locked_contract.amount\n        );\n\n        emit log_refund(\n            locked_contract_id\n        );\n        return true;\n    }\n\n    /**\n     * @dev Get HTLC IERC20 contract details.\n     *\n     * @param locked_contract_id of HTLC IERC20 to get details.\n     *\n     * @return id token secret_hash recipient sender endtime amount withdrawn refunded preimage locked HTLC IERC20 contract data's.\n     */\n    function get_locked_contract (bytes32 locked_contract_id) public view returns (\n        bytes32 id, address token, bytes32 secret_hash, address recipient, address sender, uint256 endtime, uint256 amount, bool withdrawn, bool refunded, string memory preimage\n    ) {\n        if (have_locked_contract(locked_contract_id) == false)\n            return (0, address(0), 0, address(0), address(0), 0, 0, false, false, \"\");\n\n        LockContract storage locked_contract = locked_contracts[locked_contract_id];\n\n        return (\n            locked_contract_id,\n            locked_contract.token,\n            locked_contract.secret_hash,\n            locked_contract.recipient,\n            locked_contract.sender,\n            locked_contract.endtime,\n            locked_contract.amount,\n            locked_contract.withdrawn,\n            locked_contract.refunded,\n            locked_contract.preimage\n        );\n    }\n\n    /**\n     * @dev Is there a locked contract with HTLC contract id.\n     *\n     * @param locked_contract_id of HTLC to find it exists.\n     *\n     * @return exists boolean true or false.\n     */\n    function have_locked_contract(bytes32 locked_contract_id) internal view returns (bool exists){\n        exists = (locked_contracts[locked_contract_id].sender != address(0));\n    }\n}",
  "sourcePath": "/Users/pomeschenkoanton/projects/nuclearswap/truffle/contracts/htlc_erc20.sol",
  "compiler": {
    "name": "solc",
    "version": "0.8.14+commit.80d49f37.Emscripten.clang"
  },
  "schemaVersion": "3.4.7",
  "updatedAt": "2022-09-02T15:06:04.968Z",
  "networkType": "ethereum",
  "devdoc": {
    "author": "Meheret Tesfaye Batu <meherett@zoho.com> HTLC -> A Hash Time Lock Contract is essentially a type of payment in which two people agree to a financial arrangement where one party will pay the other party a certain amount of cryptocurrencies, such as Bitcoin or Ethereum assets. However, because these contracts are Time-Locked, the receiving party only has a certain amount of time to accept the payment, otherwise the money can be returned to the sender. Hash-Locked -> A Hash locked functions like two-factor authentication (2FA). It requires the intended recipient to provide the correct secret passphrase to withdraw the funds. Time-Locked -> A Time locked adds a timeout expiration date to a payment. It requires the intended recipient to claim the funds prior to the expiry. Otherwise, the transaction defaults to enabling the original sender of funds to withdraw a refund.",
    "kind": "dev",
    "methods": {
      "fund(address,bytes32,address,address,uint256,uint256)": {
        "details": "Sender sets up a new Hash Time Lock Contract (HTLC) and depositing the IERC20 token.",
        "params": {
          "amount": "Amount of the token to lock up.",
          "endtime": "The timestamp that the lock expires at.",
          "recipient": "Recipient account of the IERC20 token.",
          "secret_hash": "A sha256 secret hash.",
          "sender": "Sender account of the IERC20 token.",
          "token": "IERC20 Token contract address."
        },
        "returns": {
          "locked_contract_id": "of the new HTLC."
        }
      },
      "get_locked_contract(bytes32)": {
        "details": "Get HTLC IERC20 contract details.",
        "params": {
          "locked_contract_id": "of HTLC IERC20 to get details."
        },
        "returns": {
          "id": "token secret_hash recipient sender endtime amount withdrawn refunded preimage locked HTLC IERC20 contract data's."
        }
      },
      "refund(bytes32)": {
        "details": "Called by the sender if there was no withdraw and the time lock has expired.",
        "params": {
          "locked_contract_id": "of HTLC to refund."
        },
        "returns": {
          "_0": "bool true on success or false on failure."
        }
      },
      "withdraw(bytes32,string)": {
        "details": "Called by the recipient once they know the preimage (secret key) of the secret hash.",
        "params": {
          "locked_contract_id": "of HTLC to withdraw.",
          "preimage": "sha256(preimage) hash should equal the contract secret hash."
        },
        "returns": {
          "_0": "bool true on success or false on failure."
        }
      }
    },
    "title": "Hash Time Lock Contract (HTLC) IERC20",
    "version": 1
  },
  "userdoc": {
    "kind": "user",
    "methods": {},
    "version": 1
  }
}